:4000000000400020110000001D4200001D42000080B500AF04F02EF980B500AF374B12221A6004F03FFD364B181C06F029F9012004F048FD302004F077FB324B324A1A60FE
:40004000324B8022D2051A60314B314A126802210A431A602F4B304A1A60304B00221A602F4B2F4A126808218A431A60FA23DB00181C04F0A5FB2B4B181C04F0B7FC2A4BCD
:40008000BC2292011A60294B294A1A60294BBC2292011A60254B284A1A60284BE82252011A60224B264A1A60264B882292011A601E4B254A1A60254B822212061A60244B09
:4000C0008022D2021A60234B42221A60224B43221A60224B40221A60214B41221A60214B0820191C04F0B2FB082004F029FC074B8022D2051A60BD4680BDC0463000104030
:40010000001BB70004010B40060000800C020B4078002E407C002E402D3E000064F02E406CF02E40DC050000080301400000014042FF00800C03014043FF00800003014072
:4001400040FF00800403014041FF008008010B4000010B40200101401C0101401801014008010140154C000080B582B000AF72B6464B00221A60FB1D00221A7023E0FB1D09
:400180001A78131C5B009B185B00414A9B183B603B681A78597809020A43997809040A43DB781B061343191C3B681A795B791B0213439BB2081C191C04F0E0F8FB1D1A78DB
:4001C000FB1D01321A70FB1D1B78012BD7D9314A314B101C191C04F0E1F8304B304A1A60304B992212041A602F4B992212041A602E4B802292031A602D4B992212041A6097
:400200002C4B802212031A602B4B992212041A602A4A2A4B1B78DBB202210B43DBB21370274A274B1B78DBB23C218B43DBB214210B43DBB21370214A204B1B78DBB2162150
:400240000B43DBB213701F4B32221A601E4B1F4A1A601F4B02221A601E4B04221A601E4B1E4A1A601E4B02221A601E4B1E4A1A601E4B10221A601E4B10221A60FFF7CCFE04
:4002800004F0CCF8BD4602B080BDC0466CF02E40D4630100E0630100E463010000000240990000EE00500F4010500F4014500F4020500F4024500F4030500F4000700F4026
:4002C00001700F4000000440080004403160DB00180004400001044008010440B60C00000002044008020440100C0300000304401803044010B5064C2378002B07D1054B34
:40030000002B02D0044800E000BF0123237010BDE004002000000000B062010008B5084B002B03D00748084900E000BF07480368002B00D108BD064B002BFBD09847F9E76C
:4003400000000000B0620100E4040020C80000200000000080B500AF012005F017FC094B00225A71084B67229B5C002B07D0064B68229B5C0133D9B2034B68229954BD46FE
:4003800080BDC04600050020F014002098B500AF374B04221A60374B72229B5C002B5FD1344B65229B5C01221340DBB2002B11D1304B65229B5C5B08D9B22E4B6622995449
:4003C0002C4B66229B5C1C1C05F0FEF9031CDAB2284B1A55274B65229B5C0133D9B2254B65229954234B66229B5C282B0FD9214B6522002199541F4B6622002199541D4B32
:400400006822002199541B4B672200219954194B65229B5C012B03D1164B672201219954144B66229B5C012B06D1124B5B780433D9B2104B642299540E4B66229B5C032BA5
:4004400012D90C4B66229B5C191C0A4B64229B5C013B994208D1074B69220121995403E0044B65220021995405F0BEF9BD4698BDC00F2540F014002080B500AF012005F0BB
:4004800097FE094B1B78002B06D1074B01221A70012005F0B9FA05E0034B00221A70002005F0B2FABD4680BDFC04002090B583B000AF05F007FB504B181C05F073FB05F0B1
:4004C00063F905F031FA4D4B181C05F03FFA012005F010FC4A4B181C05F076FE01F04CF905F02EFC474B1B7D002B35D0FB1D00221A7029E0FB1D1B785B00DC1CFB1D1B780D
:40050000404AD3181B7C1B09DBB2181C00F0A0FF031C1A1C3C4B1A55FB1D1B7802335C00FB1D1B78374AD3181B7C0F221340DBB2181C00F08DFF031C1A1C334B1A55FB1DEB
:400540001A78FB1D01321A70FB1D1B78032BD1D92D4B181C04F0E0FD3C1D2C4B181C04F0F3FB031C238062B60A2004F01BFA06F0A9FA012005F098FB002005F06FFB244BF1
:400580006C221021995400F06BF806F09BFA00F069FB00F0EFFB01F031F901F037FA1C4B72229B5C002B14D0194B71229B5C0133D9B2174B71229954154B71229B5C032B9E
:4005C00007D9134B722200219954114B71220021995401F0ABF80F4B1B785B075B0FDBB2181C00F04DFFC0460B4B5B79002BFBD1094B01225A71C6E7550300008D030000D6
:400600007904000010050020CC000020BD060000F01400200C0500200005002080B582B000AF05F0A7FC022005F0AEFC002005F0CFFC031C1A1CBB1D1A80BB1D1B88FA2232
:4006400012015343181C054906F018F8031C3B603B689BB2181CBD4602B080BD3907000080B584B000AF3B1C0C22BA181A603B1C02229A803B1C0222DA803B1C14221A81BE
:400680000C4B1B78032B10D0042B0AD0022B00D00CE03A1C084B101C191C002211F0DEF904E0002004F0BEFB00E0C046BD4604B080BDC0463E2000204420002090B585B03F
:4006C00000AF786039607B68412B00D16AE005D8012B00D168E0282B07D066E04C2B28D04E2B06D0432B17D05FE0002004F09AFB5BE03B681B891A1C2D4B1A603B685A68D4
:400700002B4B1B682B49081C111C1A1C06F00DF9294B01221A6048E03B685B88162B04D83B685A88254B1A803FE0244B17221A803BE03B68FB60FB689B89142B1FD1FB68CB
:400740001A1D0B23FC181E4B101C00211A1C402311F0BAF9031C23700B23FB181B78002B0DD1174B1A785B781B021A4300231204120C1B0C1B041343181C10F03DFC3B682A
:400780001B891A1C0A4B1A603B685A68084B1B680849081C111C1A1C06F0C7F8064B01221A6002E0C04600E0C046BD4605B090BD541400202814002024140020D8000020D3
:4007C0004420002080B586B000AF021CFB1D1A700C23FB1813221A810C23FB180D4A1A60FB1D1B789AB20C23FB189A800A4B0C22B9181A785B781B021A4300231204120C99
:400800001B0C1B041343181C10F098FBBD4606B080BDC0468C1400204420002090B583B000AF2F4B181C0021142206F087F82C4B23221A702A4B00225A70294B0F229A701E
:40084000FB1D00221A7020E006F080F8021C3B1D1A80FB1D1B785B003A1D1288120A92B2D1B2204AD3180A1CDA71FB1D1B785B0001333A1D1288D1B21A4AD3180A1CDA7128
:40088000FB1D1A78FB1D01321A70FB1D1B78032BDAD9154A134B101C191C0F2206F045F8124A134B101C10211A1C082300F028FDBC1C0B4B181C122100F080FA031C23805D
:4008C000BB1C1B881B0A9BB2DAB2054B9A74BB1C1B88DAB2024BDA74BD4603B090BDC0468C140020280500208F140020100500209614002090B585B000AF021CFB1D1A70C0
:40090000BB1D0A1C1A70174B181C0021142206F015F8144BFA1D12781A70124B00225A70104B01229A700F4BBA1D1278DA700E23FC180C4B181C042100F040FA031C2380FE
:400940000E23FB181B881B0A9BB2DAB2054B1A710E23FB181B88DAB2024B5A71BD4605B090BDC0468C14002090B583B000AFBB1D00221A801B4B01221A701A4B08225A703A
:40098000184A0221184B521810330424101C191C221C05F0CAFF134B01229A71114B0022DA71BC1DFFF73AFE031C23800D4B0E221A720C4B00225A720C4B181C082100F002
:4009C0005DFA031C1A1C074B9A72064B5A787B1D03321A707B1D1B78181CFFF7F3FEBD4603B090BD8C140020100500208E14002080B584B000AF021CFB1D1A70BB1D0A1C9D
:400A00001A70124BFA1D12781A70104B01225A700E4BBA1D12789A700C4B5B780C4A101C191C00F02BFA031C1A1C084BDA70074B5A780F23FB1803321A700F23FB181B78B0
:400A4000181CFFF7BFFEBD4604B080BD8C1400208E14002080B582B000AF124B04221A70104B02225A700F4B01229A700D4B0122DA700C4B5B780C4A101C191C00F0FEF999
:400A8000031C1A1C074B1A71064B5A78FB1D03321A70FB1D1B78181CFFF794FEBD4602B080BDC0468C1400208E14002080B586B000AF1D4B03221A701B4B07225A701A4B3A
:400AC00001229A71184B0022DA71174B00221A72154B5B78154A101C191C00F0CFF9031C1A1C114B5A723A1D114B103303CB03C23B1D0F4A083303CA03C33A1D0B4B101CDF
:400B000010211A1C072300F0EBF9074B5A781723FB1803321A701723FB181B78181CFFF751FEBD4606B080BD8C1400208E140020DC00002080B586B000AFF860B960BB1DF0
:400B40001A8000233B6141E03B69BA68D3181B781B09DAB21623FB1830321A703B69BA68D3181B780F221340DAB21723FB1830321A701623FB181B78392B06D91623FB18D4
:400B80001622BA18127827321A701723FB181B78392B06D91723FB181722BA18127827321A703B695B001A1CFB689B181622BA1812781A703B695B000133FA68D3181722B4
:400BC000BA1812781A703B6901333B61BB1D1A883B699A42B8DCBB1D1B885B001A1CFB689B1800221A70BD4606B080BD90B5A9B000AF9023FA181A4B103303CB03C2902349
:400C0000FB18174A0833083203CA03C36C23FA189023FB18101C191C1022FFF78BFF3B1D181C01F0ADF96C23FB18181C05F0CAFE041C3A1D6C23FB18101C191C221C01F05F
:400C4000C1F93A1D5C23FB18101C191C01F02CFA3B1D181C01F094F9BD4629B090BDC046DC00002090B587B000AF3C4B1B68002B71D03A4B00221A60394B1B68391C394A83
:400C8000081C111C1A1C05F050FE374B181C0021142205F053FE1723FB183A1C12781A701623FB183A1C52781A701523FC183B1C9A1C1623FB181B78101C191C00F0DEF80B
:400CC000031C23701623FB181B789A1C1423FB18391C8A5C1A701723FB181B78072B39D89A00224BD3181B689F46FFF73DFE32E01F4A3B1C022110325B180824101C191CB9
:400D0000221C05F012FE1723FB181B78181C0121FFF76EFEFFF7CAFEFFF768FF1BE0FFF799FE18E01723FB181B78181C0121FFF75FFE10E01723FB181B78181C0121FFF798
:400D400057FE08E01723FB181B78181C0121FFF74FFE00E0C046BD4607B090BD2414002054140020281400208C14002000630100DC00002080B500AF0E4B1B78012B04D0A4
:400D8000022B08D0002B12D012E0FFF747FD094B00221A700CE0074B00221A70064B6C221021995407200021FFF7A4FD00E0C046BD4680BDFD040020F014002080B584B05B
:400DC00000AF78600A1CFB1C1A700E23FB18012252421A807B68BB6039E0BB685A1CBA601B7899B20E23FB180E22BA1812884A401A800D23FB1800221A7023E00E23FB182E
:400E00001B88012213400FD00E23FB180E22BA18128852081A800E23FB180E22BA18128815494A401A8006E00E23FB180E22BA18128852081A800D23FB181A780D23FB18B2
:400E400001321A700D23FB181B78072BD6D9FB1C1B78FA1C591E1170002BBED10E23FB180E22BA1812881A800E23FB181B88181CBD4604B080BDC04601A0FFFF80B584B0F5
:400E800000AF78600A1CFB1C1A700F23FB1800221A700E23FB1800221A7013E00E23FB181B787A68D31819780F23FB180F22BA1812784A401A700E23FB181A780E23FB18DB
:400EC00001321A700E23FA18FB1C12781B789A42E4D30F23FB181B78181CBD4604B080BD90B5C14CA54400AFF860081C7A60191CBE4B882292009446BC446344021C1A7048
:400F0000BB4B882292009446BC4463440A1C1A7087239B00FB1800221A80B64BFB1800221A807B6885229200BA1813607B68002B00D153E1AE4B882292009446BC44634430
:400F40001B78002B00D149E1AB4BFB1800221A8031E0A94BFB181B88A74ABA181288D1B2A64A882080008446BC446244D154A24BFB181C88A04BFB181A889C4B882189004E
:400F80008C46BC4463441B78101C191C05F05CFC0B1C1A1CFB689B181A78994B882189008C46BC4463441A55934BFB181A88924BFB1801321A80904BFB181B88FF2BC8D9C8
:400FC0008D4BFB1800221A805CE087239B00FB181B88894ABA1812888849882080008446BC4461448A5C9B18834ABA1812888449882080008446BC4461448A5C9B18814AD2
:40100000134003D5013B804A134301331A1C87239B00FB181A80784BFB181A887B4BFB187649882080008446BC4461448A5C1A70714BFB181B8887229200BA1812886F49E5
:40104000882080008446BC446144895C6B4A882080008446BC446244D15487239B00FB181B88664A882189008C46BC446244674979180978D154604BFB181A885E4BFB182A
:4010800001321A805C4BFB181B88FF2B9DD997E0594BFB181B8801335A4A134003D5013B594A134301331A1C534BFB181A80524BFB181B88514A882189008C46BC44624410
:4010C000D35C9AB287239B00FB181B88D3189AB287239B00FB18FF210A401A80464BFB181A884A4BFB184549882080008446BC4461448A5C1A70404BFB181B8887229200E8
:40110000BA1812883D49882080008446BC446144895C3A4A882080008446BC446244D15487239B00FB181B88344A882189008C46BC446244354979180978D1542E4BFB189C
:401140001B882E4A882189008C46BC446244D35C9AB287239B00FB181B882849882080008446BC446144CB5C9BB2D3189AB284239B00FB18FF210A401A801E4BFB181B8809
:401180007A68D3181B4ABA18128885218900791809688A18117884229200BA18128817488824A400A446BC446044825C4A40D2B21A70104BFB181A880E4BFB1801321A8095
:4011C0000B4B882292009446BC4463441B789BB2084ABA1812889A4200D259E7BD4689239B009D4490BDC046DCFDFFFFEBFDFFFFEAFDFFFF1A0200001E020000F0FEFFFF08
:40120000F0FDFFFFFF00008000FFFFFF1302000080B584B000AF0023BB600023FB6009E0FB68D9B2204AFB68D3180A1C1A70FB680133FB60FB681F2BF2DD0023FB602CE027
:40124000194AFB68D3181B781A1CBB68D3181749FA688A1812789B18154A134004D5013B2022524213430133BB60FB1D0E49FA688A1812781A700C4ABB68D31819780A4A33
:40128000FB68D3180A1C1A70074ABB68D318FA1D12781A70FB680133FB60FB681F2BCFDDBD4604B080BDC046C0140020A01400201F00008080B584B000AF78600A1CFB1CCD
:4012C0001A700023FB6013E0FB1C1B78FA68101C191C05F0B9FA0B1C1A1C7B689B181978064AFB68D3180A1C1A70FB680133FB60FB681F2BE8DDBD4604B080BDA0140020E0
:4013000080B58AB000AFF8607A603B600B23FB180A1C1A7000237B6200233B620023FB617B68BB617B68002B02D03B68002B00DC5EE0FA680B23FB181B78101C191CFFF73E
:40134000B9FFFFF765FF4FE07B6A01332A4A134004D5013B20225242134301337B62274A7B6AD3181B781A1C3B6AD318224A134004D5013B20225242134301333B62172355
:40138000FB181E497A6A8A1812781A701B4A3B6AD3181978194A7B6AD3180A1C1A70174A3B6AD3181722BA1812781A70134A7B6AD3181B78191C114A3B6AD3181B78CB184A
:4013C0001F2213403B61FB697A68D318FA69B9698A18117809483A69821812784A40D2B21A70FB690133FB61FA693B689A42ABDBBD460AB080BDC0461F000080C01400203D
:4014000080B584B000AF78600A1CFB1C1A700F23FB1800221A700AE07B685A1C7A6019780F23FB180F22BA1812788A181A70FB1C1B78FA1C591E1170002BEDD10F23FB1872
:401440001B78DB43DBB2181CBD4604B080BDC04680B582B000AF021CFB1D1A70FB1D1B78092B04D8FB1D1B783033DBB203E0FB1D1B783733DBB2181CBD4602B080BDC04623
:4014800080B582B000AF021CFB1D1A70FB1D1B78052B00D9E5E09A00774BD3181B689F46764B1B88002B02D1012004F0D7FB734B1B8801339AB2714B1A80704B1A88FA2334
:4014C0009B009A420BD96D4B00221A80002004F0C5FB6B4B1A7807218A431A70C8E0C7E0664B1B88002B03D0644B1B88C82B04D1012004F0B3FB04F0DFFD604B1B88642B57
:4015000004D1002004F0AAFB04F0E8FD5B4B1B8801339AB2594B1A80584B1A882C23FF339A420DD9554B00221A80002004F096FB04F0D4FD524B1A7807218A431A7097E0CA
:4015400096E04E4B1B88002B09D04C4B1B88C82B05D04A4B1A88C8235B009A4202D1012004F052FA454B1B88642B05D0434B1A8896235B009A4202D1002004F045FA3F4BBF
:401580001B8801339AB23D4B1A803C4B1A88F423FF339A420BD9394B00221A80002004F033FA374B1A7807218A431A7060E05FE0324B1B88002B03D0304B1B88C82B02D11F
:4015C000012004F021FA2D4B1B88642B02D1002004F01AFA294B1B8801339AB2274B1A80264B1A882C23FF339A420BD9234B00221A80002004F008FA214B1A7807218A43EC
:401600001A7035E034E01D4B1B88181C642105F02BF80B1C9BB2002B13D1184B1B88181C642104F09BFF031C9BB2012213409BB2002B03D1012004F0E7F902E0002004F032
:40164000E3F90E4B1B8801339AB20C4B1A800B4B1B880C4A934203D9084B00221A8007E006E0064B00221A80002004F0CDF9C046BD4602B080BDC046406301000005002097
:401680000C050020E703000080B5A2B000AF78600A1CFB1C1A700823FB181A1C8023101C00211A1C05F04AF9FB1C1B780822B9187A68081C111C1A1C05F037F9044A0823BC
:4016C000FB18101C191C02F0EBFEBD4622B080BDFE03000080B586B000AFF860B960FB1D1A701723FB1800221A701723FB1800221A7011E01723FB181A78FB68D3181A78B9
:40170000BB681A70BB680133BB601723FB181A781723FB1801321A701723FA18FB1D12781B789A42E6D3BD4606B080BD80B500AF104BDB8801339AB20E4BDA800D4BDA8806
:40174000FA239B009A4212D90A4B0022DA80094B1B8901339AB2074B1A81064B1B89772B05D9044B00221A81002004F0C3FABD4680BDC0460005002090B583B000AF1C4A6A
:401780001C4B101C191C1622FFF7A4FFFC1D194B181C1521FFF734FE031C2370154B5B7DFA1D12789A421FD0124B134A13CA13C312681A600F4B01221A740E4B02225A7474
:4017C0000C4B03229A740B4B0422DA74094B181C1521FFF715FE031C1A1C064B5A75054B181C1621FFF750FFBD4603B090BDC04600FF0100100500203063010090B583B00F
:4018000000AF794B69229B5C002B00D1A7E0764B692200219954754B0022DA80734B00221A81714B64229B5C023B6F4AD35C9BB21B0299B26C4B64229B5C013B6A4AD35CB9
:401840009AB2BB1D8A181A80674B64229B5C023BDBB23C1D644A101C191CFFF7AFFA031C2380BA1D3B1D12881B889A4271D1FB1C5D4A12781A70FB1C1B780A2B68D89A0031
:401880005B4BD3181B689F46584B00225A80594B1A7810218A431A70544B00221A715649514B03229B180422081C191C05F03DF8514A4D4B072104325B180224101C191C3F
:4018C000221C05F032F8484B5A7A4B4B9A71494B1B7808221340DBB2002B03D1474B01221A7036E035E0404B6C220621995430E0434A444B101C08211A1C0A23FFF700FDE5
:401900004149394B02229B180822081C191C05F00CF8354B6C22072199541AE0324B6C220821995415E0304B6C2200219954334B02221A702F4B1A7807218A43111C02227E
:401940000A431A702B4B1A7808210A431A7000E0C046254B181C0021282204F0EFFF224B68229B5C642B11D91F4B6822002199541D4B6722002199541B4B6522002199544E
:40198000194B181C0021282204F0D8FF194B1B7810221340DBB2002B23D0144B5B8801339AB2124B5A80114B5B88642B0DD90F4B00225A800D4B1B790133DAB20B4B1A71A2
:4019C0000C4B1A7810218A431A70084B1B79022B07D9064B00221A71064B1A7808218A431A70BD4603B090BDF014002000050020586301000C05002028050020FD0400207A
:401A0000F4000020F2140020E014002080B500AF524B6C229B5C112B00D99BE09A00504BD3181B689F464D4B6E229B5A013399B24A4B6E229952494B6E229A5A2C23FF33F5
:401A40009A420BD9454B6E220021995200F090F8444B1A7810210A431A707CE07BE03F4B6E229B5A013399B23C4B6E2299523B4B6E229B5A632B06D9384B6E2200219952FB
:401A800000F0AAF867E066E0344B6E229B5A013399B2324B6E229952304B6E229B5A324A934208D92D4B6E22002199522B4B6C22032199544FE04EE0284B6E229B5A0133A8
:401AC00099B2264B6E229952244B6E229B5A264A934222D9214B6E22002199521F4B70229B5C022B10D81D4B70229B5C0133D9B21A4B70229954194B6B229B5C1B4A101C5E
:401B0000191C00F00DFA08E0144B702200219954124B6C22112199541DE01CE000F05CF80E4B6C220121995415E000F0ABF80B4B6C22012199540EE000F008F9074B6C221B
:401B40000121995407E000F057F9044B6C220121995400E0C046BD4680BDC046F0140020846301000C050020E70300001815002090B583B000AF164B282201219954144B63
:401B8000292200219954BC1D124B181C0221FFF715F9031C2380BB1D1B881B0A9BB2D9B20B4B2A229954BB1D1B88D9B2084B2B229954074B6B2204219954054B6B229B5C1A
:401BC000044A101C191C00F0ABF9BD4603B090BDF01400201815002090B583B000AF254B282204219954234B292202219954BC1D214B181C0221FFF7E1F8031C2380BB1D6D
:401C00001B881B0A9BB2D9B21A4B2A229954BB1D1B88D9B2174B2B229954184A184B101C10211A1C0223FFF76BFBBC1D124B181C0421FFF7C3F8031C2380BB1D1B881B0A49
:401C40009BB2D9B20B4B2C229954BB1D1B88D9B2084B2D229954074B6B2206219954054B6B229B5C044A101C191C00F059F9BD4603B090BDF0140020181500201005002005
:401C80001A15002090B583B000AF2B4B282203219954294B29220B219954274B2A2227499B180822181C04F040FE234B322200219954BC1D224B181C0B21FFF77FF8031C92
:401CC0002380BB1D1B881B0A9BB2D9B21A4B33229954BB1D1B88D9B2174B34229954194A194B101C10211A1C0B23FFF709FBBC1D134B181C0D21FFF761F8031C2380BB1D73
:401D00001B881B0A9BB2D9B20B4B35229954BB1D1B88D9B2084B36229954074B6B220F219954054B6B229B5C054A101C191C00F0F7F8BD4603B090BDF0140020F400002031
:401D400018150020100500201A15002090B583B000AF254B282206219954234B292202219954BC1D214B181C0221FFF727F8031C2380BB1D1B881B0A9BB2D9B21A4B2A2238
:401D80009954BB1D1B88D9B2174B2B229954184A184B101C08211A1C0223FFF7B1FABC1D124B181C0421FFF709F8031C2380BB1D1B881B0A9BB2D9B20B4B2C229954BB1D55
:401DC0001B88D9B2084B2D229954074B6B2206219954054B6B229B5C044A101C191C00F09FF8BD4603B090BDF014002018150020E01400201A15002090B585B000AF3A1DD2
:401E0000404B111C1A1C0723081C111C1A1C04F08CFD3D4B2822072199543B4B292220219954394B2A2239499B181022181C04F07CFD354B3A22391D9B180722181C04F092
:401E400074FD314A4121324B521810330424101C191C221C04F069FD2B4B412200219954294B422200219954274B4722012199540E23FC18274B181C2021FEF79FFF031C34
:401E800023800E23FB181B881B0A9BB2D9B21E4B482299540E23FB181B88D9B21A4B492299541D4A1D4B101C08211A1C2023FFF727FA0E23FC18174B181C2221FEF77EFF68
:401EC000031C23800E23FB181B881B0A9BB2D9B20D4B4A2299540E23FB181B88D9B20A4B4B229954084B6B2224219954064B6B229B5C084A101C191C00F012F8BD4605B01E
:401F000090BDC046CC630100F0140020206301001005002018150020E01400201A15002080B584B000AF78600A1CFB1C1A70134B7222012199540F23FB1800221A700FE0F9
:401F40000F23FB181B787A68D3181B78181C03F061FC0F23FB181A780F23FB1801321A700F23FA18FB1C12781B789A42E8D3034B6E2200219952BD4604B080BDF0140020BB
:401F800080B582B000AF78607B6800221A607B6800225A607B68074A9A607B68064ADA607B68064A1A617B68054A5A61BD4602B080BDC0460123456789ABCDEFFEDCBA98DB
:401FC0007654321080B588B000AFF860B9607A600023FB610023BB6100237B61FB681B68DB083F221340BB61BB694022D31A7B61FB681A687B68DB00D218FB681A60FB68FC
:402000001A687B68DB009A4204D2FB685B685A1CFB685A60FB685A687B685B0FD218FB685A607A687B699A422CD3BB691833FA68D118BA687B69081C111C1A1C04F075FC2F
:40204000FB6808331A1CFB681833101C191C00F0E9F87B69FB610CE0FB680833191CBA68FB69D318081C191C00F0DCF8FB694033FB61FB6940331A1E7B689A42ECD9002336
:40208000BB6101E00023FB61BB691833FA68D018BA68FB69D1187A68FB69D31A1A1C04F044FCBD4608B080BD80B586B000AF7860396000237B6100233B617B681B68DB0855
:4020C0003F2213407B617B69372B03D87B693822D31A02E07B697822D31A3B617B680822BA18101C191C082200F01EF879680D4A3B69081C111C1A1CFFF764FF7A680823E2
:40210000FB18101C191C0822FFF75CFF7B6808333A68101C191C102200F006F8BD4606B080BDC046FC00002080B586B000AFF860B9607A6000237B6100233B6133E0FA68BF
:402140003B69D2187B699B00B968CB181B68DBB213703B690133FA68D2187B699B00B968CB181B681B0ADBB213703B690233FA68D2187B699B00B968CB181B681B0CDBB27D
:4021800013703B690333FA68D2187B699B00B968CB181B681B0EDBB213707B6901337B613B6904333B613A697B689A42C7D3BD4606B080BD80B586B000AFF860B9607A6075
:4021C00000237B6100233B6125E07B699B00FA68D318B9683A698A181278101C3A690132B9688A1812781202011C11433A690232B86882181278120411433A690332B8680F
:402200008218127812060A431A607B6901337B613B6904333B613A697B689A42D5D3BD4606B080BD80B5C6B000AF786039607B681B688A225200BA1813607B685B6888226C
:402240005200BA1813607B689B6886225200BA1813607B68DB6884225200BA1813600823FA183B68101C191C4022FFF7A3FF88235B00FB181B6886225200BA1812681A40C8
:4022800088235B00FB181B68DB4384214900791809680B401A43FE4B8C2149008C46BC4463441B68D2188A235B00FB181B68D318F84A944663448A225200BA1813608A236B
:4022C0005B00FB181B681922D3418A225200BA1813608A235B00FB181A6888235B00FB181B68D3188A225200BA1813608A235B00FB181B6888225200BA1812681A408A2307
:402300005B00FB181B68DB4386214900791809680B401A43DE4B8C2149008C46BC4463445B68D21884235B00FB181B68D318DA4A9446634484225200BA18136084235B0048
:40234000FB181B681422D34184225200BA18136084235B00FB181A688A235B00FB181B68D31884225200BA18136084235B00FB181B688A225200BA1812681A4084235B00A5
:40238000FB181B68DB4388214900791809680B401A43BF4B8C2149008C46BC4463449B68D21886235B00FB181B68D318BB4A9446634486225200BA18136086235B00FB1806
:4023C0001B680F22D34186225200BA18136086235B00FB181A6884235B00FB181B68D31886225200BA18136086235B00FB181B6884225200BA1812681A4086235B00FB182C
:402400001B68DB438A214900791809680B401A439F4B8C2149008C46BC446344DB68D21888235B00FB181B68D3189D4A9446634488225200BA18136088235B00FB181B680B
:402440000A22D34188225200BA18136088235B00FB181A6886235B00FB181B68D31888225200BA18136088235B00FB181B6886225200BA1812681A4088235B00FB181B68A2
:40248000DB4384214900791809680B401A43804B8C2149008C46BC4463441B69D2188A235B00FB181B68D3187E4A944663448A225200BA1813608A235B00FB181B681922D0
:4024C000D3418A225200BA1813608A235B00FB181A6888235B00FB181B68D3188A225200BA1813608A235B00FB181B6888225200BA1812681A408A235B00FB181B68DB4322
:4025000086214900791809680B401A43604B8C2149008C46BC4463445B69D21884235B00FB181B68D318604A9446634484225200BA18136084235B00FB181B681422D3416C
:4025400084225200BA18136084235B00FB181A688A235B00FB181B68D31884225200BA18136084235B00FB181B688A225200BA1812681A4084235B00FB181B68DB43882126
:402580004900791809680B401A43414B8C2149008C46BC4463449B69D21886235B00FB181B68D318414A9446634486225200BA18136086235B00FB181B680F22D3418622E8
:4025C0005200BA18136086235B00FB181A6884235B00FB181B68D31886225200BA18136086235B00FB181B6884225200BA1812681A4086235B00FB181B68DB438A21490005
:40260000791809680B401A43214B8C2149008C46BC446344DB69D21888235B00FB181B68D318234A9446634488225200BA18136088235B00FB181B680A22D3418822520059
:40264000BA18136088235B00FB181A6886235B00FB181B68D31888225200BA18136088235B00FB181B6886225200BA1812681A4088235B00FB181B68DB438421490079183F
:4026800009680B401A43024B8C2149008C4611E0F0FEFFFF78A46AD756B7C7E8DB702024EECEBDC1AF0F7CF52AC68747134630A8019546FDBC4463441B6AD2188A235B0018
:4026C000FB181B68D318FE4A944663448A225200BA1813608A235B00FB181B681922D3418A225200BA1813608A235B00FB181A6888235B00FB181B68D3188A225200BA1829
:4027000013608A235B00FB181B6888225200BA1812681A408A235B00FB181B68DB4386214900791809680B401A43E64B8C2149008C46BC4463445B6AD21884235B00FB182C
:402740001B68D318E04A9446634484225200BA18136084235B00FB181B681422D34184225200BA18136084235B00FB181A688A235B00FB181B68D31884225200BA18136087
:4027800084235B00FB181B688A225200BA1812681A4084235B00FB181B68DB4388214900791809680B401A43C64B8C2149008C46BC4463449B6AD21886235B00FB181B6882
:4027C000D318C24A9446634486225200BA18136086235B00FB181B680F22D34186225200BA18136086235B00FB181A6884235B00FB181B68D31886225200BA181360862300
:402800005B00FB181B6884225200BA1812681A4086235B00FB181B68DB438A214900791809680B401A43A74B8C2149008C46BC446344DB6AD21888235B00FB181B68D3189C
:40284000A34A9446634488225200BA18136088235B00FB181B680A22D34188225200BA18136088235B00FB181A6886235B00FB181B68D31888225200BA18136088235B0025
:40288000FB181B6886225200BA1812681A4088235B00FB181B68DB4384214900791809680B401A43874B8C2149008C46BC4463441B6BD2188A235B00FB181B68D318854A87
:4028C000944663448A225200BA1813608A235B00FB181B681922D3418A225200BA1813608A235B00FB181A6888235B00FB181B68D3188A225200BA1813608A235B00FB1862
:402900001B6888225200BA1812681A408A235B00FB181B68DB4386214900791809680B401A43684B8C2149008C46BC4463445B6BD21884235B00FB181B68D318664A94463D
:40294000634484225200BA18136084235B00FB181B681422D34184225200BA18136084235B00FB181A688A235B00FB181B68D31884225200BA18136084235B00FB181B685F
:402980008A225200BA1812681A4084235B00FB181B68DB4388214900791809680B401A43484B8C2149008C46BC4463449B6BD21886235B00FB181B68D318484A9446634497
:4029C00086225200BA18136086235B00FB181B680F22D34186225200BA18136086235B00FB181A6884235B00FB181B68D31886225200BA18136086235B00FB181B688422DF
:402A00005200BA1812681A4086235B00FB181B68DB438A214900791809680B401A43294B8C2149008C46BC446344DB6BD21888235B00FB181B68D318294A94466344882210
:402A40005200BA18136088235B00FB181B680A22D34188225200BA18136088235B00FB181A6886235B00FB181B68D31888225200BA18136088235B00FB181B6884225200AD
:402A8000BA1812681A4084235B00FB181B68DB4386214900791809680B401A43094B8C2149008C46BC4463445B68D2188A235B00FB181B68D3180B4A944663448A2213E0B2
:402AC000D8988069F0FEFFFFAFF7448BB15BFFFFBED75C892211906B937198FD8E4379A62108B44962251EF65200BA1813608A235B00FB181B681B22D3418A225200BA18CA
:402B000013608A235B00FB181A6888235B00FB181B68D3188A225200BA1813608A235B00FB181B6886225200BA1812681A4086235B00FB181B68DB438821490079180968D1
:402B40000B401A43FE4B8C2149008C46BC4463449B69D21884235B00FB181B68D318F94A9446634484225200BA18136084235B00FB181B681722D34184225200BA18136061
:402B800084235B00FB181A688A235B00FB181B68D31884225200BA18136084235B00FB181B6888225200BA1812681A4088235B00FB181B68DB438A214900791809680B4083
:402BC0001A43DF4B8C2149008C46BC446344DB6AD21886235B00FB181B68D318DA4A9446634486225200BA18136086235B00FB181B681222D34186225200BA18136086237D
:402C00005B00FB181A6884235B00FB181B68D31886225200BA18136086235B00FB181B688A225200BA1812681A408A235B00FB181B68DB4384214900791809680B401A4350
:402C4000BF4B8C2149008C46BC4463441B68D21888235B00FB181B68D318BC4A9446634488225200BA18136088235B00FB181B680C22D34188225200BA18136088235B00FA
:402C8000FB181A6886235B00FB181B68D31888225200BA18136088235B00FB181B6884225200BA1812681A4084235B00FB181B68DB4386214900791809680B401A43A04B44
:402CC0008C2149008C46BC4463445B69D2188A235B00FB181B68D3189D4A944663448A225200BA1813608A235B00FB181B681B22D3418A225200BA1813608A235B00FB1836
:402D00001A6888235B00FB181B68D3188A225200BA1813608A235B00FB181B6886225200BA1812681A4086235B00FB181B68DB4388214900791809680B401A43804B8C213D
:402D400049008C46BC4463449B6AD21884235B00FB181B68D3187F4A9446634484225200BA18136084235B00FB181B681722D34184225200BA18136084235B00FB181A68DF
:402D80008A235B00FB181B68D31884225200BA18136084235B00FB181B6888225200BA1812681A4088235B00FB181B68DB438A214900791809680B401A43614B8C21490019
:402DC0008C46BC446344DB6BD21886235B00FB181B68D318604A9446634486225200BA18136086235B00FB181B681222D34186225200BA18136086235B00FB181A688423DA
:402E00005B00FB181B68D31886225200BA18136086235B00FB181B688A225200BA1812681A408A235B00FB181B68DB4384214900791809680B401A43414B8C2149008C4691
:402E4000BC4463441B69D21888235B00FB181B68D318424A9446634488225200BA18136088235B00FB181B680C22D34188225200BA18136088235B00FB181A6886235B00AA
:402E8000FB181B68D31888225200BA18136088235B00FB181B6884225200BA1812681A4084235B00FB181B68DB4386214900791809680B401A43224B8C2149008C46BC4491
:402EC00063445B6AD2188A235B00FB181B68D318234A944663448A225200BA1813608A235B00FB181B681B22D3418A225200BA1813608A235B00FB181A6888235B00FB18DA
:402F00001B68D3188A225200BA1813608A235B00FB181B6886225200BA1812681A4086235B00FB181B68DB4388214900791809680B401A43024B8C2149008C4612E0C04641
:402F4000F0FEFFFF40B340C0515A5E26AAC7B6E95D102FD65314440281E6A1D8C8FBD3E7E6CDE121BC4463449B6BD21884235B00FB181B68D318FE4A944663448422520027
:402F8000BA18136084235B00FB181B681722D34184225200BA18136084235B00FB181A688A235B00FB181B68D31884225200BA18136084235B00FB181B6888225200BA18E7
:402FC00012681A4088235B00FB181B68DB438A214900791809680B401A43E64B8C2149008C46BC446344DB68D21886235B00FB181B68D318E04A9446634486225200BA18DC
:40300000136086235B00FB181B681222D34186225200BA18136086235B00FB181A6884235B00FB181B68D31886225200BA18136086235B00FB181B688A225200BA181268BD
:403040001A408A235B00FB181B68DB4384214900791809680B401A43C64B8C2149008C46BC4463441B6AD21888235B00FB181B68D318C24A9446634488225200BA1813605E
:4030800088235B00FB181B680C22D34188225200BA18136088235B00FB181A6886235B00FB181B68D31888225200BA18136088235B00FB181B6884225200BA1812681A4056
:4030C00084235B00FB181B68DB4386214900791809680B401A43A74B8C2149008C46BC4463445B6BD2188A235B00FB181B68D318A34A944663448A225200BA1813608A2388
:403100005B00FB181B681B22D3418A225200BA1813608A235B00FB181A6888235B00FB181B68D3188A225200BA1813608A235B00FB181B6886225200BA1812681A408623BC
:403140005B00FB181B68DB4388214900791809680B401A43874B8C2149008C46BC4463449B68D21884235B00FB181B68D318854A9446634484225200BA18136084235B0064
:40318000FB181B681722D34184225200BA18136084235B00FB181A688A235B00FB181B68D31884225200BA18136084235B00FB181B6888225200BA1812681A4088235B0052
:4031C000FB181B68DB438A214900791809680B401A43684B8C2149008C46BC446344DB69D21886235B00FB181B68D318664A9446634486225200BA18136086235B00FB1821
:403200001B681222D34186225200BA18136086235B00FB181A6884235B00FB181B68D31886225200BA18136086235B00FB181B688A225200BA1812681A408A235B00FB18D0
:403240001B68DB4384214900791809680B401A43484B8C2149008C46BC4463441B6BD21888235B00FB181B68D318484A9446634488225200BA18136088235B00FB181B682C
:403280000C22D34188225200BA18136088235B00FB181A6886235B00FB181B68D31888225200BA18136088235B00FB181A6886235B00FB181B685A4084235B00FB181B68C3
:4032C0005A402C4B8C2149008C46BC4463445B69D2188A235B00FB181B68D3182C4A944663448A225200BA1813608A235B00FB181B681C22D3418A225200BA1813608A23FD
:403300005B00FB181A6888235B00FB181B68D3188A225200BA1813608A235B00FB181A6888235B00FB181B685A4086235B00FB181B685A400F4B8C2149008C46BC44634403
:403340001B6AD21884235B00FB181B68D318114A9446634484225200BA18136084235B00FB181B681522D34184225200BA1813E0D60737C3F0FEFFFF870DD5F4ED145A45E2
:4033800005E9E3A9F8A3EFFCD9026F678A4C2A8D4239FAFF81F67187136084235B00FB181A688A235B00FB181B68D31884225200BA18136084235B00FB181A688A235B007D
:4033C000FB181B685A4088235B00FB181B685A40FE4B8C2149008C46BC446344DB6AD21886235B00FB181B68D318F94A9446634486225200BA18136086235B00FB181B685E
:403400001022D34186225200BA18136086235B00FB181A6884235B00FB181B68D31886225200BA18136086235B00FB181A6884235B00FB181B685A408A235B00FB181B6843
:403440005A40E24B8C2149008C46BC4463449B6BD21888235B00FB181B68D318DD4A9446634488225200BA18136088235B00FB181B680922D34188225200BA1813608823EF
:403480005B00FB181A6886235B00FB181B68D31888225200BA18136088235B00FB181A6886235B00FB181B685A4084235B00FB181B685A40C54B8C2149008C46BC446344D6
:4034C0005B68D2188A235B00FB181B68D318C24A944663448A225200BA1813608A235B00FB181B681C22D3418A225200BA1813608A235B00FB181A6888235B00FB181B685A
:40350000D3188A225200BA1813608A235B00FB181A6888235B00FB181B685A4086235B00FB181B685A40A94B8C2149008C46BC4463441B69D21884235B00FB181B68D31802
:40354000A64A9446634484225200BA18136084235B00FB181B681522D34184225200BA18136084235B00FB181A688A235B00FB181B68D31884225200BA18136084235B001E
:40358000FB181A688A235B00FB181B685A4088235B00FB181B685A408C4B8C2149008C46BC446344DB69D21886235B00FB181B68D3188B4A9446634486225200BA1813607A
:4035C00086235B00FB181B681022D34186225200BA18136086235B00FB181A6884235B00FB181B68D31886225200BA18136086235B00FB181A6884235B00FB181B685A4086
:403600008A235B00FB181B685A40704B8C2149008C46BC4463449B6AD21888235B00FB181B68D3186F4A9446634488225200BA18136088235B00FB181B680922D3418822B2
:403640005200BA18136088235B00FB181A6886235B00FB181B68D31888225200BA18136088235B00FB181A6886235B00FB181B685A4084235B00FB181B685A40534B8C2106
:4036800049008C46BC4463445B6BD2188A235B00FB181B68D318544A944663448A225200BA1813608A235B00FB181B681C22D3418A225200BA1813608A235B00FB181A68DD
:4036C00088235B00FB181B68D3188A225200BA1813608A235B00FB181A6888235B00FB181B685A4086235B00FB181B685A40374B8C2149008C46BC4463441B68D2188423F4
:403700005B00FB181B68D318384A9446634484225200BA18136084235B00FB181B681522D34184225200BA18136084235B00FB181A688A235B00FB181B68D3188422520035
:40374000BA18136084235B00FB181A688A235B00FB181B685A4088235B00FB181B685A401A4B8C2149008C46BC446344DB68D21886235B00FB181B68D3181D4A9446634491
:4037800086225200BA18136086235B00FB181B681022D34186225200BA18136086235B00FB181A6884235B00FB181B68D31886225200BA18136086235B00FB181A68842310
:4037C0005B00FB181B685A4014E0C046F0FEFFFF22619D6D0C38E5FD44EABEA4A9CFDE4B604BBBF670BCBFBEC67E9B28FA27A1EA8530EFD48A235B00FB181B685A40FE4BC3
:403800008C2149008C46BC4463449B69D21888235B00FB181B68D318F84A9446634488225200BA18136088235B00FB181B680922D34188225200BA18136088235B00FB186B
:403840001A6886235B00FB181B68D31888225200BA18136088235B00FB181A6886235B00FB181B685A4084235B00FB181B685A40E14B8C2149008C46BC4463445B6AD218B5
:403880008A235B00FB181B68D318DD4A944663448A225200BA1813608A235B00FB181B681C22D3418A225200BA1813608A235B00FB181A6888235B00FB181B68D3188A2291
:4038C0005200BA1813608A235B00FB181A6888235B00FB181B685A4086235B00FB181B685A40C54B8C2149008C46BC4463441B6BD21884235B00FB181B68D318C14A9446D3
:40390000634484225200BA18136084235B00FB181B681522D34184225200BA18136084235B00FB181A688A235B00FB181B68D31884225200BA18136084235B00FB181A688F
:403940008A235B00FB181B685A4088235B00FB181B685A40A84B8C2149008C46BC446344DB6BD21886235B00FB181B68D318A64A9446634486225200BA18136086235B000E
:40398000FB181B681022D34186225200BA18136086235B00FB181A6884235B00FB181B68D31886225200BA18136086235B00FB181A6884235B00FB181B685A408A235B00BE
:4039C000FB181B685A408C4B8C2149008C46BC4463449B68D21888235B00FB181B68D3188A4A9446634488225200BA18136088235B00FB181B680922D34188225200BA189E
:403A0000136088235B00FB181A6886235B00FB181B68D31888225200BA18136084235B00FB181B68DA4388235B00FB181B681A4386235B00FB181B685A406F4B8C21490020
:403A40008C46BC4463441B68D2188A235B00FB181B68D3186E4A944663448A225200BA1813608A235B00FB181B681A22D3418A225200BA1813608A235B00FB181A688823E2
:403A80005B00FB181B68D3188A225200BA18136086235B00FB181B68DA438A235B00FB181B681A4388235B00FB181B685A40524B8C2149008C46BC446344DB69D21884231E
:403AC0005B00FB181B68D318524A9446634484225200BA18136084235B00FB181B681622D34184225200BA18136084235B00FB181A688A235B00FB181B68D3188422520057
:403B0000BA18136088235B00FB181B68DA4384235B00FB181B681A438A235B00FB181B685A40354B8C2149008C46BC4463449B6BD21886235B00FB181B68D318364A94469C
:403B4000634486225200BA18136086235B00FB181B681122D34186225200BA18136086235B00FB181A6884235B00FB181B68D31886225200BA1813608A235B00FB181B6846
:403B8000DA4386235B00FB181B681A4384235B00FB181B685A40184B8C2149008C46BC4463445B69D21888235B00FB181B68D3181A4A9446634488225200BA1813608823E7
:403BC0005B00FB181B680B22D34188225200BA18136088235B00FB181A6886235B00FB181B68D31888225200BA18136084235B00FB181B68DA4313E0F0FEFFFF051D8804AF
:403C000039D0D4D9E599DBE6F87CA21F6556ACC4442229F497FF2A43A72394AB39A093FC88235B00FB181B681A4386235B00FB181B685A40FE4B8C2149008C46BC44634453
:403C40001B6BD2188A235B00FB181B68D318F94A944663448A225200BA1813608A235B00FB181B681A22D3418A225200BA1813608A235B00FB181A6888235B00FB181B68DA
:403C8000D3188A225200BA18136086235B00FB181B68DA438A235B00FB181B681A4388235B00FB181B685A40E14B8C2149008C46BC446344DB68D21884235B00FB181B688E
:403CC000D318DD4A9446634484225200BA18136084235B00FB181B681622D34184225200BA18136084235B00FB181A688A235B00FB181B68D31884225200BA1813608823CB
:403D00005B00FB181B68DA4384235B00FB181B681A438A235B00FB181B685A40C44B8C2149008C46BC4463449B6AD21886235B00FB181B68D318C14A9446634486225200D0
:403D4000BA18136086235B00FB181B681122D34186225200BA18136086235B00FB181A6884235B00FB181B68D31886225200BA1813608A235B00FB181B68DA4386235B00C4
:403D8000FB181B681A4384235B00FB181B685A40A74B8C2149008C46BC4463445B68D21888235B00FB181B68D318A54A9446634488225200BA18136088235B00FB181B68FC
:403DC0000B22D34188225200BA18136088235B00FB181A6886235B00FB181B68D31888225200BA18136084235B00FB181B68DA4388235B00FB181B681A4386235B00FB181B
:403E00001B685A408A4B8C2149008C46BC4463441B6AD2188A235B00FB181B68D318894A944663448A225200BA1813608A235B00FB181B681A22D3418A225200BA18136061
:403E40008A235B00FB181A6888235B00FB181B68D3188A225200BA18136086235B00FB181B68DA438A235B00FB181B681A4388235B00FB181B685A406D4B8C2149008C4673
:403E8000BC446344DB6BD21884235B00FB181B68D3186D4A9446634484225200BA18136084235B00FB181B681622D34184225200BA18136084235B00FB181A688A235B0073
:403EC000FB181B68D31884225200BA18136088235B00FB181B68DA4384235B00FB181B681A438A235B00FB181B685A40504B8C2149008C46BC4463449B69D21886235B0022
:403F0000FB181B68D318514A9446634486225200BA18136086235B00FB181B681122D34186225200BA18136086235B00FB181A6884235B00FB181B68D31886225200BA189D
:403F400013608A235B00FB181B68DA4386235B00FB181B681A4384235B00FB181B685A40334B8C2149008C46BC4463445B6BD21888235B00FB181B68D318354A94466344C6
:403F800088225200BA18136088235B00FB181B680B22D34188225200BA18136088235B00FB181A6886235B00FB181B68D31888225200BA18136084235B00FB181B68DA438C
:403FC00088235B00FB181B681A4386235B00FB181B685A40164B8C2149008C46BC4463441B69D2188A235B00FB181B68D318194A944663448A225200BA1813608A235B009E
:40400000FB181B681A22D3418A225200BA1813608A235B00FB181A6888235B00FB181B68D3188A225200BA181360862314E0C046F0FEFFFFC3595B6592CC0C8F7DF4EFFF2D
:40404000D15D84854F7EA86FE0E62CFE144301A3A111084E827E53F75B00FB181B68DA438A235B00FB181B681A4388235B00FB181B685A40654B8C2149008C46BC4463448A
:40408000DB6AD21884235B00FB181B68D318604A9446634484225200BA18136084235B00FB181B681622D34184225200BA18136084235B00FB181A688A235B00FB181B6890
:4040C000D31884225200BA18136088235B00FB181B68DA4384235B00FB181B681A438A235B00FB181B685A40484B8C2149008C46BC4463449B68D21886235B00FB181B6829
:40410000D318444A9446634486225200BA18136086235B00FB181B681122D34186225200BA18136086235B00FB181A6884235B00FB181B68D31886225200BA1813608A231E
:404140005B00FB181B68DA4386235B00FB181B681A4384235B00FB181B685A402B4B8C2149008C46BC4463445B6AD21888235B00FB181B68D318284A9446634488225200FE
:40418000BA18136088235B00FB181B680B22D34188225200BA18136088235B00FB181A6886235B00FB181B68D31888225200BA1813607B681A688A235B00FB181B68D2184E
:4041C0007B681A607B6804337A680432116888225200BA1812688A181A607B6808337A680832116886225200BA1812688A181A607B680C337A680C32116884225200BA18B9
:4042000012688A181A60BD4646B080BDF0FEFFFF35F23ABDBBD2D72A91D386EB80B500AFFEE7C04680B584B000AF78600F4B1A687B68D3181A1C0E4BD31A802B09DC0B4B7A
:404240001B68FB60094B1A687B68D218074B1A6007E002F02FFB031C0C221A6001235B42FB60FB68181CBD4604B080BD3C0100205820002080B586B000AF224B7B61224BBB
:404280003B61204B7B6135E03B691B68FB603B695B68BB603B699B683B6000237B600CE0FB681A68BB681A60BB680433BB60FB680433FB607B6804337B607A683B689A4294
:4042C000EED13B69DB683B6000237B6008E0BB6800221A60BB680433BB607B6804337B607A683B689A42F2D13B6910333B617B69013B7B617B69002BC6D102F0E1FAFCF765
:40430000D5F8FEE7010000008068010080B582B000AF154B144A126801218A431A6000237B600FE07B68032B04D8104B7A689200D35800E00E4B0F4A796889008B507B689C
:4043400001337B607B682F2BECD9FBF70DFF0A4B00221A60044B044A126801210A431A60BD4602B080BDC04600001040000000001D42000000000020C000002080B582B02F
:4043800000AF786039607A683B68101C00211A1C02F0D4FABD4602B080BDC04680B586B000AF7860396000233B6100237B612FE07B699B007A68D3181B68BB600F23FB1896
:4043C000BA681A70BB68FF229343BB6018E03B695B003A68D3181B781A1CBB68D318191C3B695B003A68D3185B780B703B6901333B610F23FB181A780F23FB18013A1A701D
:404400000F23FB181B78002BE1D17B6901337B617B69002BCCD0BD4606B080BD80B500AF0A4B03221A600A4B03221A60094B802212061A60084B10221A60084B00221A60F0
:40444000012000F00DF8BD4680BDC046300030403000314000003A4000033A40000E3F4080B584B000AF021CFB1D1A700B4B1B68FB60FB1D1B78002B05D0FB688022120647
:404480001343FB6003E0FB685B005B08FB60034BFA681A60BD4604B080BDC04680033A4090B5A9B000AF7860396000239822BA18136000239422BA1813607B684D4A93427E
:4044C00000D98CE03B68002B00D188E00C23FB1808331A1C3B68101C191C802202F025FA7B68454A934201D9444A00E0444A0C23FB181A600C23FB187F225A60414B0C22D6
:40450000BA181A60404B414A1A603E4B1B681B0F1A07A0231B069A4204D03A4B1B680F22134000E000239822BA1813609823FB181B68002B52D19F23FC1801F0AAFE031CF9
:40454000237000F069F8031C9422BA1813609423FB181B68002B05D100F08EF8031C9822BA1813609823FB181B68002B24D10C23FB18274A1A600C23FB181A687B681B04F7
:404580001A430C23FB181A601E4B0C22BA181A601D4B204A1A601B4B1B681B0F1A07A0231B069A4204D0174B1B680F22134000E000239822BA1813609423FB181B68002B08
:4045C00005D100F081F8031C9422BA1813609F23FB181B78181C01F060FE04E003E004239822BA1813609823FB181B68181CBD4629B090BDFF030000FF010000B6D700014C
:40460000B6D70000080010400400104004000080B6D800000500008080B584B000AF0023FB603B1D0F4A1A600F4A3B1D5A600F4B3A1D1A600E4B0F4A1A600C4B1B681B0F23
:404640001A07A0231B069A4204D0084B1B680F22134000E00023FB60FB68181CBD4604B080BDC046B6E900003C05002008001040040010401600008080B582B000AF0023C1
:404680007B600D4B0D4A1A600D4B0E4A1A600A4B1B681B0F1A07A0231B069A4204D0064B1B680F22134000E000237B607B68181CBD4602B080BDC04608001040B6E80000DA
:4046C000040010401500008080B584B000AF0023FB603B1D0F4A1A600F4A3B1D5A600F4B3A1D1A600E4B0F4A1A600C4B1B681B0F1A07A0231B069A4204D0084B1B680F228E
:40470000134000E00023FB60FB68181CBD4604B080BDC046B6EA00003C05002008001040040010401700008090B58BB000AF78602723FC1801F0ADFD031C2370184B1A685C
:404740000C23FB181A60174B1A680C23FB185A607B68033B144AD35C1A1C0C23FB189A60124B1A680C23FB18DA601C23FB18104A1A600C23FA181C23FB185A600D4B1C2219
:40478000BA181A600C4B0D4A1A600A4B1B682723FB181B78181C01F080FDBD460BB090BD08010B4000010B40E863010030001040B6EA0000080010400400104017000080C1
:4047C00080B584B000AF78600023FB60154B154A126801210A431A60134B144A1A60144B134A1268802109020A431A607B68002B12D01023FB600CE0012000F0F7F800F0F0
:4048000019F8031E02D00023FB6005E07B68013B7B607B68002BEFD1FB68181CBD4604B080BDC04660F02E4078002E400220000010002E4080B500AF034B1B680122134049
:40484000181CBD4680BDC0460C002E4080B584B000AF021C3960FB1D1A7080239B05FB60FB1D1B781F2B02D9002000F091F8FB1D1B7810339B00FA68D3181B68BB60FB1D40
:404880001B7810339B00FA68D3183A681A60BB68181CBD4604B080BD90B587B000AF021CFB1D1A70BB1D0A1C1A70BB1D1B78032B02D9002000F06CF8FB1D1B781F2B02D9A8
:4048C000002000F065F8FB1D1B7803221340DB0006337B611323FC1801F0DBFC031C2370FB1D1B789B08DBB29B00144A944663441B68FB607B6903229A40131CDA43FB68AF
:404900001340FB60BB1D1A787B699A40131CFA681343FB60FB1D1B789B08DBB29B00074A94466344FA681A601323FB181B78181C01F0B3FCBD4607B090BDC04600E400E0BA
:4049400080B582B000AF021CFB1D1A70054BFA1D12781F210A40012191400A1C1A60BD4602B080BD00E100E080B582B000AF021CFB1D1A70054BFA1D12781F210A4001212D
:4049800091400A1C1A60BD4602B080BD80E100E080B582B000AF021CFB1D1A7001BEBD4602B080BD80B582B000AF786009E00C4B1B68181C01F064FC7B680A4A94466344DE
:4049C0007B607A6880231B029A42F0D8064B1B687A685343181C01F053FCBD4602B080BD4C0100200080FFFF4401002080B582B000AF021CBB1D1A80BB1D1B88044A12789B
:404A00005343181C01F03CFCBD4602B080BDC0464801002080B500AF0E4B0E4A126801218A431A600B4B0B4A126802218A431A60094B094A126830218A4310210A431A60E4
:404A4000054B054A126807218A4301210A431A60BD4680BD00F02E4000FF2E4080B500AF0E4B0E4A126802218A431A600C4B0C4A126807218A4302210A431A60084B084A10
:404A8000126830218A4320210A431A60034B034A126801210A431A60BD4680BD00F02E4000FF2E4080B500AFFFF7B4FF044B044A1268802109060A431A60BD4680BDC046EC
:404AC00000F02E4080B584B000AF78600C4B1B6801221340FB607B68002B02D0012B03D005E0FFF797FF06E0FFF7B8FF03E00020FFF74EFFC046FB68181CBD4604B080BD03
:404B000000F02E4090B583B000AFFC1D01F0C1FB031C2370074B074A1268C02109020A431A60FB1D1B78181C01F0B7FBBD4603B090BDC04600010B4080B500AF054B1A681B
:404B4000C0231B02134001D0012300E00023181CBD4680BD00010B4090B583B000AFFC1D01F097FB031C23700C4B0C4A12680C490A408021C9010A431A60084B074A12689F
:404B800007490A40802109020A431A60FB1D1B78181C01F082FBBD4603B090BD00010B40FF3FFFFF90B585B000AF78600B23FC1801F06FFB031C2370FFF7BEFF031E04D018
:404BC0000123FB60FFF7C8FF01E00023FB607B680D4A13407B600D4B0C4A12680C4911407A680A431A60094B1B68FB68012B01D1FFF788FF0B23FB181B78181C01F04DFB45
:404C0000BD4605B090BDC0460404040010020B40FBFBFBFF80B500AF334B1B68042213401FD0324B1B680422134017D0304B1B6804221340DA432D4B1B681A402B4B1A608A
:404C40002B4B1B68042293431A1C294B1A60294B1B68002B02D0274B1B6898470420FFF7A1FF214B1A688023DB00134022D01F4B1A688023DB00134017D01D4B1A688023B7
:404C8000DB001340DA43194B1B681A40174B1A60174B1B68184A1A40154B1A60154B5B68002B02D0134B5B6898478023DB00181CFFF778FF0C4B1A688023DB02134011D045
:404CC0000A4B1A688023DB02134006D0094B9B68002B02D0074B9B6898478023DB02181CFFF760FFBD4680BD10020B40500100205405002058050020FFFBFFFF80B500AFC3
:404D0000094B00221A70094B00221A70084B00221A7000F013F8074B00221A70064B00221A70BD4680BDC046472000204020002046200020681500203420002080B500AFB6
:404D400000F006FDBD4680BDF0B58FB004AF78602623FB1800221A800C23FA18284B111C1A1C1823081C111C1A1C01F0DEFD254B1B78002B04D1FFF7C1FF224B01221A7001
:404D80007B68002B30D02623FB181B88002B2FD11D4B7A681A602623FC181C491C4A1D4E0C23FD18062300931B4B01936E23FF330293081C111C321C2B1C01F099FE031C85
:404DC00023802623FB181B88002B11D1134B01221A702623FC18124B181C14210C220CF025FE031C238003E02623FB1801221A802623FB181B88181CBD460BB0F0BDC04627
:404E0000F0650100680500206C150020DD53000070150020C40A0000006F01003E200020C866010090B585B000AF021CFB1D1A70FB1D1B78022B04D90E23FB1801221A808F
:404E40004BE0294B1B78042B42D1284B1B78DBB21A1C042313403BD1FB1D1B78002B0BD1234B0A221A82224B5B6820221A80204B5B6850225A8010E0FB1D1B78012B0CD15D
:404E80001B4B96221A821A4B5B68C822D2001A80174B5B688022D2015A80164BFA1D12781A700E23FC18124B181C0AF005FF031C23800E23FB181B88002B08D10B4B1B7850
:404EC000DBB204221343DAB2084B1A7005E004E00E23FB180422FF321A800E23FB181B88181CBD4605B090BD3E20002047200020A40100204620002080B584B000AF7860E2
:404F00000A1CFB1C1A700023BB60FB1C1B78002B02D1164BBB6001E0154BBB60BB68002B20D07B689A79BB681A700F23FB1800221A7012E00F23FB181B780133BA68D3180F
:404F40000F22BA18127879688A5C1A700F23FB181A780F23FB1801321A700F23FB181B78052BE7D9BD4604B080BDC046770100209401002080B586B000AF78600A1CFB1C3C
:404F80001A701623FB1800221A701523FB1800221A701423FB1800221A70FB1C1B78002B07D15B4B3B610F23FB18594AD27F1A7006E0584B3B610F23FB18564AD27F1A70EB
:404FC00035E01423FB181B783A69D2181523FB1812781A701523FB181B78002B26D01423FB181A781423FB1801321A701423FB181B783A69D3181B78082B07D01423FB189F
:405000001B783A69D3181B78092B04D11623FB1801221A7009E01423FB181422B9181522BA18097812788A181A7000E00CE01423FA180F23FB1812781B789A4204D21623DE
:40504000FB181B78002BBCD01623FB181B78002B5BD01523FB181522B9181422BA18097812788A181A701423FB181A781423FB1801321A701723FB181422BA1812781A70C0
:4050800017E01723FB181B783A69D3181722BA1811781422BA1812788A1A111C7A68521812781A701723FB181A781723FB1801321A701723FA181523FB1812781B789A42BB
:4050C0000CD21723FB181A781423FB181B78D31A1A1C7B689B181B78002BD2D10DE01723FB181B783A69D31800221A701723FB181A781723FB1801321A701523FA18172388
:40510000FB1812781B789A42E9D8BD4606B080BD640100208401002080B586B000AF78601623FB1800221A807B68002B4AD02B4B9B6B5B683B61294B9A8E0F23FB181A701A
:405140001523FB1800221A7012E01523FB181B783A69D3181522BA18127879688A1812781A701523FB181A781523FB1801321A701523FA180F23FB1812781B789A4207D26A
:405180001523FB181B787A68D3181B78002BDCD11523FA180F23FB1812781B789A4206D21523FB181B783A69D31800221A707B68181C0021FFF7DEFE7B68181C0121FFF728
:4051C000D9FE03E01623FB1801221A801623FB181B88181CBD4606B080BDC046C866010080B582B000AF78607B681B789AB27B6801331B789BB21B029BB213439BB2181CB6
:40520000BD4602B080BDC04690B585B000AF78600F23FB1800221A707B689B890D22934237D17B681A1D7B680F217C18101C00211A1C40230CF048FC031C23700F23FB1893
:405240001B78002B1DD17B685B68181CFFF7C8FF031C1A1C022313409BB2002B08D0104B1B68822251007A68081C111C984708E00B4B1B680622FF32111C7A68081C111C6F
:405280009847084B1B78DBB201229343DAB2054B1A700F23FB181B78181CBD4605B090BD6C1500204720002090B585B000AF78600F23FC187B68181CFFF7A6FF031C237059
:4052C000144B1B78DBB21A1C012313401FD10F23FB181B78002B16D00823FB1812229A707B689A890823FB181A800823FB180F22BA181278DA707B680822BA181868111CAE
:405300000BF000FE03E07B6818680BF075FEBD4605B090BD4720002080B582B000AF7860BD4602B080BDC04680B500AF034B00225A70024B00221A70BD4680BD4420002073
:4053400080B582B000AF7860BD4602B080BDC04680B500AFBD4680BD80B584B000AF78600E23FB1800221A707B689B79002B1CD10F23FB1800221A7012E00F23FB181B7879
:405380007A68D35C002B04D00E23FB1801221A700BE00F23FB181A780F23FB1801321A700F23FB181B78052BE7D90E23FB181B78181CBD4604B080BD80B582B000AF021C2D
:4053C000BB1D1A80BD4602B080BDC04680B582B000AF7860BD4602B080BDC04680B584B000AF021C3960FB1D1A70BB4B1B78DBB201221343DAB2B84B1A70FB1D1B78412B1D
:4054000000D10EE120DC242B00D1B4E00DDC022B00D18FE002DC012B38D07AE1052B00D18DE0212B00D18FE073E1272B00D1ACE003DC262B00D1B4E06BE1282B00D1ACE0AB
:405440002A2B00D19CE064E14F2B00D13EE10BDC432B00D10BE100DA06E14C2B00D123E14E2B00D134E154E1572B00D132E106DC502B00D14CE1542B00D11AE149E1712B56
:4054800000D1C8E0FA2B00D118E142E10C23FB1808221A700C23FB1800225A700C23FB18181C02F06AFF0C23FB1808221A700C23FB1801225A700C23FB18181C02F05DFF83
:4054C000864B1B68181CFFF747FF031E11D0834B1B68181C01F0FAFA804B1B68181C0021FFF70AFD7D4B1B68181C0121FFF704FD19E07B4B1A787B4B1A707B4B1A78794B87
:405500005A707A4B1A78774B9A70764B181C01F0DDFA744B181C0021FFF7EEFC714B181C0121FFF7E9FC03200AF088FA704B04221A70EEE03B68181CFFF702FFE9E03B68CE
:405540001A786C4B1A70E4E0634B1B78DBB21A1C202313400ED1684B1B78102B02D1664B0522DA70654B1A78634B101C191C0AF06DFBCEE0CDE03B685A78614B1A70C8E044
:405580003B68181CFFF722FFC3E03B68181CFFF71DFF574B02221A70BBE0554B04221A70B7E0534B1B78022B34D04B4B1B78DBB21A1C012313402DD0474B1B78DBB21A1CF5
:4055C000042313400BD04A4B03221A70424B1B78DBB204229343DAB23F4B1A701AE03E4B1B78DBB21A1C082313400BD0404B04221A70394B1B78DBB208229343DAB2364BAB
:405600001A7007E03A4B1B78032B03D1384B04221A707EE07DE03B681B88181CFFF7CCFE77E0364A3B68111C1A1C0223081C111C1A1C01F07AF9314B1B781A1C131C5B00FB
:405640009B185B006933FF331A1C2E4BD31805332D4A111C1A1C0623081C111C1A1C01F064F9FFF775FE54E0FFF75EFE51E03B685B88162B05D80E23FB183A6852881A8086
:4056800003E00E23FB1817221A803B680E22BA1811881A8800231204120C1B0C1B041343181C0BF03BFC34E03B68181CFFF7FCFD2FE03B68181CFFF72FFE2AE0134B1B78D9
:4056C00001221343DAB2114B1A7022E0C04620E0C0461EE0C0461CE047200020C00100207CF1FF0FB80100207DF1FF0F7BF1FF0F3E20002040200020540200204420002007
:4057000034200020006F01003820002068150020C0460D4B1B78DBB21A1C112313400FD0094B1B78DBB201229343DAB2064B1A70064B1B68FA1D11783A68081C111C98473C
:40574000BD4604B080BDC046472000206C15002080B500AFBD4680BD80B500AF00F070F8BD4680BD80B500AF064B064A1268802109060A431A6000F019F800F01FF8BD46E6
:4057800080BDC0460000254080B500AF064B1B78002B04D1FFF7E0FF034B01221A70FFF7E1FFBD4680BDC0466C05002080B500AF0A20FFF7C5F8BD4680BDC04680B500AF11
:4057C00000F0A4F8BD4680BD80B582B000AF00237B60044B1B687B607B68181CBD4602B080BDC0464003254080B500AF074B074A1268802149020A431A60044B034A12689B
:4058000003490A401A60BD4680BDC04604032540FFFFFEFF80B582B000AF7860C046064B1B681F221340082BF9D0044B7A681A60BD4602B080BDC04608022540400225409A
:4058400080B500AF1E4B1F4A1A601F4B00221A601E4B01221A601E4B1E4A1A601E4B07221A601E4B00221A601D4B01221A601D4B184A1A601C4B00221A601C4B04221A603D
:405880000A20FFF771F80A200321FFF705F8184B0A20191CFEF7DAFF164B00221A60164B00221A60154B00221A60154B00221A60144B04221A60144B00221A60BD4680BD62
:4058C000000025400B00000240002540480025400003254007000080040325401003254044002540000225400402254050002540A1620000880E2540C80E2540480F2540EC
:40590000080F2540C80F2540880F254080B500AF044B044A1268F0218A4390210A431A60BD4680BD0000024080B500AF00F062F8054B181C00F020F8032000F029F800F002
:405940004FF8BD4680BDC0467159000080B582B000AF786000F04EF87B68181C00F00CF8032000F015F800F03BF8BD4602B080BD80B500AFBD4680BD80B582B000AF78605A
:40598000024B7A689A66BD4602B080BD0000002090B585B000AF021CFB1D1A701623FB600B23FC1800F075FC031C23700A4B0A4A12680A491140FA1D1078FA689040021C1E
:4059C0000A431A600B23FB181B78181C00F065FCBD4605B090BDC04608E400E0FFFF3FFF80B500AF024B8022D2001A60BD4680BD00E100E080B500AF024B8022D2001A6035
:405A0000BD4680BD80E100E080B584B000AF021CFB1D1A700E4B1B68DAB20F23FB1820218A431A70FB1D1B785B01DBB220221340D9B20F23FB180F22BA1812780A431A706B
:405A4000034B0F22BA1812781A60BD4604B080BD0002044080B500AF0A4B00221A600A4B0C221A60012000F085F8FA239B00181C00F048F8642000F053F8002000F034F820
:405A8000BD4680BD000120402401204090B583B000AFFC1D00F0FDFB031C2370084B084A126801210A431A60FB1D1B78181C00F0F4FB0120182100F041F8BD4603B090BD9A
:405AC0000000204080B500AF064B1B78002B04D1FFF7C0FF034B01221A70FFF7D7FFBD4680BDC0467405002080B582B000AF7860034B7A681204120C1A60BD4602B080BD65
:405B00000801204080B582B000AF7860034B7A681204120C1A60BD4602B080BD1401204080B582B000AF7860034B7A681204120C1A60BD4602B080BD0C01204090B585B024
:405B400000AF786039600F23FC1800F0A2FB031C2370074B3A68796891400A1C1A600F23FB181B78181C00F098FBBD4605B090BD0800204080B582B000AF7860024B7A6821
:405B80001A60BD4602B080BD3801204080B582B000AF7860024B7A681A60BD4602B080BD3001204080B582B000AF786000F04CF87B68181C00F008F8032000F013F800F08F
:405BC00039F8BD4602B080BD80B582B000AF7860034B84217A685A50BD4602B080BDC0460000002090B585B000AF021CFB1D1A700E23FB600B23FC1800F04BFB031C23705E
:405C00000A4B0A4A12680A491140FA1D1078FA689040021C0A431A600B23FB181B78181C00F03BFBBD4605B090BDC04610E400E0FF3FFFFF80B500AF024B802292021A60BD
:405C4000BD4680BD00E100E080B500AF024B802292021A60BD4680BD80E100E080B584B000AF021CFB1D1A700E4B1B68DAB20F23FB1820218A431A70FB1D1B785B01DBB210
:405C800020221340D9B20F23FB180F22BA1812780A431A70034B0F22BA1812781A60BD4604B080BD0000044080B584B000AF021CFB1D1A700E4B1B68DAB20F23FB181021D8
:405CC0008A431A70FB1D1B781B01DBB210221340D9B20F23FB180F22BA1812780A431A70034B0F22BA1812781A60BD4604B080BD0000044080B584B000AF021CFB1D1A70DB
:405D00000E4B1B68DAB20F23FB1808218A431A70FB1D1B78DB00DBB208221340D9B20F23FB180F22BA1812780A431A70034B0F22BA1812781A60BD4604B080BD00020440E3
:405D400080B500AF064B1B78002B04D100F00AF8034B01221A7000F0F1F8BD4680BDC0467505002080B584B000AF0F200321FEF793FD584B0F20191CFEF768FD564B0122A0
:405D80001A60564B1B68002B01DA554900E05549554B554A12680A431A60544B544A1A60544B554A1A60554B00221A60544B554A1A60554B534A1A60544B544A1268802131
:405DC00049020A431A60524B00221A60514B00221A60514B01221A60504B1B687B607B684F4A13407B607B688022920513437B607B68012293437B60484B7A681A6000232E
:405E0000FB6061E08023DA00DC239B0113407B60FB689B00434A944663447A681A608023DB000122134009D0394B394A1268F96801208840011C89B20A431A608023DB00E3
:405E40000222134009D0334B324A1268F96801208840011C89B20A431A608023DA0080239B00134003D080235B00BB6002E080235B01BB608023DA0080235B00134005D15B
:405E8000294BFA6852000021D15209E0BB68002B00DA01335B1099B2234BFA685200D152BB68224A5343224A94466344181C214900F0E4FB031C9BB219B21F4BFA68920022
:405EC000D150FB680133FB60FB68002B9AD0BD4604B080BD1560000020003A4080033A40700210537002005300003A4004003A40C4000A8018003A400000FF071C003A4089
:405F000010003A400400040014003A4000033A4028023A4038023A4018023A4030003A40FFFFFFDF80003A404C20002010270000E40C0000C81900004820002080B500AF58
:405F40000A4B1B68002B0EDBC046094B1B68002BFBDB064B054A1268802109060A431A600A20FEF743FDBD4680BDC04600003A4008023A4080B500AF024B01221A60BD4652
:405F800080BDC04624003A4080B584B000AF78600023FB607B680322134011D00B4B1B6801221340FB60FB68002B03D17B6802221340F3D1FB68002B02D0044B01221A60E0
:405FC000FB68181CBD4604B080BDC04610023A4080B584B000AF78607B68002B02D00020FEF7D6FC7B68002B09D17B689B00084A944663441B681B041B0CFB6001E000236C
:40600000FB60FB689BB21BB2181CBD4604B080BD80013A4080B582B000AF044B1B687B60024B7A681A60BD4602B080BD10023A4080B500AF0F4B8022D2041A600D4B0D4A9C
:4060400012681A60002000F061F80A4B094A12681A60094B0C221A60012000F09DF8074B31221A607D2000F05FF8002000F06AF8BD4680BD400120406401204068012040A1
:4060800090B583B000AFFC1D00F003F9031C2370084B084A126802210A431A60FB1D1B78181C00F0FAF80220182100F059F8BD4603B090BD0000204080B500AF064B1B7871
:4060C000002B04D1FFF7B4FF034B01221A70FFF7D7FFBD4680BDC0467605002090B583B000AFFC1D00F0D5F8031C2370064B064A126802218A431A60FB1D1B78181C00F04C
:40610000CCF8BD4603B090BD0000204080B582B000AF7860034B7A681204120C1A60BD4602B080BD4801204080B582B000AF7860034B7A681204120C1A60BD4602B080BD13
:406140005401204080B582B000AF7860034B7A681204120C1A60BD4602B080BD4C01204090B585B000AF786039600F23FC1800F090F8031C2370074B3A68796891400A1C29
:406180001A600F23FB181B78181C00F086F8BD4605B090BD0800204080B582B000AF7860024B7A681A60BD4602B080BD7801204080B582B000AF7860024B7A681A60BD4682
:4061C00002B080BD7001204080B582B000AF786000F04CF87B68181C00F008F8032000F013F800F039F8BD4602B080BD80B582B000AF7860034B88217A685A50BD4602B05F
:4062000080BDC0460000002090B585B000AF021CFB1D1A701623FB600B23FC1800F039F8031C23700A4B0A4A12680A491140FA1D1078FA689040021C0A431A600B23FB18AB
:406240001B78181C00F029F8BD4605B090BDC04610E400E0FFFF3FFF80B500AF024B8022D2021A60BD4680BD00E100E080B500AF024B8022D2021A60BD4680BD80E100E067
:406280000230800803D00138FDD1C046C046C0467047EFF3108072B6704780F31088704780B500AF044B1B68002B02D0024B1B689847BD4680BDC0467005002090B583B0B9
:4062C00000AFFC1DFFF7E5FF031C2370074B074A126804218A431A6030BFFB1D1B78181CFFF7DBFFBD4603B090BDC04610ED00E080B582B000AF78600A1CBB1C1A80BB1CE1
:406300001A887B681A60BD4602B080BD80B582B000AF78600A1CBB1C1A80BB1C1A887B681A60BD4602B080BD80B582B000AF304B1B78DBB21B022F4A1278D2B213437B6099
:406340002D4B1B78DBB21B022C4A1278D2B213433B603B682A4A934207D17B68072B04D1284B3B6004237B6009E03A68D4231B019A4204D17B68042B01D1224B3B60224B8D
:406380003A681A60214B7A681A60214B1B78DBB21B02204A1278D2B213437B607A6880239B019A4202D07B68002B01D11A4B7B601A4B7A681A601A4B1B78DBB21B02194AF2
:4063C0001278D2B213437B607B68174A934206D07B68164A934202D07B68052B01D1144B7B60144B7A681A60BD4602B080BDC046D9F0FF0FD8F0FF0FDFF0FF0FDEF0FF0F4D
:40640000580B0000580D00006C002E4074002E40DBF0FF0FDAF0FF0F0220000078002E40DDF0FF0FDCF0FF0F0F0F000005050000050F000080002E4080B582B000AF021C0C
:40644000BB1D1A80BB1D1B88181CFEF7CFFABD4602B080BD80B500AF00F066F8BD4680BD80B500AF00F06AF8BD4680BD80B500AF00F064F8044B181C00F024F8032000F091
:406480002DF8BD4680BDC0465165000080B500AF024B181C00F004F8BD4680BD5165000080B582B000AF786000F048F87B68181C00F008F8032000F011F800F035F8BD4613
:4064C00002B080BD80B582B000AF7860024B7A681A67BD4602B080BD0000002090B585B000AF021CFB1D1A700623FB600B23FC18FFF7CFFE031C23700A4B0A4A1268C021D5
:406500008A43111CFA1D1078FA689040021C0A431A600B23FB181B78181CFFF7BEFEBD4605B090BD0CE400E080B500AF024B802252011A60BD4680BD00E100E080B500AF97
:40654000024B802252011A60BD4680BD80E100E080B500AF0FF098FEBD4680BD002243088B4274D303098B425FD3030A8B4244D3030B8B4228D3030C8B420DD3FF220902EA
:4065800012BA030C8B4202D31212090265D0030B8B4219D300E0090AC30B8B4201D3CB03C01A5241830B8B4201D38B03C01A5241430B8B4201D34B03C01A5241030B8B42E7
:4065C00001D30B03C01A5241C30A8B4201D3CB02C01A5241830A8B4201D38B02C01A5241430A8B4201D34B02C01A5241030A8B4201D30B02C01A5241CDD2C3098B4201D3A0
:40660000CB01C01A524183098B4201D38B01C01A524143098B4201D34B01C01A524103098B4201D30B01C01A5241C3088B4201D3CB00C01A524183088B4201D38B00C01AFA
:40664000524143088B4201D34B00C01A5241411A00D20146524110467047FFE701B5002000F0FCF802BDC0460029F7D003B5FFF775FF0EBC4243891A1847C04603460B436A
:406680007FD4002243088B4274D303098B425FD3030A8B4244D3030B8B4228D3030C8B420DD3FF22090212BA030C8B4202D31212090265D0030B8B4219D300E0090AC30BE3
:4066C0008B4201D3CB03C01A5241830B8B4201D38B03C01A5241430B8B4201D34B03C01A5241030B8B4201D30B03C01A5241C30A8B4201D3CB02C01A5241830A8B4201D3EA
:406700008B02C01A5241430A8B4201D34B02C01A5241030A8B4201D30B02C01A5241CDD2C3098B4201D3CB01C01A524183098B4201D38B01C01A524143098B4201D34B01EB
:40674000C01A524103098B4201D30B01C01A5241C3088B4201D3CB00C01A524183088B4201D38B00C01A524143088B4201D34B00C01A5241411A00D2014652411046704706
:406780005DE0CA0F00D04942031000D34042534000229C4603098B422DD3030A8B4212D3FC22890112BA030A8B420CD3890192118B4208D3890192118B4204D389013AD06A
:4067C000921100E08909C3098B4201D3CB01C01A524183098B4201D38B01C01A524143098B4201D34B01C01A524103098B4201D30B01C01A5241C3088B4201D3CB00C01ADB
:40680000524183088B4201D38B00C01A5241D9D243088B4201D34B00C01A5241411A00D20146634652415B10104601D34042002B00D54942704763465B1000D3404201B52A
:40684000002000F00BF802BD0029F8D003B5FFF715FF0EBC4243891A1847C0467047C046F0B54F46464605042D0C2C1CC0B41704160C3F0C9946030C7C4375435F43734376
:406880007D19260CAD199C46AF4203D980235B029846C4444B465143434324042E0C240C2D0466442C1959188919201C0CBC90469946F0BD014B18687047C046DC04002056
:4068C0000E4B70B500251E1C0D4CE41AA410A54204D0AB00F35898470135F8E70FF0BEFF084B00251E1C084CE41AA410A54204D0AB00F35898470135F8E770BD68680100F4
:4069000068680100686801007068010030B50024944208D0035D651C0C5DA34201D0181B02E02C1CF4E7002030BD002310B5934203D0CC5CC4540133F9E710BD031C821876
:40694000934202D019700133FAE77047154B10B51C68A36B002B15D1182000F03BF8124BA0630380114B01224380114B8380114BC380114B038105234381063383810023A9
:4069800002614361A46B0D4A206961690C4BFFF767FF0122002380185941206161614800400810BDDC0400200E330000CDABFFFF341200006DE6FFFFECDEFFFF2D7F954CA9
:4069C0002DF451580023C25C0133002AFBD1581E7047000008B5034B011C186800F004F808BDC046DC040020032370B5CC1C9C430834051C0C2C01D20C2405E0002C03DA3E
:406A00000C2300202B6042E08C42F9D3204A1368101C191C002913D00A68121B0DD40B2A02D90A608B181FE08B4202D15A6802601BE04A685A600B1C17E00B1C4968E9E7E1
:406A4000144E3368002B03D1281C00F025F83060281C211C00F020F8031C421CD0D00322C61C964386420AD11C60181C07210B301A1D8843821A0AD05142995007E0311AD7
:406A8000281C00F009F8431CBAD0331CECE770BD201400201C14002038B50023064C051C081C2360FDF7BEFB431C03D12368002B00D02B6038BDC0465020002010B501F069
:406AC000FDFB10BD10B500F067F910BD10B50749044609780220002907D1204601F00FFC002802D1204609F093F810BD62030020FFB585B0002568460E9F057339481C468F
:406B00000078002802D0082009B0F0BD10990F9801900097029105A807C800F067F80028F2D10120694603AA0D73002C1BD0002113E08B00E55A082D09D91E19B678002EF8
:406B400005D0083DE55213785B1C137003E0042901D2012003E0491CC9B2B942E9D31178042900D300200028CED110990F9800F057FF002801D00120C6E701F09FFB1A4807
:406B80000599016021888180A188C180A27A0272A17B4172A089012540084843A0810220A073208950432081A5726846037B22460799069800F0A2F80028A5D16846094CFA
:406BC000007B607001F082FB00289DD1064806F0F5F9002898D106F011FA002894D1257092E700005802002078050020FFB53A4F1C4603463F780020364A0A9E0B9D002F12
:406C000012D100290FD0029991420CD3002B0AD0002C08D00999042905D3002E03D0FF216E318D4202D2012004B0F0BD00210A460D463FE08B001E19B678002E36D0E35A43
:406C4000002B33D073435B199DB20B0000F048F806040E15191D253F2388FF27A678233BEB37BB42DFD2032EDDD31FE0A3880C2BD9D91A4EB342D6D818E02389302BD2D1AD
:406C800014E0A389482BCED110E0228A134E1346233B223EB342C6D208E0A38A0F4F1E46233E223FBE42BED29342BCD80028BBD1491CC9B2099B9942BCD319461C2251439C
:406CC0004A190449521802998A42ACD8ACE70020EEE70000D808000058020020DCFF000030B47446641E2578641CAB4200D21D46635D5B00E31830BC18470000FFB50F4609
:406D000006460024384381B01D46800701D0012438E0FFF7BBFBFFF7A3FB00F097FA00282ED100F0D3FB00282AD11849084600F0ABFE0004000C23D13000154E04D0306033
:406D4000B7800020F0803581AD1DEFB23946039800F046F804000ED1B088F2880837801AF9B280B201F080F9002801D0012407E0E8B200F019F900F031F90649012008708B
:406D800000F076FA204605B0F0BD0000CD6E0000840500205A02002010B503480078012801D101F003F810BD5A02002070B5084B0446DA889E8800205518B54206D81D6862
:406DC000AA182260DA885118D98070BD032070BD84050020014800897047000084050020F0B587B007460D4600208900009006916846FFF7DBFF844600285DD130480099D8
:406E00000160002117E02E4B88001A680629115406D22C4C0419667882185670628805E0C419203CA67A8218567022891B68C018491C4280C9B2A942E5D300242DE0601C97
:406E4000C2B2059025E01E4FA30039689600581840887118039604904E88B04217D938466F46FE80B6464F786E4677710297049F4F800168039F5E18767879184E700168D5
:406E8000764659184E800068029F18184770521CD2B2AA42D7D30598C4B2AC42CFD36046002809D168460699FFF780FF8446002802D1054900980860604607B0F0BD000035
:406EC0005C02002090680100600200207047000010B5002809D005494A68002A05D0011F08788000105801F06DF810BD5C02002010B50446FFF76EFFC0B2801DA0420CD3B2
:406F000007484068002808D0A100405800F0CCFF002801D00470001D10BD002010BD00005C020020F8B516460D460446FFF752FFC0B2801DA04203D20020C0430090F8BD89
:406F4000B2B2E9B2684600F0D5FF0099481C03D0024AA000526811500098F8BD5C020020F8B50746FFF736FF801DC6B20A49002005460C680DE06178002907D06188B942E8
:406F800002D32078FFF7B4FF002804D1241D6D1CEDB2B542EFD3F8BD5C02002010B5002801D0FFF795FF10BD70B506460948002504680BE06178002905D062882078121D8E
:406FC0000023FFF7AFFF241D6D1CEDB2B542F1D370BD00005C020020002070471CB5002469460C70142001902346054A05480CF01FFD04480068401C00D1FF2420461CBDDF
:4070000059700000640200203EB5124A0146FF2000230124126800290DD0012914D0042908D104206946009308814B8110460CF0FAFC80B23EBD6846009304814381694607
:4070400010460CF0EBFCF4E768460093048143816946EBE76402002070B545890468416800890300FFF73CFE06240408081D2124002004F079FF1BE0022908D0C8B22A4693
:4070800021460AF07FFF2046FFF788FF10E002202A4621460AF076FF2946204600F00AF806E000200CF0B8F902E020460CF060FD002070BD014B0022DB68184768020020B4
:4070C00070B5448905680089022803D0032809D0FF2070BD2246094C0023A46829460120A04708E0FFF7EAFC241DA2B200232946022005F046FE002070BD000068020020DB
:40710000704700000248002141600180418070476802002070B50C46002186B016460391012802D0022859D116E003A9012005F080FE01281BD1039D324621462846FFF7CE
:40714000F4FB0095287801900220694608814E816846FFF7B5FF41E0214D002B686809D0049004A9022005F064FE01281DD0022006B070BD002812D0298840182146FFF731
:40718000D4FB28880024801980B228806988091D884206D12C801348FFF792FF03E00320E6E788421AD96C6018E004986860E278A378110219430B4A698000231060E356CD
:4071C0005360032313815181A1788170E178C1706178417021780170042028800020C7E768020020900500203EB515460C46022803D004280CD000203EBD0091019002204B
:407200006946088107484A8100680CF00CFC07E00AF0B8FE044B0022DB6829462046984701203EBD6402002068020020014AD1609060704768020020034801688068081AFA
