:400000000040002011000000A91A0000A91A000080B500AF01F074FD80B500AF374B12221A6002F085F9364B181C03F071FD012002F08EF9302001F0BDFF324B324A1A60DF
:40004000324B8022D2051A60314B314A126802210A431A602F4B304A1A60304B00221A602F4B2F4A126808218A431A60FA23DB00181C01F0EBFF2B4B181C02F0FDF82A4B46
:40008000BC2292011A60294B294A1A60294BBC2292011A60254B284A1A60284BE82252011A60224B264A1A60264B882292011A601E4B254A1A60254B822212061A60244B09
:4000C0008022D2021A60234B42221A60224B43221A60224B40221A60214B41221A60214B0820191C01F0F8FF082002F06FF8074B8022D2051A60BD4680BDC04630001040A9
:40010000001BB70004010B40060000800C020B4078002E407C002E402D3E000064F02E406CF02E40DC050000080301400000014042FF00800C03014043FF00800003014072
:4001400040FF00800403014041FF008008010B4000010B40200101401C0101401801014008010140A124000080B582B000AF72B6464B00221A60FB1D00221A7023E0FB1DA5
:400180001A78131C5B009B185B00414A9B183B603B681A78597809020A43997809040A43DB781B061343191C3B681A795B791B0213439BB2081C191C01F026FDFB1D1A7893
:4001C000FB1D01321A70FB1D1B78012BD7D9314A314B101C191C01F027FD304B304A1A60304B992212041A602F4B992212041A602E4B802292031A602D4B992212041A604F
:400200002C4B802212031A602B4B992212041A602A4A2A4B1B78DBB202210B43DBB21370274A274B1B78DBB23C218B43DBB214210B43DBB21370214A204B1B78DBB2162150
:400240000B43DBB213701F4B32221A601E4B1F4A1A601F4B02221A601E4B04221A601E4B1E4A1A601E4B02221A601E4B1E4A1A601E4B10221A601E4B10221A60FFF7CCFE04
:4002800001F012FDBD4602B080BDC0466CF02E40543C0100603C0100643C010000000240990000EE00500F4010500F4014500F4020500F4024500F4030500F4000700F40D3
:4002C00001700F4000000440080004403160DB00180004400001044008010440B60C00000002044008020440100C0300000304401803044010B5064C2378002B07D1054B34
:40030000002B02D0044800E000BF0123237010BDA004002000000000303B010008B5084B002B03D00748084900E000BF07480368002B00D108BD064B002BFBD09847F9E753
:4003400000000000303B0100A4040020C80000200000000080B500AF012003F05DF8094B00225A71084B67229B5C002B07D0064B68229B5C0133D9B2034B68229954BD46A5
:4003800080BDC046C4040020B414002098B500AF374B04221A60374B72229B5C002B5FD1344B65229B5C01221340DBB2002B11D1304B65229B5C5B08D9B22E4B66229954C2
:4003C0002C4B66229B5C1C1C02F044FE031CDAB2284B1A55274B65229B5C0133D9B2254B65229954234B66229B5C282B0FD9214B6522002199541F4B6622002199541D4BEA
:400400006822002199541B4B672200219954194B65229B5C012B03D1164B672201219954144B66229B5C012B06D1124B5B780433D9B2104B642299540E4B66229B5C032BA5
:4004400012D90C4B66229B5C191C0A4B64229B5C013B994208D1074B69220121995403E0044B65220021995402F004FEBD4698BDC00F2540B414002080B500AF012003F0B1
:40048000DDFA094B1B78002B06D1074B01221A70012002F0FFFE05E0034B00221A70002002F0F8FEBD4680BDBC04002090B583B000AF02F04DFF504B181C02F0B9FF02F096
:4004C000A9FD02F077FE4D4B181C02F085FE012003F056F84A4B181C03F0BCFA00F0DEFE03F074F8474B1B7D002B35D0FB1D00221A7029E0FB1D1B785B00DC1CFB1D1B78DF
:40050000404AD3181B7C1B09DBB2181C00F032FD031C1A1C3C4B1A55FB1D1B7802335C00FB1D1B78374AD3181B7C0F221340DBB2181C00F01FFD031C1A1C334B1A55FB1DCB
:400540001A78FB1D01321A70FB1D1B78032BD1D92D4B181C02F026FA3C1D2C4B181C02F039F8031C238062B60A2001F061FE03F0E9FE012002F0DEFF002002F0B5FF244B59
:400580006C221021995400F06BF803F0DBFE00F097FA00F019FB00F0C3FE00F0CBFF1C4B72229B5C002B14D0194B71229B5C0133D9B2174B71229954154B71229B5C032BD8
:4005C00007D9134B722200219954114B71220021995400F03DFE0F4B1B785B075B0FDBB2181C00F0DFFCC0460B4B5B79002BFBD1094B01225A71C6E7550300008D030000B0
:4006000079040000D4040020CC000020BD060000B4140020D0040020C404002080B582B000AF03F0EDF8022003F0F4F8002003F015F9031C1A1CBB1D1A80BB1D1B88FA2264
:4006400012015343181C054903F060FC031C3B603B689BB2181CBD4602B080BD3907000080B584B000AF3B1C0C22BA181A603B1C02229A803B1C0222DA803B1C14221A8175
:400680000C4B1B78032B10D0042B0AD0022B00D00CE03A1C084B101C191C00220EF01EFE04E0002002F004F800E0C046BD4604B080BDC046062000200C20002090B585B02C
:4006C00000AF786039607B68412B00D16AE005D8012B00D168E0282B07D066E04C2B28D04E2B06D0432B17D05FE0002001F0E0FF5BE03B681B891A1C2D4B1A603B685A688D
:400700002B4B1B682B49081C111C1A1C03F055FD294B01221A6048E03B685B88162B04D83B685A88254B1A803FE0244B17221A803BE03B68FB60FB689B89142B1FD1FB6882
:400740001A1D0B23FC181E4B101C00211A1C40230EF0FAFD031C23700B23FB181B78002B0DD1174B1A785B781B021A4300231204120C1B0C1B041343181C0EF07DF83B68AF
:400780001B891A1C0A4B1A603B685A68084B1B680849081C111C1A1C03F00FFD064B01221A6002E0C04600E0C046BD4605B090BD18140020EC130020E8130020D80000203F
:4007C0000C20002080B586B000AF021CFB1D1A700C23FB1813221A810C23FB180D4A1A60FB1D1B789AB20C23FB189A800A4B0C22B9181A785B781B021A4300231204120CD1
:400800001B0C1B041343181C0DF0D8FFBD4606B080BDC046501400200C20002090B583B000AF2F4B181C0021142203F0CFFC2C4B23221A702A4B00225A70294B0F229A7008
:40084000FB1D00221A7020E003F0C8FC021C3B1D1A80FB1D1B785B003A1D1288120A92B2D1B2204AD3180A1CDA71FB1D1B785B0001333A1D1288D1B21A4AD3180A1CDA71DF
:40088000FB1D1A78FB1D01321A70FB1D1B78032BDAD9154A134B101C191C0F2203F08DFC124A134B101C10211A1C082300F0BAFABC1C0B4B181C122100F0AAF9031C23805C
:4008C000BB1C1B881B0A9BB2DAB2054B9A74BB1C1B88DAB2024BDA74BD4603B090BDC04650140020EC04002053140020D40400205A14002090B585B000AF021CFB1D1A70EE
:40090000BB1D0A1C1A70174B181C0021142203F05DFC144BFA1D12781A70124B00225A70104B01229A700F4BBA1D1278DA700E23FC180C4B181C042100F06AF9031C23808C
:400940000E23FB181B881B0A9BB2DAB2054B1A710E23FB181B88DAB2024B5A71BD4605B090BDC0465014002090B583B000AFBB1D00221A801B4B01221A701A4B08225A7076
:40098000184A0221184B521810330424101C191C221C03F012FC134B01229A71114B0022DA71BC1DFFF73AFE031C23800D4B0E221A720C4B00225A720C4B181C082100F0BF
:4009C00087F9031C1A1C074B9A72064B5A787B1D03321A707B1D1B78181CFFF7F3FEBD4603B090BD50140020D40400205214002080B584B000AF021CFB1D1A70BB1D0A1C29
:400A00001A70124BFA1D12781A70104B01225A700E4BBA1D12789A700C4B5B780C4A101C191C00F055F9031C1A1C084BDA70074B5A780F23FB1803321A700F23FB181B7887
:400A4000181CFFF7BFFEBD4604B080BD501400205214002080B582B000AF124B04221A70104B02225A700F4B01229A700D4B0122DA700C4B5B780C4A101C191C00F028F9E7
:400A8000031C1A1C074B1A71064B5A78FB1D03321A70FB1D1B78181CFFF794FEBD4602B080BDC046501400205214002080B500AF024B01221A70BD4680BDC046BF0400209A
:400AC00090B587B000AF3A4B1B68002B6DD0384B00221A60374B1B68391C374A081C111C1A1C03F06AFB354B181C0021142203F06DFB1723FB183A1C12781A701623FB1819
:400B00003A1C52781A701523FC183B1C9A1C1623FB181B78101C191C00F0DAF8031C23701623FB181B789A1C1423FB18391C8A5C1A701723FB181B78072B35D89A00204B36
:400B4000D3181B689F46FFF70FFF2EE01D4A3B1C022110325B180824101C191C221C03F02CFB1723FB181B78181C0121FFF740FF1BE0FFF76FFF18E01723FB181B78181CBF
:400B80000121FFF735FF10E01723FB181B78181C0121FFF72DFF08E01723FB181B78181C0121FFF725FF00E0C046BD4607B090BDE813002018140020EC1300205014002072
:400BC000803B0100DC00002080B500AF0E4B1B78012B04D0022B08D0002B12D012E0FFF71DFE094B00221A700CE0074B00221A70064B6C221021995407200021FFF77AFEBB
:400C000000E0C046BD4680BDBE040020B414002080B584B000AF78600A1CFB1C1A700E23FB18012252421A807B68BB6039E0BB685A1CBA601B7899B20E23FB180E22BA188A
:400C400012884A401A800D23FB1800221A7023E00E23FB181B88012213400FD00E23FB180E22BA18128852081A800E23FB180E22BA18128815494A401A8006E00E23FB1828
:400C80000E22BA18128852081A800D23FB181A780D23FB1801321A700D23FB181B78072BD6D9FB1C1B78FA1C591E1170002BBED10E23FB180E22BA1812881A800E23FB18E8
:400CC0001B88181CBD4604B080BDC04601A0FFFF80B584B000AF78600A1CFB1C1A700F23FB1800221A700E23FB1800221A7013E00E23FB181B787A68D31819780F23FB187F
:400D00000F22BA1812784A401A700E23FB181A780E23FB1801321A700E23FA18FB1C12781B789A42E4D30F23FB181B78181CBD4604B080BD80B584B000AF0023BB600023B8
:400D4000FB6009E0FB68D9B2204AFB68D3180A1C1A70FB680133FB60FB681F2BF2DD0023FB602CE0194AFB68D3181B781A1CBB68D3181749FA688A1812789B18154A134006
:400D800004D5013B2022524213430133BB60FB1D0E49FA688A1812781A700C4ABB68D31819780A4AFB68D3180A1C1A70074ABB68D318FA1D12781A70FB680133FB60FB68F6
:400DC0001F2BCFDDBD4604B080BDC04684140020641400201F00008080B584B000AF78600A1CFB1C1A700023FB6013E0FB1C1B78FA68101C191C03F06FF90B1C1A1C7B68E4
:400E00009B181978064AFB68D3180A1C1A70FB680133FB60FB681F2BE8DDBD4604B080BD6414002080B58AB000AFF8607A603B600B23FB180A1C1A7000237B6200233B6294
:400E40000023FB617B68BB617B68002B02D03B68002B00DC5EE0FA680B23FB181B78101C191CFFF7B9FFFFF765FF4FE07B6A01332A4A134004D5013B202252421343013309
:400E80007B62274A7B6AD3181B781A1C3B6AD318224A134004D5013B20225242134301333B621723FB181E497A6A8A1812781A701B4A3B6AD3181978194A7B6AD3180A1CBD
:400EC0001A70174A3B6AD3181722BA1812781A70134A7B6AD3181B78191C114A3B6AD3181B78CB181F2213403B61FB697A68D318FA69B9698A18117809483A6982181278D9
:400F00004A40D2B21A70FB690133FB61FA693B689A42ABDBBD460AB080BDC0461F0000808414002080B584B000AF78600A1CFB1C1A700F23FB1800221A700AE07B685A1C7B
:400F40007A6019780F23FB180F22BA1812788A181A70FB1C1B78FA1C591E1170002BEDD10F23FB181B78DB43DBB2181CBD4604B080BDC04680B582B000AF021CFB1D1A70E0
:400F8000FB1D1B78092B04D8FB1D1B783033DBB203E0FB1D1B783733DBB2181CBD4602B080BDC04680B582B000AF021CFB1D1A70FB1D1B78052B00D9E5E09A00774BD31894
:400FC0001B689F46764B1B88002B02D1012002F08BFA734B1B8801339AB2714B1A80704B1A88FA239B009A420BD96D4B00221A80002002F079FA6B4B1A7807218A431A70C3
:40100000C8E0C7E0664B1B88002B03D0644B1B88C82B04D1012002F067FA02F093FC604B1B88642B04D1002002F05EFA02F09CFC5B4B1B8801339AB2594B1A80584B1A880E
:401040002C23FF339A420DD9554B00221A80002002F04AFA02F088FC524B1A7807218A431A7097E096E04E4B1B88002B09D04C4B1B88C82B05D04A4B1A88C8235B009A42CF
:4010800002D1012002F006F9454B1B88642B05D0434B1A8896235B009A4202D1002002F0F9F83F4B1B8801339AB23D4B1A803C4B1A88F423FF339A420BD9394B00221A807D
:4010C000002002F0E7F8374B1A7807218A431A7060E05FE0324B1B88002B03D0304B1B88C82B02D1012002F0D5F82D4B1B88642B02D1002002F0CEF8294B1B8801339AB21F
:40110000274B1A80264B1A882C23FF339A420BD9234B00221A80002002F0BCF8214B1A7807218A431A7035E034E01D4B1B88181C642102F0E1FE0B1C9BB2002B13D1184B3E
:401140001B88181C642102F051FE031C9BB2012213409BB2002B03D1012002F09BF802E0002002F097F80E4B1B8801339AB20C4B1A800B4B1B880C4A934203D9084B002299
:401180001A8007E006E0064B00221A80002002F081F8C046BD4602B080BDC046C03B0100C4040020D0040020E703000080B5A2B000AF78600A1CFB1C1A700823FB181A1C27
:4011C0008023101C00211A1C03F000F8FB1C1B780822B9187A68081C111C1A1C02F0EDFF044A0823FB18101C191C00F09FFDBD4622B080BDFE03000080B586B000AFF860F4
:40120000B960FB1D1A701723FB1800221A701723FB1800221A7011E01723FB181A78FB68D3181A78BB681A70BB680133BB601723FB181A781723FB1801321A701723FA18FD
:40124000FB1D12781B789A42E6D3BD4606B080BD80B500AF104BDB8801339AB20E4BDA800D4BDA88FA239B009A4212D90A4B0022DA80094B1B8901339AB2074B1A81064B19
:401280001B89772B05D9044B00221A81002002F077F9BD4680BDC046C404002090B583B000AF1C4A1C4B101C191C1622FFF7A4FFFC1D194B181C1521FFF734FE031C237067
:4012C000154B5B7DFA1D12789A421FD0124B134A13CA13C312681A600F4B01221A740E4B02225A740C4B03229A740B4B0422DA74094B181C1521FFF715FE031C1A1C064BD2
:401300005A75054B181C1621FFF750FFBD4603B090BDC04600FF0100D4040020B03B010090B583B000AF7A4B69229B5C002B00D1A8E0774B692200219954764B0022DA8067
:40134000744B00221A81724B64229B5C023B704AD35C9BB21B0299B26D4B64229B5C013B6B4AD35C9AB2BB1D8A181A80684B64229B5C023BDBB23C1D654A101C191CFFF7CE
:4013800047FC031C2380BA1D3B1D12881B889A4272D1FB1C5E4A12781A70FB1C1B780A2B69D89A005C4BD3181B689F46594B00225A805A4B1A7810218A431A70554B0022F5
:4013C0001A715749524B03229B180422081C191C02F0F3FE524A4E4B072104325B180224101C191C221C02F0E8FE494B5A7A4C4B9A714A4B1B7808221340DBB2002B02D10E
:40140000484B01221A70FFF751FB35E0404B6C220621995430E0444A444B101C08211A1C0A23FFF7FFFC4249394B02229B180822081C191C02F0C1FE354B6C2207219954D5
:401440001AE0334B6C220821995415E0304B6C2200219954334B02221A70304B1A7807218A43111C02220A431A702C4B1A7808210A431A7000E0C046254B181C00212822F0
:4014800002F0A4FE224B68229B5C642B11D9204B6822002199541E4B6722002199541C4B6522002199541A4B181C0021282202F08DFE1A4B1B7810221340DBB2002B23D089
:4014C000144B5B8801339AB2124B5A80114B5B88642B0DD90F4B00225A800E4B1B790133DAB20C4B1A710D4B1A7810218A431A70084B1B79022B07D9064B00221A71074BA4
:401500001A7808218A431A70BD4603B090BDC046B4140020C4040020D83B0100D0040020EC040020BE040020F4000020B6140020A414002080B500AF524B6C229B5C112BAE
:4015400000D99BE09A00504BD3181B689F464D4B6E229B5A013399B24A4B6E229952494B6E229A5A2C23FF339A420BD9454B6E220021995200F090F8444B1A7810210A4347
:401580001A707CE07BE03F4B6E229B5A013399B23C4B6E2299523B4B6E229B5A632B06D9384B6E220021995200F0AAF867E066E0344B6E229B5A013399B2324B6E22995229
:4015C000304B6E229B5A324A934208D92D4B6E22002199522B4B6C22032199544FE04EE0284B6E229B5A013399B2264B6E229952244B6E229B5A264A934222D9214B6E22A0
:40160000002199521F4B70229B5C022B10D81D4B70229B5C0133D9B21A4B70229954194B6B229B5C1B4A101C191C00F00DFA08E0144B702200219954124B6C22112199546C
:401640001DE01CE000F05CF80E4B6C220121995415E000F0ABF80B4B6C22012199540EE000F008F9074B6C220121995407E000F057F9044B6C220121995400E0C046BD46F2
:4016800080BDC046B4140020043C0100D0040020E7030000DC14002090B583B000AF164B282201219954144B292200219954BC1D124B181C0221FFF7ABFA031C2380BB1D75
:4016C0001B881B0A9BB2D9B20B4B2A229954BB1D1B88D9B2084B2B229954074B6B2204219954054B6B229B5C044A101C191C00F0ABF9BD4603B090BDB4140020DC14002025
:4017000090B583B000AF254B282204219954234B292202219954BC1D214B181C0221FFF777FA031C2380BB1D1B881B0A9BB2D9B21A4B2A229954BB1D1B88D9B2174B2B225D
:401740009954184A184B101C10211A1C0223FFF769FBBC1D124B181C0421FFF759FA031C2380BB1D1B881B0A9BB2D9B20B4B2C229954BB1D1B88D9B2084B2D229954074B1B
:401780006B2206219954054B6B229B5C044A101C191C00F059F9BD4603B090BDB4140020DC140020D4040020DE14002090B583B000AF2B4B282203219954294B29220B21DB
:4017C0009954274B2A2227499B180822181C02F0F4FC234B322200219954BC1D224B181C0B21FFF715FA031C2380BB1D1B881B0A9BB2D9B21A4B33229954BB1D1B88D9B279
:40180000174B34229954194A194B101C10211A1C0B23FFF707FBBC1D134B181C0D21FFF7F7F9031C2380BB1D1B881B0A9BB2D9B20B4B35229954BB1D1B88D9B2084B36227F
:401840009954074B6B220F219954054B6B229B5C054A101C191C00F0F7F8BD4603B090BDB4140020F4000020DC140020D4040020DE14002090B583B000AF254B28220621FB
:401880009954234B292202219954BC1D214B181C0221FFF7BDF9031C2380BB1D1B881B0A9BB2D9B21A4B2A229954BB1D1B88D9B2174B2B229954184A184B101C08211A1C60
:4018C0000223FFF7AFFABC1D124B181C0421FFF79FF9031C2380BB1D1B881B0A9BB2D9B20B4B2C229954BB1D1B88D9B2084B2D229954074B6B2206219954054B6B229B5CE0
:40190000044A101C191C00F09FF8BD4603B090BDB4140020DC140020A4140020DE14002090B585B000AF3A1D404B111C1A1C0723081C111C1A1C02F040FC3D4B2822072145
:4019400099543B4B292220219954394B2A2239499B181022181C02F030FC354B3A22391D9B180722181C02F028FC314A4121324B521810330424101C191C221C02F01DFCC1
:401980002B4B412200219954294B422200219954274B4722012199540E23FC18274B181C2021FFF735F9031C23800E23FB181B881B0A9BB2D9B21E4B482299540E23FB1876
:4019C0001B88D9B21A4B492299541D4A1D4B101C08211A1C2023FFF725FA0E23FC18174B181C2221FFF714F9031C23800E23FB181B881B0A9BB2D9B20D4B4A2299540E23A1
:401A0000FB181B88D9B20A4B4B229954084B6B2224219954064B6B229B5C084A101C191C00F012F8BD4605B090BDC0464C3C0100B4140020A03B0100D4040020DC140020C2
:401A4000A4140020DE14002080B584B000AF78600A1CFB1C1A70134B7222012199540F23FB1800221A700FE00F23FB181B787A68D3181B78181C01F013FB0F23FB181A78A2
:401A80000F23FB1801321A700F23FA18FB1C12781B789A42E8D3034B6E2200219952BD4604B080BDB414002080B500AFFEE7C04680B584B000AF78600F4B1A687B68D318E6
:401AC0001A1C0E4BD31A802B09DC0B4B1B68FB60094B1A687B68D218074B1A6007E002F031FB031C0C221A6001235B42FB60FB68181CBD4604B080BDFC0000202020002048
:401B000080B586B000AF224B7B61224B3B61204B7B6135E03B691B68FB603B695B68BB603B699B683B6000237B600CE0FB681A68BB681A60BB680433BB60FB680433FB60C1
:401B40007B6804337B607A683B689A42EED13B69DB683B6000237B6008E0BB6800221A60BB680433BB607B6804337B607A683B689A42F2D13B6910333B617B69013B7B611C
:401B80007B69002BC6D102F0E3FAFEF78FFCFEE7010000000041010080B582B000AF154B144A126801218A431A6000237B600FE07B68032B04D8104B7A689200D35800E09D
:401BC0000E4B0F4A796889008B507B6801337B607B682F2BECD9FEF7C7FA0A4B00221A60044B044A126801210A431A60BD4602B080BDC0460000104000000000A91A000048
:401C000000000020C000002080B582B000AF786039607A683B68101C00211A1C02F0D6FABD4602B080BDC04680B586B000AF7860396000233B6100237B612FE07B699B0084
:401C40007A68D3181B68BB600F23FB18BA681A70BB68FF229343BB6018E03B695B003A68D3181B781A1CBB68D318191C3B695B003A68D3185B780B703B6901333B610F23C3
:401C8000FB181A780F23FB18013A1A700F23FB181B78002BE1D17B6901337B617B69002BCCD0BD4606B080BD80B500AF0A4B03221A600A4B03221A60094B802212061A60D7
:401CC000084B10221A60084B00221A60012000F00DF8BD4680BDC046300030403000314000003A4000033A40000E3F4080B584B000AF021CFB1D1A700B4B1B68FB60FB1DB1
:401D00001B78002B05D0FB68802212061343FB6003E0FB685B005B08FB60034BFA681A60BD4604B080BDC04680033A4090B5A9B000AF7860396000239822BA1813600023BF
:401D40009422BA1813607B684D4A934200D98CE03B68002B00D188E00C23FB1808331A1C3B68101C191C802202F027FA7B68454A934201D9444A00E0444A0C23FB181A6088
:401D80000C23FB187F225A60414B0C22BA181A60404B414A1A603E4B1B681B0F1A07A0231B069A4204D03A4B1B680F22134000E000239822BA1813609823FB181B68002BFB
:401DC00052D19F23FC1801F0ACFE031C237000F069F8031C9422BA1813609423FB181B68002B05D100F08EF8031C9822BA1813609823FB181B68002B24D10C23FB18274A2C
:401E00001A600C23FB181A687B681B041A430C23FB181A601E4B0C22BA181A601D4B204A1A601B4B1B681B0F1A07A0231B069A4204D0174B1B680F22134000E0002398222C
:401E4000BA1813609423FB181B68002B05D100F081F8031C9422BA1813609F23FB181B78181C01F062FE04E003E004239822BA1813609823FB181B68181CBD4629B090BDC4
:401E8000FF030000FF010000B6D70001B6D70000080010400400104004000080B6D800000500008080B584B000AF0023FB603B1D0F4A1A600F4A3B1D5A600F4B3A1D1A606B
:401EC0000E4B0F4A1A600C4B1B681B0F1A07A0231B069A4204D0084B1B680F22134000E00023FB60FB68181CBD4604B080BDC046B6E9000000050020080010400400104044
:401F00001600008080B582B000AF00237B600D4B0D4A1A600D4B0E4A1A600A4B1B681B0F1A07A0231B069A4204D0064B1B680F22134000E000237B607B68181CBD4602B0EB
:401F400080BDC04608001040B6E80000040010401500008080B584B000AF0023FB603B1D0F4A1A600F4A3B1D5A600F4B3A1D1A600E4B0F4A1A600C4B1B681B0F1A07A023D4
:401F80001B069A4204D0084B1B680F22134000E00023FB60FB68181CBD4604B080BDC046B6EA00000005002008001040040010401700008090B58BB000AF78602723FC189A
:401FC00001F0AFFD031C2370184B1A680C23FB181A60174B1A680C23FB185A607B68033B144AD35C1A1C0C23FB189A60124B1A680C23FB18DA601C23FB18104A1A600C2341
:40200000FA181C23FB185A600D4B1C22BA181A600C4B0D4A1A600A4B1B682723FB181B78181C01F082FDBD460BB090BD08010B4000010B40683C010030001040B6EA00009C
:4020400008001040040010401700008080B584B000AF78600023FB60154B154A126801210A431A60134B144A1A60144B134A1268802109020A431A607B68002B12D010238B
:40208000FB600CE0012000F0F7F800F019F8031E02D00023FB6005E07B68013B7B607B68002BEFD1FB68181CBD4604B080BDC04660F02E4078002E400220000010002E40E5
:4020C00080B500AF034B1B6801221340181CBD4680BDC0460C002E4080B584B000AF021C3960FB1D1A7080239B05FB60FB1D1B781F2B02D9002000F091F8FB1D1B7810335B
:402100009B00FA68D3181B68BB60FB1D1B7810339B00FA68D3183A681A60BB68181CBD4604B080BD90B587B000AF021CFB1D1A70BB1D0A1C1A70BB1D1B78032B02D90020D5
:4021400000F06CF8FB1D1B781F2B02D9002000F065F8FB1D1B7803221340DB0006337B611323FC1801F0DDFC031C2370FB1D1B789B08DBB29B00144A944663441B68FB60C2
:402180007B6903229A40131CDA43FB681340FB60BB1D1A787B699A40131CFA681343FB60FB1D1B789B08DBB29B00074A94466344FA681A601323FB181B78181C01F0B5FC9F
:4021C000BD4607B090BDC04600E400E080B582B000AF021CFB1D1A70054BFA1D12781F210A40012191400A1C1A60BD4602B080BD00E100E080B582B000AF021CFB1D1A70A1
:40220000054BFA1D12781F210A40012191400A1C1A60BD4602B080BD80E100E080B582B000AF021CFB1D1A7001BEBD4602B080BD80B582B000AF786009E00C4B1B68181CF1
:4022400001F066FC7B680A4A944663447B607A6880231B029A42F0D8064B1B687A685343181C01F055FCBD4602B080BD0C0100200080FFFF0401002080B582B000AF021C7A
:40228000BB1D1A80BB1D1B88044A12785343181C01F03EFCBD4602B080BDC0460801002080B500AF0E4B0E4A126801218A431A600B4B0B4A126802218A431A60094B094A95
:4022C000126830218A4310210A431A60054B054A126807218A4301210A431A60BD4680BD00F02E4000FF2E4080B500AF0E4B0E4A126802218A431A600C4B0C4A1268072184
:402300008A4302210A431A60084B084A126830218A4320210A431A60034B034A126801210A431A60BD4680BD00F02E4000FF2E4080B500AFFFF7B4FF044B044A1268802153
:4023400009060A431A60BD4680BDC04600F02E4080B584B000AF78600C4B1B6801221340FB607B68002B02D0012B03D005E0FFF797FF06E0FFF7B8FF03E00020FFF74EFF1F
:40238000C046FB68181CBD4604B080BD00F02E4090B583B000AFFC1D01F0C3FB031C2370074B074A1268C02109020A431A60FB1D1B78181C01F0B9FBBD4603B090BDC04630
:4023C00000010B4080B500AF054B1A68C0231B02134001D0012300E00023181CBD4680BD00010B4090B583B000AFFC1D01F099FB031C23700C4B0C4A12680C490A408021F2
:40240000C9010A431A60084B074A126807490A40802109020A431A60FB1D1B78181C01F084FBBD4603B090BD00010B40FF3FFFFF90B585B000AF78600B23FC1801F071FB66
:40244000031C2370FFF7BEFF031E04D00123FB60FFF7C8FF01E00023FB607B680D4A13407B600D4B0C4A12680C4911407A680A431A60094B1B68FB68012B01D1FFF788FFD3
:402480000B23FB181B78181C01F04FFBBD4605B090BDC0460404040010020B40FBFBFBFF80B500AF334B1B68042213401FD0324B1B680422134017D0304B1B680422134051
:4024C000DA432D4B1B681A402B4B1A602B4B1B68042293431A1C294B1A60294B1B68002B02D0274B1B6898470420FFF7A1FF214B1A688023DB00134022D01F4B1A6880239F
:40250000DB00134017D01D4B1A688023DB001340DA43194B1B681A40174B1A60174B1B68184A1A40154B1A60154B5B68002B02D0134B5B6898478023DB00181CFFF778FFD7
:402540000C4B1A688023DB02134011D00A4B1A688023DB02134006D0094B9B68002B02D0074B9B6898478023DB02181CFFF760FFBD4680BD10020B401001002018050020B2
:402580001C050020FFFBFFFF80B500AF094B00221A70094B00221A70084B00221A7000F013F8074B00221A70064B00221A70BD4680BDC0460F200020082000200E200020DE
:4025C00030150020FC1F002080B500AF00F006FDBD4680BDF0B58FB004AF78602623FB1800221A800C23FA18284B111C1A1C1823081C111C1A1C01F0E0FD254B1B78002BC8
:4026000004D1FFF7C1FF224B01221A707B68002B30D02623FB181B88002B2FD11D4B7A681A602623FC181C491C4A1D4E0C23FD18062300931B4B01936E23FF330293081CF0
:40264000111C321C2B1C01F093FE031C23802623FB181B88002B11D1134B01221A702623FC18124B181C14210C220CF01FFE031C238003E02623FB1801221A802623FB18B9
:402680001B88181CBD460BB0F0BDC046703E01002C05002034150020692C000038150020C40A00008047010006200020483F010090B585B000AF021CFB1D1A70FB1D1B786F
:4026C000022B04D90E23FB1801221A804BE0294B1B78042B42D1284B1B78DBB21A1C042313403BD1FB1D1B78002B0BD1234B0A221A82224B5B6820221A80204B5B68502278
:402700005A8010E0FB1D1B78012B0CD11B4B96221A821A4B5B68C822D2001A80174B5B688022D2015A80164BFA1D12781A700E23FC18124B181C0AF0FFFE031C23800E2323
:40274000FB181B88002B08D10B4B1B78DBB204221343DAB2084B1A7005E004E00E23FB180422FF321A800E23FB181B88181CBD4605B090BD062000200F200020640100200C
:402780000E20002080B584B000AF78600A1CFB1C1A700023BB60FB1C1B78002B02D1164BBB6001E0154BBB60BB68002B20D07B689A79BB681A700F23FB1800221A7012E092
:4027C0000F23FB181B780133BA68D3180F22BA18127879688A5C1A700F23FB181A780F23FB1801321A700F23FB181B78052BE7D9BD4604B080BDC04637010020540100207A
:4028000080B586B000AF78600A1CFB1C1A701623FB1800221A701523FB1800221A701423FB1800221A70FB1C1B78002B07D15B4B3B610F23FB18594AD27F1A7006E0584BBF
:402840003B610F23FB18564AD27F1A7035E01423FB181B783A69D2181523FB1812781A701523FB181B78002B26D01423FB181A781423FB1801321A701423FB181B783A69BC
:40288000D3181B78082B07D01423FB181B783A69D3181B78092B04D11623FB1801221A7009E01423FB181422B9181522BA18097812788A181A7000E00CE01423FA180F23CF
:4028C000FB1812781B789A4204D21623FB181B78002BBCD01623FB181B78002B5BD01523FB181522B9181422BA18097812788A181A701423FB181A781423FB1801321A70B6
:402900001723FB181422BA1812781A7017E01723FB181B783A69D3181722BA1811781422BA1812788A1A111C7A68521812781A701723FB181A781723FB1801321A7017234F
:40294000FA181523FB1812781B789A420CD21723FB181A781423FB181B78D31A1A1C7B689B181B78002BD2D10DE01723FB181B783A69D31800221A701723FB181A7817232D
:40298000FB1801321A701523FA181723FB1812781B789A42E9D8BD4606B080BD240100204401002080B586B000AF78601623FB1800221A807B68002B4AD02B4B9B6B5B68F5
:4029C0003B61294B9A8E0F23FB181A701523FB1800221A7012E01523FB181B783A69D3181522BA18127879688A1812781A701523FB181A781523FB1801321A701523FA1822
:402A00000F23FB1812781B789A4207D21523FB181B787A68D3181B78002BDCD11523FA180F23FB1812781B789A4206D21523FB181B783A69D31800221A707B68181C0021B9
:402A4000FFF7DEFE7B68181C0121FFF7D9FE03E01623FB1801221A801623FB181B88181CBD4606B080BDC046483F010080B582B000AF78607B681B789AB27B6801331B7891
:402A80009BB21B029BB213439BB2181CBD4602B080BDC04690B585B000AF78600F23FB1800221A707B689B890D22934237D17B681A1D7B680F217C18101C00211A1C4023E4
:402AC0000CF042FC031C23700F23FB181B78002B1DD17B685B68181CFFF7C8FF031C1A1C022313409BB2002B08D0104B1B68822251007A68081C111C984708E00B4B1B689F
:402B00000622FF32111C7A68081C111C9847084B1B78DBB201229343DAB2054B1A700F23FB181B78181CBD4605B090BD341500200F20002090B585B000AF78600F23FC181B
:402B40007B68181CFFF7A6FF031C2370144B1B78DBB21A1C012313401FD10F23FB181B78002B16D00823FB1812229A707B689A890823FB181A800823FB180F22BA181278C7
:402B8000DA707B680822BA181868111C0BF0FAFD03E07B6818680BF06FFEBD4605B090BD0F20002080B582B000AF7860BD4602B080BDC04680B500AF034B00225A70024BFA
:402BC00000221A70BD4680BD0C20002080B582B000AF7860BD4602B080BDC04680B500AFBD4680BD80B584B000AF78600E23FB1800221A707B689B79002B1CD10F23FB185F
:402C000000221A7012E00F23FB181B787A68D35C002B04D00E23FB1801221A700BE00F23FB181A780F23FB1801321A700F23FB181B78052BE7D90E23FB181B78181CBD4683
:402C400004B080BD80B582B000AF021CBB1D1A80BD4602B080BDC04680B582B000AF7860BD4602B080BDC04680B584B000AF021C3960FB1D1A70BB4B1B78DBB201221343CF
:402C8000DAB2B84B1A70FB1D1B78412B00D10EE120DC242B00D1B4E00DDC022B00D18FE002DC012B38D07AE1052B00D18DE0212B00D18FE073E1272B00D1ACE003DC262B84
:402CC00000D1B4E06BE1282B00D1ACE02A2B00D19CE064E14F2B00D13EE10BDC432B00D10BE100DA06E14C2B00D123E14E2B00D134E154E1572B00D132E106DC502B00D1DB
:402D00004CE1542B00D11AE149E1712B00D1C8E0FA2B00D118E142E10C23FB1808221A700C23FB1800225A700C23FB18181C02F064FF0C23FB1808221A700C23FB18012280
:402D40005A700C23FB18181C02F057FF864B1B68181CFFF747FF031E11D0834B1B68181C01F0F4FA804B1B68181C0021FFF70AFD7D4B1B68181C0121FFF704FD19E07B4BAA
:402D80001A787B4B1A707B4B1A78794B5A707A4B1A78774B9A70764B181C01F0D7FA744B181C0021FFF7EEFC714B181C0121FFF7E9FC03200AF082FA704B04221A70EEE0BE
:402DC0003B68181CFFF702FFE9E03B681A786C4B1A70E4E0634B1B78DBB21A1C202313400ED1684B1B78102B02D1664B0522DA70654B1A78634B101C191C0AF067FBCEE0B8
:402E0000CDE03B685A78614B1A70C8E03B68181CFFF722FFC3E03B68181CFFF71DFF574B02221A70BBE0554B04221A70B7E0534B1B78022B34D04B4B1B78DBB21A1C0123D4
:402E400013402DD0474B1B78DBB21A1C042313400BD04A4B03221A70424B1B78DBB204229343DAB23F4B1A701AE03E4B1B78DBB21A1C082313400BD0404B04221A70394B47
:402E80001B78DBB208229343DAB2364B1A7007E03A4B1B78032B03D1384B04221A707EE07DE03B681B88181CFFF7CCFE77E0364A3B68111C1A1C0223081C111C1A1C01F0B8
:402EC0007CF9314B1B781A1C131C5B009B185B006933FF331A1C2E4BD31805332D4A111C1A1C0623081C111C1A1C01F066F9FFF775FE54E0FFF75EFE51E03B685B88162B1F
:402F000005D80E23FB183A6852881A8003E00E23FB1817221A803B680E22BA1811881A8800231204120C1B0C1B041343181C0BF035FC34E03B68181CFFF7FCFD2FE03B68A1
:402F4000181CFFF72FFE2AE0134B1B7801221343DAB2114B1A7022E0C04620E0C0461EE0C0461CE00F200020800100207CF1FF0F780100207DF1FF0F7BF1FF0F06200020C6
:402F800008200020140200200C200020FC1F0020804701000020002030150020C0460D4B1B78DBB21A1C112313400FD0094B1B78DBB201229343DAB2064B1A70064B1B68DD
:402FC000FA1D11783A68081C111C9847BD4604B080BDC0460F2000203415002080B500AFBD4680BD80B500AF00F070F8BD4680BD80B500AF064B064A1268802109060A4311
:403000001A6000F019F800F01FF8BD4680BDC0460000254080B500AF064B1B78002B04D1FFF7E0FF034B01221A70FFF7E1FFBD4680BDC0463005002080B500AF0A20FFF756
:40304000C5F8BD4680BDC04680B500AF00F0A4F8BD4680BD80B582B000AF00237B60044B1B687B607B68181CBD4602B080BDC0464003254080B500AF074B074A1268802183
:4030800049020A431A60044B034A126803490A401A60BD4680BDC04604032540FFFFFEFF80B582B000AF7860C046064B1B681F221340082BF9D0044B7A681A60BD4602B073
:4030C00080BDC046080225404002254080B500AF1E4B1F4A1A601F4B00221A601E4B01221A601E4B1E4A1A601E4B07221A601E4B00221A601D4B01221A601D4B184A1A6096
:403100001C4B00221A601C4B04221A600A20FFF771F80A200321FFF705F8184B0A20191CFEF7DAFF164B00221A60164B00221A60154B00221A60154B00221A60144B0422B4
:403140001A60144B00221A60BD4680BD000025400B00000240002540480025400003254007000080040325401003254044002540000225400402254050002540313B000067
:40318000880E2540C80E2540480F2540080F2540C80F2540880F254080B500AF044B044A1268F0218A4390210A431A60BD4680BD0000024080B500AF00F062F8054B181CE4
:4031C00000F020F8032000F029F800F04FF8BD4680BDC046FD31000080B582B000AF786000F04EF87B68181C00F00CF8032000F015F800F03BF8BD4602B080BD80B500AFA0
:40320000BD4680BD80B582B000AF7860024B7A689A66BD4602B080BD0000002090B585B000AF021CFB1D1A701623FB600B23FC1800F077FC031C23700A4B0A4A12680A49D5
:403240001140FA1D1078FA689040021C0A431A600B23FB181B78181C00F067FCBD4605B090BDC04608E400E0FFFF3FFF80B500AF024B8022D2001A60BD4680BD00E100E0B9
:4032800080B500AF024B8022D2001A60BD4680BD80E100E080B584B000AF021CFB1D1A700E4B1B68DAB20F23FB1820218A431A70FB1D1B785B01DBB220221340D9B20F236B
:4032C000FB180F22BA1812780A431A70034B0F22BA1812781A60BD4604B080BD0002044080B500AF0A4B00221A600A4B0C221A60012000F085F8FA239B00181C00F048F84C
:40330000642000F053F8002000F034F8BD4680BD000120402401204090B583B000AFFC1D00F0FFFB031C2370084B084A126801210A431A60FB1D1B78181C00F0F6FB0120A7
:40334000182100F041F8BD4603B090BD0000204080B500AF064B1B78002B04D1FFF7C0FF034B01221A70FFF7D7FFBD4680BDC0463805002080B582B000AF7860034B7A6883
:403380001204120C1A60BD4602B080BD0801204080B582B000AF7860034B7A681204120C1A60BD4602B080BD1401204080B582B000AF7860034B7A681204120C1A60BD4602
:4033C00002B080BD0C01204090B585B000AF786039600F23FC1800F0A4FB031C2370074B3A68796891400A1C1A600F23FB181B78181C00F09AFBBD4605B090BD080020400C
:4034000080B582B000AF7860024B7A681A60BD4602B080BD3801204080B582B000AF7860024B7A681A60BD4602B080BD3001204080B582B000AF786000F04CF87B68181C17
:4034400000F008F8032000F013F800F039F8BD4602B080BD80B582B000AF7860034B84217A685A50BD4602B080BDC0460000002090B585B000AF021CFB1D1A700E23FB6031
:403480000B23FC1800F04DFB031C23700A4B0A4A12680A491140FA1D1078FA689040021C0A431A600B23FB181B78181C00F03DFBBD4605B090BDC04610E400E0FF3FFFFF18
:4034C00080B500AF024B802292021A60BD4680BD00E100E080B500AF024B802292021A60BD4680BD80E100E080B584B000AF021CFB1D1A700E4B1B68DAB20F23FB182021C2
:403500008A431A70FB1D1B785B01DBB220221340D9B20F23FB180F22BA1812780A431A70034B0F22BA1812781A60BD4604B080BD0000044080B584B000AF021CFB1D1A7072
:403540000E4B1B68DAB20F23FB1810218A431A70FB1D1B781B01DBB210221340D9B20F23FB180F22BA1812780A431A70034B0F22BA1812781A60BD4604B080BD000004407C
:4035800080B584B000AF021CFB1D1A700E4B1B68DAB20F23FB1808218A431A70FB1D1B78DB00DBB208221340D9B20F23FB180F22BA1812780A431A70034B0F22BA18127867
:4035C0001A60BD4604B080BD0002044080B500AF064B1B78002B04D100F00AF8034B01221A7000F0F1F8BD4680BDC0463905002080B584B000AF0F200321FEF793FD584B52
:403600000F20191CFEF768FD564B01221A60564B1B68002B01DA554900E05549554B554A12680A431A60544B544A1A60544B554A1A60554B00221A60544B554A1A60554BC5
:40364000534A1A60544B544A1268802149020A431A60524B00221A60514B00221A60514B01221A60504B1B687B607B684F4A13407B607B688022920513437B607B68012229
:4036800093437B60484B7A681A600023FB6061E08023DA00DC239B0113407B60FB689B00434A944663447A681A608023DB000122134009D0394B394A1268F9680120884065
:4036C000011C89B20A431A608023DB000222134009D0334B324A1268F96801208840011C89B20A431A608023DA0080239B00134003D080235B00BB6002E080235B01BB600A
:403700008023DA0080235B00134005D1294BFA6852000021D15209E0BB68002B00DA01335B1099B2234BFA685200D152BB68224A5343224A94466344181C214900F0E6FBB8
:40374000031C9BB219B21F4BFA689200D150FB680133FB60FB68002B9AD0BD4604B080BDA138000020003A4080033A40700210537002005300003A4004003A40C4000A8065
:4037800018003A400000FF071C003A4010003A400400040014003A4000033A4028023A4038023A4018023A4030003A40FFFFFFDF80003A401420002010270000E40C000057
:4037C000C81900001020002080B500AF0A4B1B68002B0EDBC046094B1B68002BFBDB064B054A1268802109060A431A600A20FEF743FDBD4680BDC04600003A4008023A40B6
:4038000080B500AF024B01221A60BD4680BDC04624003A4080B584B000AF78600023FB607B680322134011D00B4B1B6801221340FB60FB68002B03D17B6802221340F3D102
:40384000FB68002B02D0044B01221A60FB68181CBD4604B080BDC04610023A4080B584B000AF78607B68002B02D00020FEF7D6FC7B68002B09D17B689B00084A94466344EF
:403880001B681B041B0CFB6001E00023FB60FB689BB21BB2181CBD4604B080BD80013A4080B582B000AF044B1B687B60024B7A681A60BD4602B080BD10023A4080B500AF17
:4038C0000F4B8022D2041A600D4B0D4A12681A60002000F061F80A4B094A12681A60094B0C221A60012000F09DF8074B31221A607D2000F05FF8002000F06AF8BD4680BD7D
:4039000040012040640120406801204090B583B000AFFC1D00F005F9031C2370084B084A126802210A431A60FB1D1B78181C00F0FCF80220182100F059F8BD4603B090BD0D
:403940000000204080B500AF064B1B78002B04D1FFF7B4FF034B01221A70FFF7D7FFBD4680BDC0463A05002090B583B000AFFC1D00F0D7F8031C2370064B064A126802211B
:403980008A431A60FB1D1B78181C00F0CEF8BD4603B090BD0000204080B582B000AF7860034B7A681204120C1A60BD4602B080BD4801204080B582B000AF7860034B7A6843
:4039C0001204120C1A60BD4602B080BD5401204080B582B000AF7860034B7A681204120C1A60BD4602B080BD4C01204090B585B000AF786039600F23FC1800F092F8031C8E
:403A00002370074B3A68796891400A1C1A600F23FB181B78181C00F088F8BD4605B090BD0800204080B582B000AF7860024B7A681A60BD4602B080BD7801204080B582B0FB
:403A400000AF7860024B7A681A60BD4602B080BD7001204080B582B000AF786000F04CF87B68181C00F008F8032000F013F800F039F8BD4602B080BD80B582B000AF78600B
:403A8000034B88217A685A50BD4602B080BDC0460000002090B585B000AF021CFB1D1A701623FB600B23FC1800F03BF8031C23700A4B0A4A12680A491140FA1D1078FA680F
:403AC0009040021C0A431A600B23FB181B78181C00F02BF8BD4605B090BDC04610E400E0FFFF3FFF80B500AF024B8022D2021A60BD4680BD00E100E080B500AF024B8022E6
:403B0000D2021A60BD4680BD80E100E0000000000230800803D00138FDD1C046C046C0467047EFF3108072B6704780F31088704780B500AF044B1B68002B02D0024B1B68C3
:403B40009847BD4680BDC0463405002090B583B000AFFC1DFFF7E5FF031C2370074B074A126804218A431A6030BFFB1D1B78181CFFF7DBFFBD4603B090BDC04610ED00E0EE
:403B800080B582B000AF78600A1CBB1C1A80BB1C1A887B681A60BD4602B080BD80B582B000AF78600A1CBB1C1A80BB1C1A887B681A60BD4602B080BD80B582B000AF304BDA
:403BC0001B78DBB21B022F4A1278D2B213437B602D4B1B78DBB21B022C4A1278D2B213433B603B682A4A934207D17B68072B04D1284B3B6004237B6009E03A68D4231B014A
:403C00009A4204D17B68042B01D1224B3B60224B3A681A60214B7A681A60214B1B78DBB21B02204A1278D2B213437B607A6880239B019A4202D07B68002B01D11A4B7B6055
:403C40001A4B7A681A601A4B1B78DBB21B02194A1278D2B213437B607B68174A934206D07B68164A934202D07B68052B01D1144B7B60144B7A681A60BD4602B080BDC04694
:403C8000D9F0FF0FD8F0FF0FDFF0FF0FDEF0FF0F580B0000580D00006C002E4074002E40DBF0FF0FDAF0FF0F0220000078002E40DDF0FF0FDCF0FF0F0F0F00000505000084
:403CC000050F000080002E4080B582B000AF021CBB1D1A80BB1D1B88181CFEF7CDFABD4602B080BD80B500AF00F066F8BD4680BD80B500AF00F06AF8BD4680BD80B500AFF3
:403D000000F064F8044B181C00F024F8032000F02DF8BD4680BDC046E13D000080B500AF024B181C00F004F8BD4680BDE13D000080B582B000AF786000F048F87B68181C28
:403D400000F008F8032000F011F800F035F8BD4602B080BD80B582B000AF7860024B7A681A67BD4602B080BD0000002090B585B000AF021CFB1D1A700623FB600B23FC18C9
:403D8000FFF7CFFE031C23700A4B0A4A1268C0218A43111CFA1D1078FA689040021C0A431A600B23FB181B78181CFFF7BEFEBD4605B090BD0CE400E080B500AF024B802278
:403DC00052011A60BD4680BD00E100E080B500AF024B802252011A60BD4680BD80E100E080B500AF0FF090FEBD4680BD002243088B4274D303098B425FD3030A8B4244D3A6
:403E0000030B8B4228D3030C8B420DD3FF22090212BA030C8B4202D31212090265D0030B8B4219D300E0090AC30B8B4201D3CB03C01A5241830B8B4201D38B03C01A524155
:403E4000430B8B4201D34B03C01A5241030B8B4201D30B03C01A5241C30A8B4201D3CB02C01A5241830A8B4201D38B02C01A5241430A8B4201D34B02C01A5241030A8B421C
:403E800001D30B02C01A5241CDD2C3098B4201D3CB01C01A524183098B4201D38B01C01A524143098B4201D34B01C01A524103098B4201D30B01C01A5241C3088B4201D311
:403EC000CB00C01A524183088B4201D38B00C01A524143088B4201D34B00C01A5241411A00D20146524110467047FFE701B5002000F0FCF802BDC0460029F7D003B5FFF7AB
:403F000075FF0EBC4243891A1847C04603460B437FD4002243088B4274D303098B425FD3030A8B4244D3030B8B4228D3030C8B420DD3FF22090212BA030C8B4202D31212F0
:403F4000090265D0030B8B4219D300E0090AC30B8B4201D3CB03C01A5241830B8B4201D38B03C01A5241430B8B4201D34B03C01A5241030B8B4201D30B03C01A5241C30AD2
:403F80008B4201D3CB02C01A5241830A8B4201D38B02C01A5241430A8B4201D34B02C01A5241030A8B4201D30B02C01A5241CDD2C3098B4201D3CB01C01A524183098B4290
:403FC00001D38B01C01A524143098B4201D34B01C01A524103098B4201D30B01C01A5241C3088B4201D3CB00C01A524183088B4201D38B00C01A524143088B4201D34B0029
:40400000C01A5241411A00D201465241104670475DE0CA0F00D04942031000D34042534000229C4603098B422DD3030A8B4212D3FC22890112BA030A8B420CD3890192119D
:404040008B4208D3890192118B4204D389013AD0921100E08909C3098B4201D3CB01C01A524183098B4201D38B01C01A524143098B4201D34B01C01A524103098B4201D3FF
:404080000B01C01A5241C3088B4201D3CB00C01A524183088B4201D38B00C01A5241D9D243088B4201D34B00C01A5241411A00D20146634652415B10104601D34042002B7E
:4040C00000D54942704763465B1000D3404201B5002000F00BF802BD0029F8D003B5FFF715FF0EBC4243891A1847C0467047C046F0B54F46464605042D0C2C1CC0B4170412
:40410000160C3F0C9946030C7C4375435F4373437D19260CAD199C46AF4203D980235B029846C4444B465143434324042E0C240C2D0466442C1959188919201C0CBC9046E8
:404140009946F0BD014B18687047C0469C0400200E4B70B500251E1C0D4CE41AA410A54204D0AB00F35898470135F8E70FF0B6FF084B00251E1C084CE41AA410A54204D0B6
:40418000AB00F35898470135F8E770BDE8400100E8400100E8400100F040010030B50024944208D0035D651C0C5DA34201D0181B02E02C1CF4E7002030BD002310B5934283
:4041C00003D0CC5CC4540133F9E710BD031C8218934202D019700133FAE77047154B10B51C68A36B002B15D1182000F033F8124BA0630380114B01224380114B8380114B1B
:40420000C380114B03810523438106338381002302614361A46B0D4A206961690C4BFFF767FF0122002380185941206161614800400810BD9C0400200E330000CDABFFFF0D
:40424000341200006DE6FFFFECDEFFFF2D7F954C2DF4515808B5034B011C186800F004F808BDC0469C040020032370B5CC1C9C430834051C0C2C01D20C2405E0002C03DAD1
:404280000C2300202B6042E08C42F9D3204A1368101C191C002913D00A68121B0DD40B2A02D90A608B181FE08B4202D15A6802601BE04A685A600B1C17E00B1C4968E9E789
:4042C000144E3368002B03D1281C00F025F83060281C211C00F020F8031C421CD0D00322C61C964386420AD11C60181C07210B301A1D8843821A0AD05142995007E0311A7F
:40430000281C00F009F8431CBAD0331CECE770BDE4130020E013002038B50023064C051C081C2360FDF7C4FB431C03D12368002B00D02B6038BDC0461820002010B501F0BC
:40434000FDFB10BD10B500F067F910BD10B50749044609780220002907D1204601F00FFC002802D1204609F093F810BD22030020FFB585B0002568460E9F057339481C4676
:404380000078002802D0082009B0F0BD10990F9801900097029105A807C800F067F80028F2D10120694603AA0D73002C1BD0002113E08B00E55A082D09D91E19B678002EA0
:4043C00005D0083DE55213785B1C137003E0042901D2012003E0491CC9B2B942E9D31178042900D300200028CED110990F9800F057FF002801D00120C6E701F09FFB1A48AF
:404400000599016021888180A188C180A27A0272A17B4172A089012540084843A0810220A073208950432081A5726846037B22460799069800F0A2F80028A5D16846094CA1
:40444000007B607001F082FB00289DD1064806F0F5F9002898D106F011FA002894D1257092E70000180200203C050020FFB53A4F1C4603463F780020364A0A9E0B9D002F35
:4044800012D100290FD0029991420CD3002B0AD0002C08D00999042905D3002E03D0FF216E318D4202D2012004B0F0BD00210A460D463FE08B001E19B678002E36D0E35AEB
:4044C000002B33D073435B199DB20B0000F048F806040E15191D253F2388FF27A678233BEB37BB42DFD2032EDDD31FE0A3880C2BD9D91A4EB342D6D818E02389302BD2D155
:4045000014E0A389482BCED110E0228A134E1346233B223EB342C6D208E0A38A0F4F1E46233E223FBE42BED29342BCD80028BBD1491CC9B2099B9942BCD319461C22514343
:404540004A190449521802998A42ACD8ACE70020EEE70000D808000018020020DCFF000030B47446641E2578641CAB4200D21D46635D5B00E31830BC18470000FFB50F46F0
:4045800006460024384381B01D46800701D0012438E0FFF7C3FBFFF7ABFB00F097FA00282ED100F0D3FB00282AD11849084600F0ABFE0004000C23D13000154E04D03060CB
:4045C000B7800020F0803581AD1DEFB23946039800F046F804000ED1B088F2880837801AF9B280B201F080F9002801D0012407E0E8B200F019F900F031F906490120087033
:4046000000F076FA204605B0F0BD00004D470000480500201A02002010B503480078012801D101F003F810BD1A02002070B5084B0446DA889E8800205518B54206D81D686C
:40464000AA182260DA885118D98070BD032070BD48050020014800897047000048050020F0B587B007460D4600208900009006916846FFF7DBFF844600285DD130480099F7
:404680000160002117E02E4B88001A680629115406D22C4C0419667882185670628805E0C419203CA67A8218567022891B68C018491C4280C9B2A942E5D300242DE0601C3F
:4046C000C2B2059025E01E4FA30039689600581840887118039604904E88B04217D938466F46FE80B6464F786E4677710297049F4F800168039F5E18767879184E7001687D
:40470000764659184E800068029F18184770521CD2B2AA42D7D30598C4B2AC42CFD36046002809D168460699FFF780FF8446002802D1054900980860604607B0F0BD0000DC
:404740001C02002010410100200200207047000010B5002809D005494A68002A05D0011F08788000105801F06DF810BD1C02002010B50446FFF76EFFC0B2801DA0420CD3C0
:4047800007484068002808D0A100405800F0CCFF002801D00470001D10BD002010BD00001C020020F8B516460D460446FFF752FFC0B2801DA04203D20020C0430090F8BD71
:4047C000B2B2E9B2684600F0D5FF0099481C03D0024AA000526811500098F8BD1C020020F8B50746FFF736FF801DC6B20A49002005460C680DE06178002907D06188B942D0
:4048000002D32078FFF7B4FF002804D1241D6D1CEDB2B542EFD3F8BD1C02002010B5002801D0FFF795FF10BD70B506460948002504680BE06178002905D062882078121D75
:404840000023FFF7AFFF241D6D1CEDB2B542F1D370BD00001C020020002070471CB5002469460C70142001902346054A05480CF01FFD04480068401C00D1FF2420461CBDC6
:40488000D9480000240200203EB5124A0146FF2000230124126800290DD0012914D0042908D104206946009308814B8110460CF0FAFC80B23EBD6846009304814381694697
:4048C00010460CF0EBFCF4E768460093048143816946EBE72402002070B545890468416800890300FFF73CFE06240408081D2124002004F079FF1BE0022908D0C8B22A467B
:4049000021460AF07FFF2046FFF788FF10E002202A4621460AF076FF2946204600F00AF806E000200CF0B8F902E020460CF060FD002070BD014B0022DB681847280200209B
:4049400070B5448905680089022803D0032809D0FF2070BD2246094C0023A46829460120A04708E0FFF7EAFC241DA2B200232946022005F046FE002070BD000028020020C2
:40498000704700000248002141600180418070472802002070B50C46002186B016460391012802D0022859D116E003A9012005F080FE01281BD1039D324621462846FFF7B6
:4049C000FCFB0095287801900220694608814E816846FFF7B5FF41E0214D002B686809D0049004A9022005F064FE01281DD0022006B070BD002812D0298840182146FFF7D1
:404A0000DCFB28880024801980B228806988091D884206D12C801348FFF792FF03E00320E6E788421AD96C6018E004986860E278A378110219430B4A698000231060E3566C
:404A40005360032313815181A1788170E178C1706178417021780170042028800020C7E728020020540500203EB515460C46022803D004280CD000203EBD0091019002206E
:404A80006946088107484A8100680CF00CFC07E00AF0B8FE044B0022DB6829462046984701203EBD2402002028020020014AD1609060704728020020034801688068081A62
:404AC0000A214843000970476005002010B5FFF715F9542204490548FFF76FFB03490120C870002010BD00002C4101004008002010B5FFF7F7F810BD70B5134C2368002B69
:404B000008D0207B1149C20705D04008400020738868A08070BD88680B4AA18880B29268814203D90A4D691A091802E0814202D2411A5118A160A080A0689842EAD300F091
:404B400015F80CF0CDFB70BD60050020C0102E40FFFF000010B508461946FFF7A7FF10BD704710B5FFF780FF10BD000003480021016041608160C160704700006005002031
:404B800010B502000DD0FFF7F1FF074C0321207B0843207310010A21FFF7AEF92060002010BDFF2010BD00006005002000B504480A21806848430209FFF7D8FF104600BD3A
:404BC000600500200248007B8007C00F704700006005002010B537490868002802DA364B01221A70022290430860344800693149C00B4031096A08425AD0012000F02AFADC
:404C00002E482F497C30FEF7C9FF2A480E216C30FEF7C4FF294820218430FEF7BFFF274814219C30FEF7BAFF2448FF21C131A430FEF7B4FF2148FF212F31B030FEF7AEFF8C
:404C40001E482049BC30FEF7A9FF1C481E49AC30FEF7A4FF1C491948491CB430FEF79EFF16481A49B830FEF799FF14481849CC30FEF794FF114817490830FEF78FFF0F48BA
:404C80001549A830FEF78AFF0C4814498830FEF785FF0A4812498C30FEF780FF07481921C9029030FEF77AFFFEF786FF002010BDFF2010BD00F02E403802002000002E4086
:404CC00055650000320300002F3F00003102000010520000EC160000FA12000031D000003AE3000070B50646581C80B245086D00002408E0304600F07FF81055000A111943
:404D0000A41C4870A4B2AC42F4D3D80705D0D0182038D15CC47FD454C17770BD30B50A4C002100195B1E07E0541864782502545C2C430480891C89B29942F5DB994201D1E0
:404D4000515C018030BD000000102E4010B5FF2000F080F90F49FF2048700E481021801D41800121417001700A490020C91C4870FFF730FF04000AD100F0CCF807210648B7
:404D8000FEF7FEFE044807211830FEF7F9FE204610BD000038020020CC112E4030B504465B1C1804450C002308E0204600F024F8241D59005B1CA4B250529BB2AB42F4D3E8
:404DC00030BD000070B500210A4D5B1E0AE0541864782602545C344346193480001D891C80B289B29942F2DB994202D1515C4019018070BD00102E40014940180088704784
:404E000000102E40014A80180180704700102E4010B50B490020487000F07CF8002000F03FF9002000F02CF907210648FEF7A8FE044807211830FEF7A3FE002010BD000039
:404E40003B020020CC112E4010B50B46062812D006DC01280CD0032801D1FFF7D9FF10BD0A28FCD00B28FAD105480078107010BDFFF76CFF10BD1146184600F02DF910BD11
:404E80003E020020F8B5204DAC6A0127A0071F4E002816DA307806280ED1286A384328621B480069F903084381B219481030FEF775FE042000F0CEF8134802212830FEF7CE
:404EC0005FFEE00711D0062000F0C4F80F49FF20C91E48707078002802D1686B38436863094801212830FEF74BFEE0050BD53078042802D1052000F0ADF80348FF210131DD
:404F00002830FEF73DFEF8BD40F02E403B02002000002E4010B503212348FEF73FFE0120FEF7D2FE20483038406A204C80076178800F890001431C480C38FEF72FFE60781B
:404F4000002808D0401E022181401820FFF7C4F8C000083800E0B82081B21548FEF71EFE1348032109021438FEF718FE10481149B830FEF713FE612189010F48FEF70EFEC7
:404F80000D480321001FFEF709FE0C490C48FEF705FE0B480B496038FEF700FE084801218838FEF7FBFD10BD70F02E403E020020D8102E4090890000041E2E40FF0F000063
:404FC00058122E40209000000849087806280BD148780749002803D1486B400840004863C86A01221043C862704700003B02002040F02E4001480078704700003B02002003
:4050000000B50300FFF7ACFA080D050D0B070507090D012000BD032000BD042000BD022000BDFF2000BD0000074A9168D26889B2064B92B2994204D105498A4201D1012155
:4050400000E000210170704780002E4033D000003FE3000010B50446FEF74AFE072C01D9FF2C01D102480470FEF73CFE10BD00003B02002001494870704700003802002074
:4050800010B5064A012805D01921C9021046FEF785FD10BD1D21C902F8E7000090002E4010B50A4A141D012808D009491046FEF775FD08492046FEF771FD10BD0449104674
:4050C000891CFEF76BFD0349491DF3E788002E4031D000003AE300000078074AFF2803D04C2804D9553803E01078087070474F3808701070704700003A020020F0B5012279
:40510000002830D000292ED00224420600D003246D2342065B06D21800D0641C034600221EE00C2516466E43104D00277519AF720E4F002ABB51696007D0661EB24209D1E9
:4051400006466D367606760E05E05E06760E8027BE1B00E080269B198919521C2E81D2B2A242DED300221046F0BD0000E0060020074900200C2242435218927A012A05D01D
:40518000401CC0B20428F5D30020704701207047E0060020F8B5044616460F000BD0184D6868A04203D9FF306E30A04203D3FF206E30864201D90120F8BD2046FEF7EEFF46
:4051C00000281BD0324639462046FEF7F6FFF0B200210C224A43521913895668F718A74208D90127A41B1B1B9772834206DAC01A1469C0B2491CC9B20429EAD30020F8BD06
:40520000E006002010B500F05BF80648FF22C1686E320C460448FEF7D0FF03492046FFF76DFF10BD4402002070050020002070470020054A002902D0012902D002E050601B
:4052400000E09060002070474402002070B5084C154608460549A26889182A46FEF7ADFFA0684019A06028B270BD000070050020440200203EB50A226946FFF7E7FF04469E
:4052800006480A2200686946FEF788FF002802D00020C0433EBD20463EBD000044020020002803D0FF226E32914201D2FF20704702490A61C86000207047000044020020AF
:4052C0000248002141608160704700004402002070B5074C15460548626880182A46FFF759FF60684019606028B270BD700500204402002010B503490A220968FFF7E8FFF6
:4053000010BD00004402002010B50F4A002313600E4A13600E4B18600E4801600E49012008600E490860000290600E490C4808600D4914300860FF381538506000F0BCF8B5
:4053400000F0CAF9002010BD70020020580200208402002088020020740200206402002010080020680200207C020020014610B50020002910D0094B1A689C685118A1425A
:4053800009D25868196080188A0704D08A07920F891A091D196010BD002010BD58020020F8B50024164E671E321F3D463168136806E01422624310328A58521C1BD0641CD4
:4053C0009C42F6D36A1C14D02C461422544322460C3288500C214843FFF7C8FF3168002808510AD031680020103408517068401C70602846F8BD2546E4E73846F8BD000090
:4054000068020020F3B50026F64381B000281BDB1E490968884217D80299002914D01B4F142204463F1D54432546396810354859401C09D0FEF75CFC38682F1F4159C3595E
:40544000994203DBFEF74EFC3046FEBD214608310091465801590C20704308180C220299FEF7ABFE0948761C001D0068C159B14200D100260549009A091D8650086841591A
:40548000491C4151FEF72EFC0020FEBD64020020002803DB07490968884202D90020C043704704491422091D09685043103008587047000064020020F0B500200D4A451E26
:4054C0000346171F50600FE014260146714314680E1DA3510C461668083433511668083435511468401C635039688842ECD30020F0BD000068020020F3B50026F64381B0AA
:40550000002841DB2349096888423DD8029900293AD0204F142204463F1D54432546396810354859401C2FD0FEF7E2FB3868415900292BD0211D009146580C210059714397
:405540000F46C1190C220298FEF737FE11480021001D0068761C00590C34C0190160416081600C48001D00680159B14200D100260849009A091D865008684159491E41511D
:40558000FEF7B0FB0020FEBD3046FEBDFEF7AAFBFAE7000064020020FEB504460D4600201E49089E0860471E009001900290002C11D0486885420ED2002A0CD0002E0AD0CF
:4055C000642E08D808460C3001681C2068430C18207A002801D03846FEBD0120226020721846FFF7DDFE6060401C13D06681A6810A4827610C3067610179A94200D2057173
:405600000021684601810A462846029B00F040F82846FEBD00202072DDE700007002002038B50124009400F039F838BDFEB50027164EFF433D4600240EE01C20316860431C
:405640000818017A002906D04068FFF721FF002801D0254603E0641C3079A042EDDA681C12D01C2130684D434419FEF741FB69466068FFF741FF0546FEF734FB002DD9D16D
:40568000216868468847D5E7FEBD00007C02002038B50024009400F001F838BD1FB500220C49541E0A60002811DB496888420ED808491C220C31096850430818406801A96E
:4056C000FFF7A0FE401C02D0002004B010BD2046FBE7000070020020F0B50021114A4D1E174611710C3F0B46BD6016E008461C2460431668041D3551146806462350146846
:405700000836A3551468361DA353044616680A34335318301468491C255078688142E5D30020F0BD7C02002038B500210091002811DB0F49097888420DDA0D4D04010C35A1
:4057400029680859002807D0201D0818694600F071F9002801D0002038BDFEF7C9FA28680F34015D491E0155FEF7BCFA009838BD8C020020F7B582B0002502986E1E0660A9
:405780002E48D21C024017462D4A2C4610460C380178106805E02301C358002B0FD0641CE4B28C42F7D3711C28D03401211D40180191039900F02CF900281FD101E026469E
:4057C000F1E71F48016820460C300F521C480399026820460E30115419480399026820460F3011540398784300F0A0F8144900280968085102D00024009011E001251AE056
:405800000F48016801980818009900F02EF9002801D0012502E00098C0190090641CE4B203988442ECD3002D05D10298066004480179491C0171284605B0F0BDFCFF00009C
:4058400098020020F8B50D4600216A468C461180002839DB23490978884235DA214B04010C3319680A59002A2ED020460C300B5A801C0E5C184670438018954224D3854231
:4058800022D2002006E007465F43BF18AF4206D0401CC0B2B042F6D36046002814D0114E271DC8190C366A46294600F008F900280AD168460088012808D030682946C01936
:4058C00000F0D3F8002803D00120F8BD0020F8BDFEF70EFA30680F34015D491C0155FEF701FAF3E78C020020F8B50F46002400F033F8002817D10C4900220B460C334A60DC
:405900000EE021011D680E466A501D680C36AA53B61C1D680F31AA551D68641C6A54E4B2BC42EED31A71F8BD8C020020014610B5002000290CD0C91C064B8A085968920018
:405940005C888A18A24202D898685A60401810BD002010BD8C020020F8B5064600200F4D009029700C0121466846FEF75FFE00280CD129460C3100980860301B001F84B206
:4059800021466846FEF752FE002801D0FF20F8BD6C800098A8600020F8BD00008C020020F8B5002827DB19490978884223DA174C05010C342168485900281CD028460C309F
:4059C000085A009028460E300E5C401C0E5420682F1DC01900F064F800280CD12068002445590EE0094829460C300068C01900F03CF8002801D00120F8BD00982D18641C1E
:405A0000E4B2B442EED30020F8BD00008C02002030B50D4604000BD0A800FFF787FF6060002805D000202570C0436080002030BD012030BD70B50D46040005D0002D03D09A
:405A40000220205E002801DA012070BDFEF750F90221615E60688900405828606088401E6080FEF73FF9002070BD70B50D46040007D0002D05D002212078615E401E814214
:405A800001DB012070BDFEF733F96088401C00B26080616880000D50FEF724F9002070BD10B5040009D0227800216068FEF78EFB0020C0436080002010BD012010BDF0B59A
:405AC00000231D46002802D00224045F0AE00120F0BD46689F00F6598E4201D1012503E05B1CDBB29C42F4DA15700020F0BD00000148007870470000A00200207CB50546E6
:405B00000024FEF71BFCA8796946087000A8062229460130FEF751FB0021684604F0C2F80C2804D0072804D01F2804D004E0022402E0042400E0272420467CBD10B500F006
:405B4000B7F8FFF757FAFFF75BFA10BD10B503240CF018F8002810D10BF0BCFF00280CD104F0F6FD002808D100F064FA002804D104F0F2FA002800D10024204610BD70B5D3
:405B80000025044600280ED0A07901280BD8FEF7D5FBA0790028204602D002F0D9FD03E002F08EFD00E00125284670BD38B504460120002C20D0617801291DD800290BD0D4
:405BC000FF25E535FEF7BAFB2846FFF715F9C0B22070072803D00EE0FF25CD35F2E70020694608706846FFF71FFA69460878012801D108202070002038BD70B504460120CF
:405C0000002C1FD06178012902D92278092A19D8002905D0FF25E5352078092803D004E0FF25CD35F8E708202070FEF787FB2078082808D00020FFF733FA21782846FFF7DD
:405C4000E1F8002070BD0120FFF72AFA0721F5E770B50D46040001D0002000E00548002802D0012101F0ACFF2946204602F086FA70BD0000B408002038B50546002004467B
:405C8000009022466946284600F070FE0098002801D00BF059FFA878214602F0B3F8A878214602F0A2F8641CE4B2052CE9D338BD38B5FFF79FF9042819D0052817D006288C
:405CC0001AD0032842D007280AD100206946087002460120FFF7B8F8FFF78CF90128FBD138BDFDF733FFFFF785F90128F8D0FFF781F90128F5D138BD02F0ECF805E0FDF72A
:405D000025FFFFF777F9012803D0FFF773F90128F5D1A12424012046FFF76EF801220E4983079B0F0A70022BE5D149880029E2D0104301462046FFF765F82046FFF75CF826
:405D4000410849002046FFF75DF838BD02F0C6F80120FFF77FF938BDA6020020F8B50646002402F0F9FD0546304602F00DFE00210346012632468A40174610462F401840DF
:405D8000002F03D0002801D1224394B2491CC9B20529EFD32046F8BD1CB50020694648706846FFF703FF01AA69460A20FFF74CF86946042008561CBD10B50C4601F07CF90E
:405DC000002809D00179002906D0C1788078224602F082FA002010BD022010BD0148007870470000800800204030C07E002800D00120704700B500F001F800BD8821484319
:405E0000064940186030417F491CC9B24177052901D300214177C8B2704700009408002013B501F049F904000BD001F09CFC002807D0214601AA0A310620FFF705F8002023
:405E40001CBD02201CBD000010B50C4601F034F900280AD001F087FC002806D0224604490A20FEF7F1FF002010BD022010BD000069080020F3B581B0074601460026029847
:405E800002F062FD0446002F01D0002500E0154D002D21D0284601F045F9032C04D13946029802F07BFD06463846029901F09DFF032C06D0002C10D00121384601F020FAF0
:405EC00003E03146384602F01DFF284601F05EFE0221284601F074FEFEBD3846029901F084FFFEBDB408002070B50446002503F013FB002801D00C2070BD2078611C02F040
:405F0000E5FAFF2802D01F25284670BD02F032FBFF2804D02178621C01F0DCFEF4E70725F2E710B503F0F8FA002801D00C2010BD02F0A4FA002010BD70B50D4604461021C2
:405F40000BF042FD1021601806460BF03DFD334610221946204603F00BFB102130460BF033FD02202870204604F04EF870BD70B504464078217802028006850FE078114371
:405F8000A67809050002090D0643084601F094F8002812D0022D10D0032D0ED0002E08D00179092909D0002907D0214600F0A1F870BD0089002103F05CFF20460BF0C4FDA0
:405FC00070BD0020704770B50446002503F0A4FA002801D00C2070BD2078611C02F076FAFF2802D002F0B8F900E01F25284670BD10B504F0B1F800F0F6F8002010BD10B562
:40600000044600786178E2780843A17811430843217908436179084305D003F06FFA002803D00C2010BD122010BD204602F090FB002010BD10B5044803F0D8FA02F096F913
:4060400000F004F8002010BD50080020F8B5114D00266E706E736E716E76AE76EE766E75AE70EE70AE712F46EE730120B03778723F207871FF20B87100F00EFA002420463C
:4060800001F038FB641C2406240EF8D03E72FE71AE73F8BD9408002070B505460E46084602F05AFC0446304602F06EFC0121A9400A46224001400A4301D0012070BD002067
:4060C00070BD10B50446084602F05EFC0121A140014201D0012010BD002010BD10B5FEF789FF032804D101F0F9FE0120FEF7B2FF10BD70B5044600790D4609281CD000289A
:406100001AD020464030817E491C8176204601F03DFDA078FFF76EFE064602462946204600F00CF8002806D1A0783146FFF790FD28460BF009FD70BD0846FAE7F7B5054609
:4061400048780C468006870FC8788978000282B0014368468180284601F010FB060007D021462846049A00F095FB304605B0F0BD384600F03DFC0746034601AA29462046BA
:4061800000F0CEFA68468088231DC0B20090A878FF22049901F0ACFF684680883B46C2B2A878049902F050FBDFE770B5002500242846FFF7D3FD060010D03046E040C00765
:4061C000C00F07D02146284601F003FE21462846FFF750FE641CE4B2052CEED36D1C2D062D0EE4D070BD10B502F0C0F8FFF72EFF0BF012FD002010BDF8B5002400F081F876
:406200000123012800D10124104F00203E4620360425082203E0002801D0002100E031460979002907D001290BD002290BD0114681402143CCB2401C0006000EEBD07C707D
:40624000F8BD1C43F7E72C43F5E700009408002010B5FFF7D1FF10BD10B50B4681791943817103D08078114602F0B2FA10BD10B582798A43827102D1807802F0C1FA10BD1D
:4062800070B5FF25D53502242846FEF7B5FD0C4A9178002901D0022906D1137852789A18282A01D9032402E0032900D101244105490DE00201432846FEF7A4FD70BD0000A4
:4062C000A202002010B500F022F8002807D0012805D0032801D0042801D0002010BD012010BD014610B50020C90701D000F009F810BD014610B50020C90701D000F001F8F9
:4063000010BD10B52020FEF777FD000A10BD10B51820FEF771FD410501D5042010BD4007800F10BD38B5044640060CD5684601F0DBFD0220FFF78CFF072002F033F96846D0
:40634000007801F045F9200613D5FFF7E0FF01280FD1684601F0C8FD6846007800F09EFA072002F01FF9012001F078FC0220FFF76FFF38BD10B5034A0178117002F021F92E
:40638000002010BDA202002010B50446FFF7B9FF002801D00C2010BDA27B01211848002A827801D00A4301E05208520082706279012A0FD0C17849084900C1702079012872
:4063C0000CD06188208802F00BFF2080207904280BD00DE0C2780A43C270EFE7E01D02F09FF90848808C208002E0E01D02F098F9054920798870204602F0F2F8002010BD85
:406400009408002040080020A202002038B50478FFF777FF844201D10C2038BD002C18D0072069460870FFF74DFF012807D10121684600F091F8012801D0092038BD684632
:40644000007802F0AFF8FFF71BFF02F0F6F8012014E0FFF737FF012806D1684601F044FD6846007800F04EFA072002F09BF802F0DBF8FFF746FF0028FBD10220FFF7E8FEFE
:40648000002038BD10B5034A0178517002F078F9002010BDA202002038B568460BF0EAFA002801D01F2038BD01210098C902018041800025057145718571072141738573DE
:4064C00002F08EF8009C202200212046FDF77EFE25702A460021601CFDF778FE204602F070F8204602F04CF900980BF02DFB042200210248FDF76AFE002038BDA202002065
:406500000346084800B5834209D8184600F0D4FD002804D00089984201D1012000BD002000BD0000FF0E0000074A9179491C8906890E917138220A4092014907090E114375
:40654000084302490840704794080020FF0E0000C006C00E70470000F8B507460E4600240D4803E0002C01D0002500E005462979002905D0641C2406240EF3D00020F8BD67
:40658000204601F0B7F82E712046FFF7CDFF28813C700120F8BD0000B408002010B503F01BF80222002100F003F801F087FE10BD10B5094B40074907000F090F185A595ACD
:4065C00040185043C0086421FDF796FC002800D1012080B210BD000080410100F7B53D20405C88B016460C46002829D030786946087200252046FFF7F7FB012800D00125F3
:40660000204603A938300191009023460327A17E34332A46206A03F003F802A8089900900B46019120463A4603A9243002F082FF02466846007A3070204601F047F81046AA
:406640000BB0F0BDFFB587B00C4605461078694608723D20005D1746002826D000262046FFF7C2FB012800D00126204603A93830019100902346A17E34333246206A02F066
:40668000CFFF02A80090291D019120462B1D03A924300A9A02F04EFF02006846007A388002D1204601F012F810460BB0F0BDF7B53C20405C88B015460C4600280CD0287868
:4066C00069460872002806D000262046FFF78CFB012803D003E01F200BB0F0BD0126204603A938300191009023460327E17E34333246E06902F094FF02A8089900900B4656
:40670000019120463A4603A9243002F045FF02466846007A2870204600F0E2FF1046DBE7FFB505463C20405C87B016460C46002810D0084601F022F801280BD030886946AC
:406740000883002809D000272046FFF74DFB012805D005E000200BB0F0BD0220FBE70127204602A93830019100902346E17E34333A46E06902F054FF06A80090291D01913D
:4067800020462B1D02A924300A9A02F005FF02466846008B30806846008BA870000AE870204600F09DFF1046D5E770B50D460446FFF71AFB01280AD0E87AA97A000201430F
:4067C000A07801F04BFC012808D0002070BD00222421204602F04EFC242070BD28214C200155204600F09AFB282070BD002801D0002000E003484030C07F012800D000200A
:4068000070470000B40800200146002049070ED50021084B03E0002901D0002200E01A461279022A04D0491C0906090EF3D0704701207047B40800200146002049070ED59A
:406840000021084B03E0002901D0002200E01A461279022A04D0491C0906090EF3D0704701207047B408002010B5044680346068002803D00BF07CF90020606010BD40300E
:40688000417070474030817070474030017070470171704792001018C166704770B53C2501F0F6F8040004D020460021433001F08FFB2946204600F0C3FB002C02D0A078B4
:4068C00001F078F870BD000010B5002801D0002000E00348002802D0008903F011FB10BDB408002010B5002801D0002000E00448002804D00179072901D100F041F810BD5E
:40690000B408002010B501F0C3F8002802D0807801F050F810BD00207047000070B50546008A00281ED010491122897A1140C90618D5294640314A8A098A521C4A4392B209
:40694000D10800D10121540801E0621A94B2A042FBD9FFF7CDF8012804D1298AA878224601F05AFC70BD00004008002000230B60052A04D292001018C26E0A60C3667047FF
:4069800038B5044600200090A079002814D14020015D052901D00E290ED168460BF07AF8002809D12046009902F04CFB03481021C28A2046FFF750FC38BD000040080020D5
:4069C00010B50B4604460146184602F01BF8002802D020460BF0C2F810BD13B5044601AA11460620FEF730FA6846818861811CBD002800D10220704770470000F8B5044660
:406A00002346401D543300909A1EA078911E01F07AFA25464035A88A298A8000FDF76CFA401E81B2688A884203D96982A07801F04CFF20460021433001F0CAFA8020FEF74A
:406A4000DBF9E88102F0C8FDE989891C8AB26179FFF7AEFD01F032FC02F0BEFD2A8A6179FFF7A6FD074601F01BFC688A00280BD0FF26F1363046FEF7BFF903210902014335
:406A80003046FEF7BFF902E0002001F00CFFFF206130FEF7B1F96E8A002E0BD070431049FDF71AFB0004000C01D0401C80B20D49488002E00B4800214180288A704381B214
:406AC000A07801F06BFE2837B9B2204602F08CFBE98AA07801F0BAFDA07801F0A9F9F8BD71020000A60200207FB504468034616805460E46183108226846FDF75EFB31462E
:406B00002031082202A8FDF758FB102168460AF05BFF6068102108300AF056FF60682B46083024331022694602F022FD7FBD10B504460821FFF79BFB10212046FFF797FB5D
:406B4000207905281FD006281DD008281AD12189002003F04DF9072020712046FFF744F9014620464030012913D00E21017000210176204600F02AFF2046FFF775FE2046C0
:406B8000FFF7CCFE10BD20890122002103F014F9E1E70521EAE70000FFB581B01F4604460821FFF764FB10212046FFF760FB2079082803D0092804D0042203E004220125AC
:406BC00001E009220025204600F0C4FD264600204036307022712046FFF746FE0398002D02D0012808D00BE001280AD120890022029903F0E1F804E02189029803F0F8F8B1
:406C0000012700203076012F04D0204600F0DEFE05B0F0BD02983073204602F057FA054605480121C28A2046FFF716FB002DEFD109202071ECE700004008002070B50C461C
:406C40000546FFF7D1F8012809D108212846FFF70EFB0023012221462846FFF79DFF70BD10B5044600F076FD2046FFF7FDFD00214034217010BD70B505461A24FFF7B4F88C
:406C8000012809D108212846FFF7F1FA0023012221462846FFF780FF70BD0000F8B50446002000900E4668460AF0F4FE002801D00D20F8BD8420005908212030009D00F029
:406CC000F7F920460421383000F0F2F9002E02D1204600F07DFD2946204602F043F90E480821C28A2046FFF7B7FA204600F0D5FE25464035002808D0204600F023F8002888
:406D000001D0092028700020F8BD08202870204600F03CFFF7E7000040080020014610B540310A460978082906D0092907D00A2901D100F091F810BD0B20107010BD00F044
:406D400001F810BD70B50446007925464035052805D0062803D008280FD00C2070BD03220621204602F086F90D480821C28A2046FFF772FA1120287010E006202873204685
:406D800002F0A4F90646AA8A0A20424301212046FFF762FA002E01D109202071002070BD4008002038B504460020009068460AF071FE002801D00D2038BD2046009D00F0C0
:406DC0008DF908202071204600F002FD2946204602F0FAF800213D2001550F2040210855204600F0D3FE002038BD00B5024600F0B1FC10214032117000BD10B50446FEF7CA
:406E0000F3FF012809D04020005D112805D100231A4606212046FFF7BFFE10BD10B5FFF786FE10BD38B504460021684600910AF031FE00280CD12046009902F03CF90548BE
:406E40000821C28A2046FFF707FA0D204034207038BD00004008002038B504460021684600910AF017FE002801D00D2038BD2046009902F015F905480821C28A2046FFF7D4
:406E8000EBF90C2040342070002038BD4008002000787047F8B50025002801D0002400E01A4C002C28D0204600F05DFC002823D0207903281CD005281CD026464036B18A09
:406EC000A07801F079FCB078012815D10021204601F0B5FD274680373868002802D00AF047FE3D600020B0702079072805D007E0042000E006202071F8BD2046FFF70EFD7E
:406F00000221204600F05CFEF8BD0000B408002010B54C22115400F046F810BD10B50446FF21FFF7A4F909202071A07801F074FC10BD000038B5FF216A461180002801D051
:406F4000002400E0064C002C08D011460620FDF77BFF684601882046FFF73FFD38BD0000B408002010B504468079002809D022214C200155FF212046FFF779F9204600F0DA
:406F800012F810BD10B5037902464032002B03D01173092B02D003E0002100E02221117300F001F810BDFEB504460089002700902781207926464036002817D0012815D099
:406FC00002280AD112E002AA01A9204601F008FD002807D101980AF0C1FD204601F028FD0028F0D02046FEF747FEB776254680352868002802D00AF0BBFD2F606868002883
:4070000002D00AF0B5FD6F60317B002915D0009800F047F8A078002100F01EFF2046FFF7BDFAA07801F004F8A07800F0C3FC0B20FFF70EF900F002FCFEBD1F213173E6E7DB
:4070400070B50E46054602F0C3FA044606702846FEF7CAFE014601204140204661700C3000F09FFF002D10D02889608028464030C1782171002E10D169796171018AE180D2
:40708000418A2181808A608107E01820FDF7B4FEC005C00F207100206080204602F051FE70BD0A4610B50146002002F041FF10BD10B50AF065FA10BD00B50146FFF748FA20
:4070C000002801D0002000E00348002802D002898A4200D0002000BDB408002038B5044680346068002806D168460AF0E3FC002801D100986060606838BD000010B501461E
:4071000000F03CFB0128887802D0FEF777FE10BD88214843024940186030007F10BD00009408002070B5054604464035A87F012811D1A1788820084A484380186030067FDB
:407140003046FEF7A9FF002805D10220A877A078314601F021F870BD9408002010B50E4CE079002816D0FFF720F80C48827FC17F808B00F06BFB01280CD10020E07100F04A
:40718000BCFE0446AC20FDF737FE010B02D0204600F00EFA10BD0000440900209408002070477047490510B5490F0B00FDF7D8F9060704080C0C0F073E21FFF7A9FE10BDEB
:4071C0000821FFF7DFFE10BDFFF7EDFE10BDFFF7C9FE10BDF8B507460025002D01D0002600E0204E00F064FE3046403044890021418100F067FE304600F0B5FA01282BD186
:40720000A00702D52846FFF745FEE00602D52846FFF790FEA00601D5FEF7C7FF600601D500F0C8FA200602D5284600F01DF8600702D5284600F0FAF9380402D52846FFF7DF
