:400000000040002011000000791E0000791E000080B500AF01F05CFF80B500AF2B4B12221A6002F04FFB2A4B181C02F039F8012002F058FB302002F087F9264B264A1A605E
:40004000264B8022D2051A60254B254A126802210A431A60234B244A1A60244B234A126808218A431A60FA23DB00181C02F0B8F91F4B181C02F0CAFA1E4BBC2292011A6046
:400080001D4B1E4A1A601E4BC82252011A601A4B1C4A1A601C4B802212061A601B4B8022D2021A601A4B41221A601A4B40221A60194B0820191C02F0D9F9082002F050FA34
:4000C000064B8022D2051A60BD4680BD30001040001BB70004010B40060000800C020B4078002E407C002E402D3E00006CF02E40DC050000040301400000014041FF0080CC
:400100000003014040FF008008010B4000010B401C010140080101403528000080B582B000AF72B6494B00221A60FB1D00221A7023E0FB1D1A78131C5B009B185B00444A12
:400140009B183B603B681A78597809020A43997809040A43DB781B061343191C3B681A795B791B0213439BB2081C191C01F034FFFB1D1A78FB1D01321A70FB1D1B78012BCC
:40018000D7D9344A344B101C191C01F035FF334B334A1A60334B992212041A60324B802212051A60314B992212041A60304B314A1A60314B992212041A60304B80221206EB
:4001C0001A602F4B992212041A602E4BA02212031A602D4A2C4B1B78DBB202210B43DBB213702A4A294B1B78DBB23C218B43DBB214210B43DBB21370234A234B1B78DBB219
:4002000016210B43DBB21370214B02221A60214B214A1A60214B02221A60214B86221A60204B214A1A60214B9E221A60204B214A1A60214B43221A60204B214A1A60FFF75F
:40024000EBFE01F019FFBD4602B080BD6CF02E40903C01009C3C0100A03C010000000240990000EE00500F4004500F4010500F4014500F400000288020500F4024500F40B6
:4002800030500F4034500F4000700F4001700F4000000440080004403100DB00180004400001044008010440966C5B000002044008020440B06DC30000030440080304402C
:4002C0009201100010B5064C2378002B07D1054B002B02D0044800E000BF0123237010BD90040020000000006C3B010008B5084B002B03D00748084900E000BF0748036887
:40030000002B00D108BD064B002BFBD09847F9E7000000006C3B010094040020C80000200000000080B500AF012003F0CFF9054B00221A75034B5B7D0133DAB2014B5A75EC
:40034000BD4680BDAC04002090B583B000AFBB1D00221A7003F056F96B4B181C03F0C2F903F036F801F078FD684B27229B5C002B39D0FB1D00221A702DE0FB1D1B785B0063
:40038000DC1CFB1D1B78614A2021D3185B18DB781B09DBB2181C01F001F8031C1A1C5C4B1A55FB1D1B7802335C00FB1D1B78574A2021D3185B18DB780F221340DBB2181C04
:4003C00000F0ECFF031C1A1C514B1A55FB1D1A78FB1D01321A70FB1D1B78032BCDD94C4B181C02F0C3FC3C1D4A4B181C02F0E2FA031C23803B1D1B88002B02D1012002F08A
:400400008DFA62B60A2002F0DDF803F0B9FF002003F0E0FA404B1A7801218A431A703E4B1A7802218A431A703B4B1A7818218A431A70394B5A781C218A43111C08220A43BD
:400440005A70FB1D00221A701CE003F0BBFE021CBB1C1A80FB1D1B785B00BA1C1288120A92B2D1B22D4AD154FB1D1B785B000133BA1C1288D1B2294AD154FB1D1A78FB1D3B
:4004800001321A70FB1D1B78032BDED903F094F9031C1A1C01231340DAB2214B01210A4050011A7820218A43111C021C0A431A70BB1D1B78181C03F0B3FABB1DBA1D1278B4
:4004C000D2431A7000F030F803F05AFF00F030FB00F0A0FF00F0E2FF01F020F801F0A6F801F0F2F90C4B5B78DB065B0FDBB2181C01F084FBC0460B4B1B7D002BFBD1094B25
:4005000001221A75D4E7C04625030000CC040020CC00002091050000C404002060140020C8040020AC04002080B584B000AF3B1C0C22BA181A603B1C02229A803B1C02227D
:40054000DA803B1C11221A810F4B1B78032B16D0042B0DD0022B00D012E03A1C0B4B101C191C00220EF0D8FE002002F0D7F907E0002002F08DFA012002F0D0F900E0C046D9
:40058000BD4604B080BDC046841F00208C1F002090B585B000AF786039607B68412B5BD004D8012B5AD0282B07D058E04C2B2BD04E2B09D0432B1AD051E0002002F068FA4A
:4005C000012002F0ABF94AE03B681B891A1C254B1A603B685A68234B1B682349081C111C1A1C03F0DEFD214B01221A6037E03B685B88162B04D83B685A881D4B1A802EE044
:400600001B4B17221A802AE03B68FB60FB689B89112B20D1FB681A1D0B23FC18154B101C00211A1C40230EF0ADFE031C23700B23FB181B78002B0ED10E4B1A785B781B028F
:400640001A4300231204120C1B0C1B041343181C0EF030F903E002E0C04600E0C046BD4605B090BD14140020E8130020E4130020D80000208C1F002080B584B000AF3B1D6C
:4006800010221A813B1D0B4A1A603B1D14229A80094B391D1A785B781B021A4300231204120C1B0C1B041343181C0EF0A5F8BD4604B080BD4C1400208C1F002090B583B09C
:4006C00000AF214B181C0021142203F073FD1E4B23221A701C4B00225A701B4B09229A70194B0022DA70184B04221A711749184B23229B180422081C191C03F052FD124B0E
:4007000001225A72104B01229A72114B22229A5C0D4BDA72BC1D0C4B181C0C2100F0BEFC031C2380BB1D1B881B0A9BB2DAB2064B1A73BB1D1B88DAB2034B5A73FFF79CFFFF
:40074000BD4603B090BDC0464C14002051140020CC04002090B585B000AF021CFB1D1A70BB1D0A1C1A700823FB18FA1D12781A700823FB1803225A700823FB18BA1D1278D5
:400780009A700E23FC180823FB18181C032100F085FC031C23800E23FB181B881B0A9BB2DAB20823FB18DA700E23FB181B88DAB20823FB181A711E4A0823FB180233101C71
:4007C00008211A1C032300F041FD1A4B181C0021142203F0EFFC0823FB181A78154B1A70144B00225A70144A0823FB180133101C191C042203F0D5FC0E23FC180D4B181C87
:40080000062100F04BFC031C23800E23FB181B881B0A9BB2DAB2074B9A710E23FB181B88DAB2044BDA71FFF727FFBD4605B090BD441400204C1400204E14002090B585B034
:4008400000AF021CFB1D1A70BB1D0A1C1A70184B181C0021142203F0ADFC154BFA1D12781A70134B00225A70114B01229A70104BBA1D1278DA700E23FC180D4B181C04219D
:4008800000F00CFC031C23800E23FB181B881B0A9BB2DAB2064B1A710E23FB181B88DAB2034B5A71FFF7E8FEBD4605B090BDC0464C14002090B585B000AF021CFB1D1A70E1
:4008C000BB1D0A1C1A70164B181C0021142203F071FC134BFA1D12781A70114BBA1D12785A700F4B00229A700E23FC180C4B181C032100F0D3FB031C23800E23FB181B8833
:400900001B0A9BB2DAB2064BDA700E23FB181B88DAB2034B1A71FFF7AFFEBD4605B090BD4C14002090B585B000AF3B1C03221A703B1C0A225A700F23FB1800221A7023E03A
:4009400003F040FC021C0C23FB181A800F23FB181B785B000C22BA181288120A92B2D1B2394AD1540F23FB181B785B0001330C22BA181288D1B2344AD1540F23FB181A78F8
:400980000F23FB1801321A700F23FB181B78032BD6D93B1C02332C4A191C0823081C111C1A1C03F0FEFB0C23FC183B1C181C0A2100F074FB031C23800C23FB181B881B0A87
:4009C0009BB2DAB23B1C9A720C23FB181B88DAB23B1CDA721D4A3B1C0233101C08211A1C0A2300F033FC1A4B181C0021142203F0E1FB3B1C1A78164B1A70154B00225A70FE
:400A0000144A3B1C0133101C191C0B2203F0C9FB0C23FC180E4B181C0D2100F03FFB031C23800C23FB181B881B0A9BB2DAB2084B5A730C23FB181B88DAB2054B9A73FFF7D7
:400A40001BFEBD4605B090BD60140020441400204C1400204E14002090B585B000AF3B1C06221A703B1C04225A702D4B20229A5C3B1C9A702A4B21229A5C3B1CDA700E2340
:400A8000FC183B1C181C042100F008FB031C23800E23FB181B881B0A9BB2DAB23B1C1A710E23FB181B88DAB23B1C5A711D4A3B1C0233101C08211A1C042300F0C7FB1A4BA5
:400AC000181C0021142203F075FB3B1C1A78164B1A70154B00225A70144A3B1C0133101C191C052203F05DFB0E23FC180E4B181C072100F0D3FA031C23800E23FB181B88CC
:400B00001B0A9BB2DAB2084BDA710E23FB181B88DAB2054B1A72FFF7AFFDBD4605B090BDCC040020441400204C1400204E14002090B583B000AFCD4B1B68002B00D190E289
:400B4000CA4B00221A60FB1DC94A12781A70BB1DC74A52781A707B1DC54A92781A707B1D1B780333DBB2BC1CC14A101C191C00F095FA031C23807B1D1B780333BC4AD35C04
:400B80009BB21B0299B27B1D1B780433B84AD35C9AB23B1C8A181A80BA1C3B1C12881B889A4200D057E2FB1D1B78312B00D951E29A00B04BD3181B689F46FFF77FFD4AE226
:400BC000AB4B1A78AC4B1A70AC4AAD4B101C191C032203F0E6FAAB4AAB4B101C10211A1C022300F033FBBC1CA34B181C022100F055FA031C2380A04B9B789BB21B0299B213
:400C00009D4BDB789AB23B1C8A181A80BA1C3B1C12881B889A4204D104200021FFF70EFE19E204200221FFF709FE14E2904B1A78914B1A70914A924B101C191C0C2203F0F6
:400C4000B0FA904A904B101C10211A1C0B2300F0FDFABC1C884B181C0B2100F01FFA031C2380854BDB7A9BB21B0299B2824B1B7B9AB23B1C8A181A80BA1C3B1C12881B8811
:400C80009A420CD1804B814A111C1A1C0823081C111C1A1C03F085FAFFF744FEDBE1DAE1734B9B78082B0CD1794B784A111C1A1C0823081C111C1A1C03F073FAFFF732FEAD
:400CC000C9E1C8E16A4B1A786B4B1A706B4A6C4B101C191C032203F064FA674B5B78022B23D16C4A684B101C08211A1C022300F0ADFABC1C604B181C022100F0CFF9031CD0
:400D000023805D4B9B789BB21B0299B25A4BDB789AB23B1C8A181A80BA1C3B1C12881B889A4202D1FFF798FE95E194E1BB1D1B78022B18D0032B24D0012B00D08BE14E4B96
:400D400007221A704C4B20225A704F4A524B101C191C0F2203F025FABB1D1B780720191CFFF7A8FD56E04D4A4B4B101C191C0F2203F017FABB1D1B780720191CFFF79AFD94
:400D800048E0474A444B101C191C022203F009FA404A3D4B101C08211A1C202300F056FABC1C354B181C202100F078F9031C2380314B20229B5C9BB21B0299B22E4B21223A
:400DC0009B5C9AB23B1C8A181A80BA1C3B1C12881B889A4218D12C4A324B101C191C102203F0D0F9031E0AD107200021FFF7B2FC214BDB7F012B0CD100F0E8FA09E0072013
:400E00000321FFF7A7FC04E007202221FFF7A2FCFFE7C0461FE1BB1D1B78022B18D0032B42D0012B00D016E1134B05221A70124B24225A70144A184B101C191C0F2203F0B2
:400E4000B0F9BB1D1B780720191CFFF733FD8CE0124A114B101C191C0F2203F0A2F9BB1D1B780720191CFFF725FD7EE0E4130020E8130020803B01001C1400201D140020CC
:400E8000EA130020CC0400201E140020441400201F14002060140020EB1300202D1400203C140020DC0400206F4A704B101C191C042203F076F96E4A6E4B101C08211A1C2C
:400EC000242300F0C3F9BC1C6B4B181C242100F0E5F8031C2380684B24229B5C9BB21B0299B2654B25229B5C9AB23B1C8A181A80BA1C3B1C12881B889A4231D15F4B2222C1
:400F00000121995405200021FFF724FC594B5B4A111C1A1C1023081C111C1A1C03F041F9574A564B1033111C1022181C03F039F9544A524B2033111C0222181C03F031F946
:400F40004E4B181C282100F001FA031C191C4B4B28229954494B181C292100F057FF03E005202221FFF7F6FBC04674E0464B1A78414B1A70454A464B101C191C032203F099
:400F800010F93D4B5B78022B46D1394A394B101C08211A1C022300F059F9BC1C364B181C022100F07BF8031C2380334B9B789BB21B0299B2304BDB789AB23B1C8A181A80C8
:400FC000BA1C3B1C12881B889A4225D12B4B222200219954294B181C0021102203F0EAF82C4B181C0021102203F0E4F82A4B181C0021022203F0DEF8204B181C282100F0C1
:40100000A5F9031C191C1D4B282299541B4B181C292100F0FBFE1EE01DE01B4B9B78042B17D11249154B23229B180422181C03F0B8F8124B181C282100F088F9031C191C78
:401040000E4B282299540D4B181C292100F0DEFE01E000E0C0460C4B181C00212C2203F0A9F8BD4603B090BD3C140020EB130020601400201E1400201C140020CC04002032
:401080002E1400203E140020E81300201D140020EA130020DC040020EC04002080B584B000AF78600A1CFB1C1A700E23FB18012252421A807B68BB6039E0BB685A1CBA60AD
:4010C0001B7899B20E23FB180E22BA1812884A401A800D23FB1800221A7023E00E23FB181B88012213400FD00E23FB180E22BA18128852081A800E23FB180E22BA1812882C
:4011000015494A401A8006E00E23FB180E22BA18128852081A800D23FB181A780D23FB1801321A700D23FB181B78072BD6D9FB1C1B78FA1C591E1170002BBED10E23FB1831
:401140000E22BA1812881A800E23FB181B88181CBD4604B080BDC04601A0FFFF80B584B000AF0023BB600023FB6009E0FB68D9B2204AFB68D3180A1C1A70FB680133FB6080
:40118000FB681F2BF2DD0023FB602CE0194AFB68D3181B781A1CBB68D3181749FA688A1812789B18154A134004D5013B2022524213430133BB60FB1D0E49FA688A181278C1
:4011C0001A700C4ABB68D31819780A4AFB68D3180A1C1A70074ABB68D318FA1D12781A70FB680133FB60FB681F2BCFDDBD4604B080BDC04688140020681400201F00008058
:4012000080B584B000AF78600A1CFB1C1A700023FB6013E0FB1C1B78FA68101C191C02F079FF0B1C1A1C7B689B181978064AFB68D3180A1C1A70FB680133FB60FB681F2B3E
:40124000E8DDBD4604B080BD6814002080B58AB000AFF8607A603B600B23FB180A1C1A7000237B6200233B620023FB617B68BB617B68002B02D03B68002B00DC5EE0FA68D5
:401280000B23FB181B78101C191CFFF7B9FFFFF765FF4FE07B6A01332A4A134004D5013B20225242134301337B62274A7B6AD3181B781A1C3B6AD318224A134004D5013B22
:4012C00020225242134301333B621723FB181E497A6A8A1812781A701B4A3B6AD3181978194A7B6AD3180A1C1A70174A3B6AD3181722BA1812781A70134A7B6AD3181B786A
:40130000191C114A3B6AD3181B78CB181F2213403B61FB697A68D318FA69B9698A18117809483A69821812784A40D2B21A70FB690133FB61FA693B689A42ABDBBD460AB03D
:4013400080BDC0461F0000808814002080B584B000AF78600A1CFB1C1A700F23FB1800221A700AE07B685A1C7A6019780F23FB180F22BA1812788A181A70FB1C1B78FA1CBB
:40138000591E1170002BEDD10F23FB181B78DB43DBB2181CBD4604B080BDC04680B582B000AF021CFB1D1A70FB1D1B78092B04D8FB1D1B783033DBB203E0FB1D1B78373377
:4013C000DBB2181CBD4602B080BDC04680B500AF0E4B1B7808221340DBB2002B14D00C4B1A7802210A431A70094B1A7860218A43111C20220A431A70054B5A781C218A43C2
:40140000111C10220A435A70BD4680BDC8040020C404002080B500AF02F0EAF9031C1A1C01231340DAB21A4B01210A40101C1A7801218A43111C021C0A431A70144B1B787F
:4014400001221340DBB2002B1CD1124B5B8A01339AB2104B5A820F4B5B8A0F4A934205D80C4B5B8A01339AB20A4B5A82094B5A8AFA239B009A4208D1064B00225A80FFF739
:40148000A5FF02E0034B00225A82BD4680BDC046C8040020AC040020CF07000080B500AF02F098F9031C1A1C01231340DAB2174B01210A4090001A7804218A43111C021C96
:4014C0000A431A70114B1B7804221340DBB2002B16D00F4B1B8A0F4A934205D80C4B1B8A01339AB20A4B1A82094B1A8AFA239B009A4208D1084B5A7820210A435A7002E0D4
:40150000034B00221A82BD4680BDC046C8040020AC040020CF070000C404002080B500AF02F004F8031C1A1C01231340DAB23C4B01210A40D0001A7808218A43111C021C1F
:401540000A431A70364B1B7808221340DBB2002B02D1002002F018FA314B1B7808221340DBB2002B1DD12F4B1B7802221340DBB2002B16D02C4B1B8901339AB22A4B1A8155
:40158000294B1B89502B0CD9274B00221A81254B1A7802218A431A70224B1A7860218A431A7002F0FBF8031C1A1C01231340DAB21B4B01210A4010011A7810218A43111C54
:4015C000021C0A431A70164B1B7810221340DBB2002B02D1012002F0D7F9114B1B7810221340DBB2002B18D10E4B1B7801221340DBB2002B11D00B4B1A7801218A431A709E
:40160000094B00229A75074B1A7818218A431A70044B1A7860218A431A70BD4680BDC046C8040020C4040020AC04002080B500AF4F4B1B789B06DB0FDAB24D4B01210A40E2
:4016400090011A7840218A43111C021C0A431A7002F0B2F8031C1A1C01231340DAB2444B01210A4050011A7820218A43111C021C0A431A703E4B1B7820221340DBB2002B8C
:4016800046D1012002F05AF9394B1B7810221340DBB2002B05D1374B1A7804218A431A7029E0344B1B7804221340DBB2002B02D000F068F81FE02E4B1B7840221340DBB238
:4016C000002B05D02B4B1A7804210A431A7012E0294B5B8801339AB2274B5A80264B5B88264A934207D9244B00225A80214B1A7804210A431A70224B1B78002B36D01D4B5A
:401700005A781C218A435A701D4B00221A702DE0002002F013F9164B1B7840221340DBB2002B08D1144B00225A80124B5A7840210A435A701AE00E4B1B7808221340DBB298
:40174000002B08D10B4B5A781C218A435A700C4B00221A700AE0074B5A781C218A43111C14220A435A70064B01221A70BD4680BDC8040020C4040020AC04002010270000BB
:40178000A814002080B500AF4C4B1B78DB069B0FDBB2012B33D0022B00D171E0002B00D08AE0474B5B8801339AB2454B5A80444B5A88FA239B009A4220D9414B00225A805F
:4017C0003E4B1A7860218A43111C40220A431A703A4B1A7801210A431A70384B5A781C218A43111C04220A435A70344B1A7818218A43111C08220A431A705DE05CE0304B08
:401800005B8801339AB22E4B5A802D4B5A88FA239B009A4233D92A4B00225A80274B5A781C218A43111C0C220A435A70234B1A7860218A43111C20220A431A701F4B1A7837
:4018400002210A431A701D4B1A7818218A43111C10220A431A701A4B9B7D0133DAB2184B9A75174B9B7D022B09D9154B00229A75124B5A78802149420A435A701CE01BE006
:401880000E4B1B7802221340DBB2002B13D10C4B5B8801339AB20A4B5A80094B5B88094A934208D9064B00225A80044B1A7818218A431A70FFE7C046BD4680BDC40400202E
:4018C000AC040020CF07000080B500AFC64B1B785B069B0FDBB2012B03D0022B00D1B6E06BE1C14B1B889B055B0FDBB2052B00D9ABE09A00BD4BD3181B689F46012001F062
:4019000085FF002001F0A8FF002001F0CBFF012001F0EEFFB64BDB8801339AB2B44BDA80B34BDB88052B0CD9B14B0022DA80AE4B1A88B0490A40111C802252000A431A8080
:4019400084E083E0002001F061FF002001F084FF012001F0A7FF012001F0CAFFA44BDB8801339AB2A24BDA80A14BDB88052B0CD99F4B0022DA809C4B1A889E490A40111C3E
:40198000C02252000A431A8060E05FE0002001F03DFF012001F060FF012001F083FF002001F0A6FF924BDB8801339AB2904BDA808F4BDB88052B0CD98D4B0022DA808A4B15
:4019C0001A888C490A40111C802292000A431A803CE03BE0012001F019FF012001F03CFF002001F05FFF002001F082FF804BDB8801339AB27E4BDA807D4BDB88052B0CD91E
:401A00007B4B0022DA80784B1A887A490A40111CA02292000A431A8018E017E0744BDB8801339AB2724BDA80714BDB88012B0BD96F4B0022DA806C4B1A886E490A40111CF6
:401A400080220A431A8001E000E0C046CAE0664B1B889B055B0FDBB2052B00D9ABE09A00654BD3181B689F46012001F0CFFE012001F0F2FE002001F015FF002001F038FF02
:401A80005B4BDB8801339AB2594BDA80584BDB88052B0CD9564B0022DA80534B1A8855490A40111C802252000A431A8084E083E0002001F0ABFE012001F0CEFE012001F0C6
:401AC000F1FE002001F014FF494BDB8801339AB2474BDA80464BDB88052B0CD9444B0022DA80414B1A8843490A40111CC02252000A431A8060E05FE0002001F087FE0020DB
:401B000001F0AAFE012001F0CDFE012001F0F0FE374BDB8801339AB2354BDA80344BDB88052B0CD9324B0022DA802F4B1A8831490A40111C802292000A431A803CE03BE0A1
:401B4000012001F063FE002001F086FE002001F0A9FE012001F0CCFE254BDB8801339AB2234BDA80224BDB88052B0CD9204B0022DA801D4B1A881F490A40111CA0229200A5
:401B80000A431A8018E017E0194BDB8801339AB2174BDA80164BDB88012B0BD9144B0022DA80114B1A8813490A40111C80220A431A8001E000E0C04614E0002001F026FE53
:401BC000002001F049FE002001F06CFE002001F08FFE054B1A8807490A40111C80220A431A80C046BD4680BDC4040020483C0100AC0400207FFCFFFF603C010080B582B032
:401C000000AF021CFB1D1A70FB1D1B78052B00D9E6E09A00794BD3181B689F46784B9B88002B02D1012001F08FFC754B9B8801339AB2734B9A80724B9B88642B0BD9704B40
:401C400000229A80002001F07FFC6E4B5A781C218A435A70CEE0CDE0694B9B88002B03D0674B9B88C82B02D1012001F06DFC644B9B88642B02D1002001F066FC604B9B8882
:401C800001339AB25E4B9A805D4B9A882C23FF339A420BD95A4B00229A80002001F054FC584B5A781C218A435A70A3E0A2E0544B9B88002B09D0524B9B88C82B05D0504B5D
:401CC0009A88C8235B009A4202D1012001F03CFC4B4B9B88642B05D0494B9A8896235B009A4202D1002001F02FFC454B9B8801339AB2434B9A80424B9A88F423FF339A4202
:401D00000BD93F4B00229A80002001F01DFC3D4B5A781C218A435A706CE06BE0384B9B88002B03D0364B9B88C82B05D1012001F00BFC012001F04EFE314B9B88642B05D17E
:401D4000002001F001FC002001F044FE2C4B9B8801339AB22A4B9A80294B9A882C23FF339A420ED9264B00229A80002001F0ECFB002001F02FFE234B5A781C218A435A7088
:401D800038E037E01E4B9B88181C642102F0D2F80B1C9BB2002B13D1194B9B88181C642102F042F8031C9BB2012213409BB2002B03D1012001F0C8FB02E0002001F0C4FB4F
:401DC0000F4B9B8801339AB20D4B9A800C4B9B880D4A934203D90A4B00229A800AE009E0074B00229A80002001F0AEFB002001F0F1FDC046BD4602B080BDC046783C010094
:401E0000AC040020C4040020E703000080B5A2B000AF78600A1CFB1C1A700823FB181A1C8023101C00211A1C02F0C4F9FB1C1B780822B9187A68081C111C1A1C02F0B1F938
:401E4000044A0823FB18101C191C00F039F9BD4622B080BDFE03000080B500AF044A054B101C191C292202F09CF9BD4680BDC046CC040020DC00002080B500AFFEE7C0468A
:401E800080B584B000AF78600F4B1A687B68D3181A1C0E4BD31A802B09DC0B4B1B68FB60094B1A687B68D218074B1A6007E002F03DF9031C0C221A6001235B42FB60FB6884
:401EC000181CBD4604B080BD08010020A82F002080B586B000AF224B7B61224B3B61204B7B6135E03B691B68FB603B695B68BB603B699B683B6000237B600CE0FB681A68BD
:401F0000BB681A60BB680433BB60FB680433FB607B6804337B607A683B689A42EED13B69DB683B6000237B6008E0BB6800221A60BB680433BB607B6804337B607A683B686F
:401F40009A42F2D13B6910333B617B69013B7B617B69002BC6D102F0EFF8FEF7F5F9FEE701000000B440010080B582B000AF154B144A126801218A431A6000237B600FE062
:401F80007B68032B04D8104B7A689200D35800E00E4B0F4A796889008B507B6801337B607B682F2BECD9FEF7B9F80A4B00221A60044B044A126801210A431A60BD4602B023
:401FC00080BDC0460000104000000000791E000000000020C000002080B582B000AF786039607A683B68101C00211A1C02F0E2F8BD4602B080BDC04680B586B000AF786072
:40200000396000233B6100237B612FE07B699B007A68D3181B68BB600F23FB18BA681A70BB68FF229343BB6018E03B695B003A68D3181B781A1CBB68D318191C3B695B009B
:402040003A68D3185B780B703B6901333B610F23FB181A780F23FB18013A1A700F23FB181B78002BE1D17B6901337B617B69002BCCD0BD4606B080BD80B500AF054B03228D
:402080001A60054B03221A60044B00221A60BD4680BDC0463000304030003140000E3F400230800803D00138FDD1C046C046C0467047EFF3108072B6704780F31088704748
:4020C00090B5A9B000AF7860396000239822BA18136000239422BA1813607B684D4A934200D98CE03B68002B00D188E00C23FB1808331A1C3B68101C191C802202F051F8B3
:402100007B68454A934201D9444A00E0444A0C23FB181A600C23FB187F225A60414B0C22BA181A60404B414A1A603E4B1B681B0F1A07A0231B069A4204D03A4B1B680F226F
:40214000134000E000239822BA1813609823FB181B68002B52D19F23FC18FFF7AAFF031C237000F069F8031C9422BA1813609423FB181B68002B05D100F08EF8031C98223C
:40218000BA1813609823FB181B68002B24D10C23FB18274A1A600C23FB181A687B681B041A430C23FB181A601E4B0C22BA181A601D4B204A1A601B4B1B681B0F1A07A02337
:4021C0001B069A4204D0174B1B680F22134000E000239822BA1813609423FB181B68002B05D100F081F8031C9422BA1813609F23FB181B78181CFFF760FF04E003E00423F3
:402200009822BA1813609823FB181B68181CBD4629B090BDFF030000FF010000B6D70001B6D70000080010400400104004000080B6D800000500008080B584B000AF002356
:40224000FB603B1D0F4A1A600F4A3B1D5A600F4B3A1D1A600E4B0F4A1A600C4B1B681B0F1A07A0231B069A4204D0084B1B680F22134000E00023FB60FB68181CBD4604B057
:4022800080BDC046B6E90000FC04002008001040040010401600008080B582B000AF00237B600D4B0D4A1A600D4B0E4A1A600A4B1B681B0F1A07A0231B069A4204D0064B6B
:4022C0001B680F22134000E000237B607B68181CBD4602B080BDC04608001040B6E80000040010401500008080B584B000AF0023FB603B1D0F4A1A600F4A3B1D5A600F4B85
:402300003A1D1A600E4B0F4A1A600C4B1B681B0F1A07A0231B069A4204D0084B1B680F22134000E00023FB60FB68181CBD4604B080BDC046B6EA0000FC0400200800104086
:40234000040010401700008090B58BB000AF78602723FC18FFF7ADFE031C2370184B1A680C23FB181A60174B1A680C23FB185A607B68033B144AD35C1A1C0C23FB189A6019
:40238000124B1A680C23FB18DA601C23FB18104A1A600C23FA181C23FB185A600D4B1C22BA181A600C4B0D4A1A600A4B1B682723FB181B78181CFFF780FEBD460BB090BDCA
:4023C00008010B4000010B40A43C010030001040B6EA000008001040040010401700008080B584B000AF78600023FB60154B154A126801210A431A60134B144A1A60144BD4
:40240000134A1268802109020A431A607B68002B12D01023FB600CE0012000F0F7F800F019F8031E02D00023FB6005E07B68013B7B607B68002BEFD1FB68181CBD4604B07B
:4024400080BDC04660F02E4078002E400220000010002E4080B500AF034B1B6801221340181CBD4680BDC0460C002E4080B584B000AF021C3960FB1D1A7080239B05FB60A7
:40248000FB1D1B781F2B02D9002000F091F8FB1D1B7810339B00FA68D3181B68BB60FB1D1B7810339B00FA68D3183A681A60BB68181CBD4604B080BD90B587B000AF021CB9
:4024C000FB1D1A70BB1D0A1C1A70BB1D1B78032B02D9002000F06CF8FB1D1B781F2B02D9002000F065F8FB1D1B7803221340DB0006337B611323FC18FFF7DBFD031C2370B0
:40250000FB1D1B789B08DBB29B00144A944663441B68FB607B6903229A40131CDA43FB681340FB60BB1D1A787B699A40131CFA681343FB60FB1D1B789B08DBB29B00074AF7
:4025400094466344FA681A601323FB181B78181CFFF7B3FDBD4607B090BDC04600E400E080B582B000AF021CFB1D1A70054BFA1D12781F210A40012191400A1C1A60BD4690
:4025800002B080BD00E100E080B582B000AF021CFB1D1A70054BFA1D12781F210A40012191400A1C1A60BD4602B080BD80E100E080B582B000AF021CFB1D1A7001BEBD46BC
:4025C00002B080BD80B582B000AF786009E00C4B1B68181CFFF764FD7B680A4A944663447B607A6880231B029A42F0D8064B1B687A685343181CFFF753FDBD4602B080BD1F
:40260000180100200080FFFF1001002080B582B000AF021CBB1D1A80BB1D1B88044A12785343181CFFF73CFDBD4602B080BDC0461401002080B500AF0E4B0E4A1268012162
:402640008A431A600B4B0B4A126802218A431A60094B094A126830218A4310210A431A60054B054A126807218A4301210A431A60BD4680BD00F02E4000FF2E4080B500AF67
:402680000E4B0E4A126802218A431A600C4B0C4A126807218A4302210A431A60084B084A126830218A4320210A431A60034B034A126801210A431A60BD4680BD00F02E409E
:4026C00000FF2E4080B500AFFFF7B4FF044B044A1268802109060A431A60BD4680BDC04600F02E4080B584B000AF78600C4B1B6801221340FB607B68002B02D0012B03D034
:4027000005E0FFF797FF06E0FFF7B8FF03E00020FFF74EFFC046FB68181CBD4604B080BD00F02E4090B583B000AFFC1DFFF7C1FC031C2370074B074A1268C02109020A4365
:402740001A60FB1D1B78181CFFF7B7FCBD4603B090BDC04600010B4080B500AF054B1A68C0231B02134001D0012300E00023181CBD4680BD00010B4090B583B000AFFC1D01
:40278000FFF797FC031C23700C4B0C4A12680C490A408021C9010A431A60084B074A126807490A40802109020A431A60FB1D1B78181CFFF782FCBD4603B090BD00010B4019
:4027C000FF3FFFFF90B585B000AF78600B23FC18FFF76FFC031C2370FFF7BEFF031E04D00123FB60FFF7C8FF01E00023FB607B680D4A13407B600D4B0C4A12680C491140CE
:402800007A680A431A60094B1B68FB68012B01D1FFF788FF0B23FB181B78181CFFF74DFCBD4605B090BDC0460404040010020B40FBFBFBFF80B500AF334B1B680422134031
:402840001FD0324B1B680422134017D0304B1B6804221340DA432D4B1B681A402B4B1A602B4B1B68042293431A1C294B1A60294B1B68002B02D0274B1B6898470420FFF735
:40288000A1FF214B1A688023DB00134022D01F4B1A688023DB00134017D01D4B1A688023DB001340DA43194B1B681A40174B1A60174B1B68184A1A40154B1A60154B5B6890
:4028C000002B02D0134B5B6898478023DB00181CFFF778FF0C4B1A688023DB02134011D00A4B1A688023DB02134006D0094B9B68002B02D0074B9B6898478023DB02181C73
:40290000FFF760FFBD4680BD10020B401C0100201405002018050020FFFBFFFF80B584B000AF021CFB1D1A700E4B1B68DAB20F23FB1840218A431A70FB1D1B789B01DBB2E9
:4029400040221340D9B20F23FB180F22BA1812780A431A70034B0F22BA1812781A60BD4604B080BD0003044080B500AF094B00221A70094B00221A70084B00221A7000F00B
:4029800013F8074B00221A70064B00221A70BD4680BDC0468F1F0020881F00208E1F0020B01400207C1F002080B500AF00F0F4FCBD4680BDF0B58FB004AF78602623FB18FB
:4029C00000221A800C23FA18284B111C1A1C1823081C111C1A1C01F0E4FB254B1B78002B04D1FFF7C1FF224B01221A707B68002B30D02623FB181B88002B2FD11D4B7A681D
:402A00001A602623FC181C491C4A1D4E0C23FD18062300931B4B01936E23FF330293081C111C321C2B1C01F0C1FC031C23802623FB181B88002B11D1134B01221A70262381
:402A4000FC18124B181C11210B220CF04DFC031C238003E02623FB1801221A802623FB181B88181CBD460BB0F0BDC046703E010028050020B414002031300000B81400207A
:402A8000C40A000080470100841F0020383F010090B585B000AF021CFB1D1A70FB1D1B78022B04D90E23FB1801221A804CE02A4B1B78042B43D1294B1B78DBB21A1C04233E
:402AC00013403CD1FB1D1B78002B0CD1244B1E221A82234B5B6820221A80214B5B685422FF325A8010E0FB1D1B78012B0CD11C4B96221A821A4B5B68C822D2001A80184B7B
:402B00005B688022D2015A80164BFA1D12781A700E23FC18124B181C0AF02CFD031C23800E23FB181B88002B08D10C4B1B78DBB204221343DAB2094B1A7005E004E00E23FA
:402B4000FB180422FF321A800E23FB181B88181CBD4605B090BDC046841F00208F1F0020700100208E1F002080B584B000AF78600A1CFB1C1A700023BB60BB68002B20D009
:402B80007B689A79BB681A700F23FB1800221A7012E00F23FB181B780133BA68D3180F22BA18127879688A5C1A700F23FB181A780F23FB1801321A700F23FB181B78052BB7
:402BC000E7D9BD4604B080BD80B586B000AF78600A1CFB1C1A701623FB1800221A701523FB1800221A701423FB1800221A70FB1C1B78002B07D15B4B3B610F23FB18594AAC
:402C0000D27F1A7006E0584B3B610F23FB18564AD27F1A7035E01423FB181B783A69D2181523FB1812781A701523FB181B78002B26D01423FB181A781423FB1801321A7014
:402C40001423FB181B783A69D3181B78082B07D01423FB181B783A69D3181B78092B04D11623FB1801221A7009E01423FB181422B9181522BA18097812788A181A7000E0F2
:402C80000CE01423FA180F23FB1812781B789A4204D21623FB181B78002BBCD01623FB181B78002B5BD01523FB181522B9181422BA18097812788A181A701423FB181A7892
:402CC0001423FB1801321A701723FB181422BA1812781A7017E01723FB181B783A69D3181722BA1811781422BA1812788A1A111C7A68521812781A701723FB181A7817238F
:402D0000FB1801321A701723FA181523FB1812781B789A420CD21723FB181A781423FB181B78D31A1A1C7B689B181B78002BD2D10DE01723FB181B783A69D31800221A7078
:402D40001723FB181A781723FB1801321A701523FA181723FB1812781B789A42E9D8BD4606B080BD300100205001002080B586B000AF78601623FB1800221A807B68002B59
:402D80004AD02B4B9B6B5B683B61294B9A8E0F23FB181A701523FB1800221A7012E01523FB181B783A69D3181522BA18127879688A1812781A701523FB181A781523FB180C
:402DC00001321A701523FA180F23FB1812781B789A4207D21523FB181B787A68D3181B78002BDCD11523FA180F23FB1812781B789A4206D21523FB181B783A69D3180022B1
:402E00001A707B68181C0021FFF7DEFE7B68181C0121FFF7D9FE03E01623FB1801221A801623FB181B88181CBD4606B080BDC046383F010080B582B000AF78607B681B7811
:402E40009AB27B6801331B789BB21B029BB213439BB2181CBD4602B080BDC04690B585B000AF78600F23FB1800221A707B689B890D22934237D17B681A1D7B680F217C1810
:402E8000101C00211A1C40230CF07CFA031C23700F23FB181B78002B1DD17B685B68181CFFF7C8FF031C1A1C022313409BB2002B08D0104B1B68822251007A68081C111C5D
:402EC000984708E00B4B1B680622FF32111C7A68081C111C9847084B1B78DBB201229343DAB2054B1A700F23FB181B78181CBD4605B090BDB41400208F1F002090B585B087
:402F000000AF78600F23FC187B68181CFFF7A6FF031C2370144B1B78DBB21A1C012313401FD10F23FB181B78002B16D00823FB1812229A707B689A890823FB181A800823D6
:402F4000FB180F22BA181278DA707B680822BA181868111C0BF034FC03E07B6818680BF0A9FCBD4605B090BD8F1F002080B582B000AF7860BD4602B080BDC04680B500AF2D
:402F8000034B00225A70024B00221A70BD4680BD8C1F002080B582B000AF7860BD4602B080BDC04680B500AFBD4680BD80B584B000AF78600E23FB1800221A707B689B79F2
:402FC000002B1CD10F23FB1800221A7012E00F23FB181B787A68D35C002B04D00E23FB1801221A700BE00F23FB181A780F23FB1801321A700F23FB181B78052BE7D90E2340
:40300000FB181B78181CBD4604B080BD80B582B000AF021CBB1D1A80BD4602B080BDC04680B582B000AF7860BD4602B080BDC04680B584B000AF021C3960FB1D1A70B84BCA
:403040001B78DBB201221343DAB2B54B1A70FB1D1B78412B00D10EE120DC242B00D1B4E00DDC022B00D18FE002DC012B38D074E1052B00D18DE0212B00D18FE06DE1272BC3
:4030800000D1ACE003DC262B00D1B4E065E1282B00D1ACE02A2B00D19CE05EE14F2B00D138E10BDC432B00D105E100DA00E14C2B00D11DE14E2B00D12EE14EE1572B00D1FB
:4030C0002CE106DC502B00D146E1542B00D114E143E1712B00D1C8E0FA2B00D112E13CE10C23FB1808221A700C23FB1800225A700C23FB18181C02F09EFD0C23FB18082257
:403100001A700C23FB1801225A700C23FB18181C02F091FD834B1B68181CFFF747FF031E11D0804B1B68181C01F02EF97D4B1B68181C0021FFF718FD7A4B1B68181C01213A
:40314000FFF712FD19E0784B1A78784B1A70784B1A78764B5A70774B1A78744B9A70734B181C01F011F9714B181C0021FFF7FCFC6E4B181C0121FFF7F7FC03200AF0BCF8FD
:403180006D4B04221A70E8E03B68181CFFF702FFE3E03B681A78694B1A70DEE0604B1B78DBB21A1C202313400ED1654B1B78102B02D1634B0522DA70624B1A78604B101C21
:4031C000191C0AF0A1F9C8E0C7E03B685A785E4B1A70C2E03B68181CFFF722FFBDE03B68181CFFF71DFF544B02221A70B5E0524B04221A70B1E0504B1B78022B34D0484B47
:403200001B78DBB21A1C012313402DD0444B1B78DBB21A1C042313400BD0474B03221A703F4B1B78DBB204229343DAB23C4B1A701AE03B4B1B78DBB21A1C082313400BD0D7
:403240003D4B04221A70364B1B78DBB208229343DAB2334B1A7007E0374B1B78032B03D1354B04221A7078E077E03B681B88181CFFF7CCFE71E0334A3B68111C1A1C0223D1
:40328000081C111C1A1C00F08CFF2E4B1B785A339A002E4BD31805332D4A111C1A1C0423081C111C1A1C00F07CFFFFF77BFE54E0FFF764FE51E03B685B88162B05D80E2349
:4032C000FB183A6852881A8003E00E23FB1817221A803B680E22BA1811881A8800231204120C1B0C1B041343181C0BF075FA34E03B68181CFFF702FE2FE03B68181CFFF77D
:4033000035FE2AE0134B1B7801221343DAB2114B1A7022E0C04620E0C0461EE0C0461CE08F1F00208C0100207CF1FF0F840100207DF1FF0F7BF1FF0F841F0020881F00204B
:40334000040200208C1F00207C1F002080470100801F0020B0140020C0460D4B1B78DBB21A1C112313400FD0094B1B78DBB201229343DAB2064B1A70064B1B68FA1D1178D4
:403380003A68081C111C9847BD4604B080BDC0468F1F0020B414002080B500AFBD4680BD80B500AF00F034F8BD4680BD80B500AF064B064A1268802109060A431A6000F0C1
:4033C00019F800F01FF8BD4680BDC0460000254080B500AF064B1B78002B04D1FFF7E0FF034B01221A70FFF7E1FFBD4680BDC0462C05002080B500AF0A20FFF7B1F8BD4655
:4034000080BDC04680B500AF00F082F8BD4680BD80B500AF264B274A1A60274B00221A60264B01221A60264B264A1A60264B07221A60264B00221A60254B01221A60254B66
:40344000204A1A60244B00221A60244B04221A600A20FFF799F80A200321FFF72DF8204B0A20191CFFF702F81E4B00221A601E4B00221A601D4B00221A601D4B00221A6068
:403480001C4B04221A601C4B00221A601B4B00221A601B4B00221A601A4B00221A701A4B00221A60194B00221A60BD4680BDC046000025400F0000024000254048002540DE
:4034C0000003254007000080040325401003254044002540000225400402254050002540693A0000880E2540C80E2540480F2540080F2540C80F2540880F2540A02F002091
:40350000981F00209D2F0020941F0020901F002080B500AF044B044A1268F0218A4390210A431A60BD4680BD0000024080B500AF044B1B68042213409B08DBB2181CBD46BD
:4035400080BDC0460401044080B584B000AF021CFB1D1A700E4B1B68DAB20F23FB1820218A431A70FB1D1B785B01DBB220221340D9B20F23FB180F22BA1812780A431A7045
:40358000034B0F22BA1812781A60BD4604B080BD0002044080B500AF0A4B00221A600A4B0C221A60012000F085F8FA239B00181C00F048F8642000F053F8002000F034F805
:4035C000BD4680BD000120402401204090B583B000AFFC1DFEF76DFD031C2370084B084A126801210A431A60FB1D1B78181CFEF764FD0120182100F041F8BD4603B090BD91
:403600000000204080B500AF064B1B78002B04D1FFF7C0FF034B01221A70FFF7D7FFBD4680BDC0463405002080B582B000AF7860034B7A681204120C1A60BD4602B080BD89
:403640000801204080B582B000AF7860034B7A681204120C1A60BD4602B080BD1401204080B582B000AF7860034B7A681204120C1A60BD4602B080BD0C01204090B585B009
:4036800000AF786039600F23FC18FEF712FD031C2370074B3A68796891400A1C1A600F23FB181B78181CFEF708FDBD4605B090BD0800204080B582B000AF7860024B7A6818
:4036C0001A60BD4602B080BD3801204080B582B000AF7860024B7A681A60BD4602B080BD3001204080B582B000AF786000F04CF87B68181C00F008F8032000F013F800F074
:4037000039F8BD4602B080BD80B582B000AF7860034B84217A685A50BD4602B080BDC0460000002090B585B000AF021CFB1D1A700E23FB600B23FC18FEF7BBFC031C2370CC
:403740000A4B0A4A12680A491140FA1D1078FA689040021C0A431A600B23FB181B78181CFEF7ABFCBD4605B090BDC04610E400E0FF3FFFFF80B500AF024B802292021A602C
:40378000BD4680BD00E100E080B500AF024B802292021A60BD4680BD80E100E080B500AF044B1B68022213405B08DBB2181CBD4680BDC0460401044080B500AF044B1B6810
:4037C000022213405B08DBB2181CBD4680BDC0460403044080B500AF044B1B68DBB201221340DBB2181CBD4680BDC0460403044080B500AF044B1B6880221340DB09DBB276
:40380000181CBD4680BDC0460401044080B584B000AF021CFB1D1A700E4B1B68DAB20F23FB1802218A431A70FB1D1B78DB18DBB202221340D9B20F23FB180F22BA181278C7
:403840000A431A70034B0F22BA1812781A60BD4604B080BD0002044080B584B000AF021CFB1D1A700E4B1B68DAB20F23FB1804218A431A70FB1D1B789B00DBB20422134095
:40388000D9B20F23FB180F22BA1812780A431A70034B0F22BA1812781A60BD4604B080BD0002044080B584B000AF021CFB1D1A700E4B1B68DAB20F23FB1808218A431A7040
:4038C000FB1D1B78DB00DBB208221340D9B20F23FB180F22BA1812780A431A70034B0F22BA1812781A60BD4604B080BD0002044080B584B000AF021CFB1D1A700E4B1B68C1
:40390000DAB20F23FB1810218A431A70FB1D1B781B01DBB210221340D9B20F23FB180F22BA1812780A431A70034B0F22BA1812781A60BD4604B080BD0002044080B584B029
:4039400000AF021CFB1D1A700E4B1B68DAB20F23FB1840218A431A70FB1D1B789B01DBB240221340D9B20F23FB180F22BA1812780A431A70034B0F22BA1812781A60BD465E
:4039800004B080BD0001044080B584B000AF021CFB1D1A700E4B1B68DAB20F23FB1820218A431A70FB1D1B785B01DBB220221340D9B20F23FB180F22BA1812780A431A7057
:4039C000034B0F22BA1812781A60BD4604B080BD0001044080B584B000AF021CFB1D1A700E4B1B68DAB20F23FB1804218A431A70FB1D1B789B00DBB204221340D9B20F232F
:403A0000FB180F22BA1812780A431A70034B0F22BA1812781A60BD4604B080BD0003044080B584B000AF021CFB1D1A700D4B1B68DAB20F23FB1801218A431A70FB1D1B78D7
:403A400001221340D9B20F23FB180F22BA1812780A431A70034B0F22BA1812781A60BD4604B080BD0001044080B582B000AF344B1B68002B02D0324B1B689847314B1B681B
:403A80000422134027D0304B1B6801337B607B682E4A934201D100237B602D4B1B687A689A4205D12B4B1B682B4B20221A700AE0284B1B68D9B2294A7B68D3180A1C1A7063
:403AC000214B7A681A60264B1B681F221340DAD1244B04221A60244B1B68022213402BD0224B1A68224B1B689A4215D0204B1B6801333B603A6880231B019A4201D10023C9
:403B00003B601C4B1C493A688A181278D2B21A60174B3A681A6006E0184B184A126802218A431A6005E0164B1B681F221340082BD6D1144B02221A60BD4602B080BDC04619
:403B400030050020CC0F2540A02F002001080000981F0020400325409D2F00209C27002008032540C00F25408C0F2540941F0020901F0020400225409C1F0020880F2540A6
:403B800008022540800F254090B583B000AFFC1DFEF78FFA031C2370074B074A126804218A431A6030BFFB1D1B78181CFEF785FABD4603B090BDC04610ED00E080B582B01A
:403BC00000AF78600A1CBB1C1A80BB1C1A887B681A60BD4602B080BD80B582B000AF78600A1CBB1C1A80BB1C1A887B681A60BD4602B080BD80B582B000AF304B1B78DBB2E1
:403C00001B022F4A1278D2B213437B602D4B1B78DBB21B022C4A1278D2B213433B603B682A4A934207D17B68072B04D1284B3B6004237B6009E03A68D4231B019A4204D178
:403C40007B68042B01D1224B3B60224B3A681A60214B7A681A60214B1B78DBB21B02204A1278D2B213437B607A6880239B019A4202D07B68002B01D11A4B7B601A4B7A687F
:403C80001A601A4B1B78DBB21B02194A1278D2B213437B607B68174A934206D07B68164A934202D07B68052B01D1144B7B60144B7A681A60BD4602B080BDC046D9F0FF0FC4
:403CC000D8F0FF0FDFF0FF0FDEF0FF0F580B0000580D00006C002E4074002E40DBF0FF0FDAF0FF0F0220000078002E40DDF0FF0FDCF0FF0F0F0F000005050000050F000007
:403D000080002E4080B582B000AF021CBB1D1A80BB1D1B88181CFEF779FCBD4602B080BD80B500AF00F066F8BD4680BD80B500AF00F06AF8BD4680BD80B500AF00F064F8CC
:403D4000044B181C00F024F8032000F02DF8BD4680BDC0461D3E000080B500AF024B181C00F004F8BD4680BD1D3E000080B582B000AF786000F048F87B68181C00F008F8CA
:403D8000032000F011F800F035F8BD4602B080BD80B582B000AF7860024B7A681A67BD4602B080BD0000002090B585B000AF021CFB1D1A700623FB600B23FC18FEF779F912
:403DC000031C23700A4B0A4A1268C0218A43111CFA1D1078FA689040021C0A431A600B23FB181B78181CFEF768F9BD4605B090BD0CE400E080B500AF024B802252011A608A
:403E0000BD4680BD00E100E080B500AF024B802252011A60BD4680BD80E100E080B500AF0FF090FEBD4680BD002243088B4274D303098B425FD3030A8B4244D3030B8B4257
:403E400028D3030C8B420DD3FF22090212BA030C8B4202D31212090265D0030B8B4219D300E0090AC30B8B4201D3CB03C01A5241830B8B4201D38B03C01A5241430B8B42D5
:403E800001D34B03C01A5241030B8B4201D30B03C01A5241C30A8B4201D3CB02C01A5241830A8B4201D38B02C01A5241430A8B4201D34B02C01A5241030A8B4201D30B0216
:403EC000C01A5241CDD2C3098B4201D3CB01C01A524183098B4201D38B01C01A524143098B4201D34B01C01A524103098B4201D30B01C01A5241C3088B4201D3CB00C01A0D
:403F0000524183088B4201D38B00C01A524143088B4201D34B00C01A5241411A00D20146524110467047FFE701B5002000F0FCF802BDC0460029F7D003B5FFF775FF0EBCD1
:403F40004243891A1847C04603460B437FD4002243088B4274D303098B425FD3030A8B4244D3030B8B4228D3030C8B420DD3FF22090212BA030C8B4202D31212090265D0AE
:403F8000030B8B4219D300E0090AC30B8B4201D3CB03C01A5241830B8B4201D38B03C01A5241430B8B4201D34B03C01A5241030B8B4201D30B03C01A5241C30A8B4201D331
:403FC000CB02C01A5241830A8B4201D38B02C01A5241430A8B4201D34B02C01A5241030A8B4201D30B02C01A5241CDD2C3098B4201D3CB01C01A524183098B4201D38B0191
:40400000C01A524143098B4201D34B01C01A524103098B4201D30B01C01A5241C3088B4201D3CB00C01A524183088B4201D38B00C01A524143088B4201D34B00C01A5241DB
:40404000411A00D201465241104670475DE0CA0F00D04942031000D34042534000229C4603098B422DD3030A8B4212D3FC22890112BA030A8B420CD3890192118B4208D322
:40408000890192118B4204D389013AD0921100E08909C3098B4201D3CB01C01A524183098B4201D38B01C01A524143098B4201D34B01C01A524103098B4201D30B01C01A81
:4040C0005241C3088B4201D3CB00C01A524183088B4201D38B00C01A5241D9D243088B4201D34B00C01A5241411A00D20146634652415B10104601D34042002B00D54942C4
:40410000704763465B1000D3404201B5002000F00BF802BD0029F8D003B5FFF715FF0EBC4243891A1847C0467047C046014B18687047C0468C0400200E4B70B500251E1CFA
:404140000D4CE41AA410A54204D0AB00F35898470135F8E70FF09CFF084B00251E1C084CE41AA410A54204D0AB00F35898470135F8E770BD9C4001009C4001009C400100D4
:40418000A440010030B50024944208D0035D651C0C5DA34201D0181B02E02C1CF4E7002030BD002310B5934203D0CC5CC4540133F9E710BD031C8218934202D01970013350
:4041C000FAE77047154B10B51C68A36B002B15D1182000F033F8124BA0630380114B01224380114B8380114BC380114B03810523438106338381002302614361A46B0D4A50
:40420000206961690C4B00F08DF80122002380185941206161614800400810BD8C0400200E330000CDABFFFF341200006DE6FFFFECDEFFFF2D7F954C2DF4515808B5034B1F
:40424000011C186800F004F808BDC0468C040020032370B5CC1C9C430834051C0C2C01D20C2405E0002C03DA0C2300202B6042E08C42F9D3204A1368101C191C002913D0BA
:404280000A68121B0DD40B2A02D90A608B181FE08B4202D15A6802601BE04A685A600B1C17E00B1C4968E9E7144E3368002B03D1281C00F025F83060281C211C00F020F80B
:4042C000031C421CD0D00322C61C964386420AD11C60181C07210B301A1D8843821A0AD05142995007E0311A281C00F009F8431CBAD0331CECE770BDE0130020DC13002056
:4043000038B50023064C051C081C2360FDF7B8FD431C03D12368002B00D02B6038BDC046A42F0020F0B54F46464605042D0C2C1CC0B41704160C3F0C9946030C7C437543C7
:404340005F4373437D19260CAD199C46AF4203D980235B029846C4444B465143434324042E0C240C2D0466442C1959188919201C0CBC90469946F0BD10B501F0FDFB10BD71
:4043800010B500F067F910BD10B50749044609780220002907D1204601F00FFC002802D1204609F093F810BD12030020FFB585B0002568460E9F057339481C46007800286B
:4043C00002D0082009B0F0BD10990F9801900097029105A807C800F067F80028F2D10120694603AA0D73002C1BD0002113E08B00E55A082D09D91E19B678002E05D0083DE6
:40440000E55213785B1C137003E0042901D2012003E0491CC9B2B942E9D31178042900D300200028CED110990F9800F057FF002801D00120C6E701F09FFB1A480599016089
:4044400021888180A188C180A27A0272A17B4172A089012540084843A0810220A073208950432081A5726846037B22460799069800F0A2F80028A5D16846094C007B607015
:4044800001F082FB00289DD1064806F0F5F9002898D106F011FA002894D1257092E700000802002038050020FFB53A4F1C4603463F780020364A0A9E0B9D002F12D1002948
:4044C0000FD0029991420CD3002B0AD0002C08D00999042905D3002E03D0FF216E318D4202D2012004B0F0BD00210A460D463FE08B001E19B678002E36D0E35A002B33D089
:4045000073435B199DB20B0000F048F806040E15191D253F2388FF27A678233BEB37BB42DFD2032EDDD31FE0A3880C2BD9D91A4EB342D6D818E02389302BD2D114E0A38922
:40454000482BCED110E0228A134E1346233B223EB342C6D208E0A38A0F4F1E46233E223FBE42BED29342BCD80028BBD1491CC9B2099B9942BCD319461C2251434A19044973
:40458000521802998A42ACD8ACE70020EEE70000D808000008020020DCFF000030B47446641E2578641CAB4200D21D46635D5B00E31830BC18470000FFB50F460646002400
:4045C000384381B01D46800701D0012438E0FFF7C3FBFFF7ABFB00F097FA00282ED100F0D3FB00282AD11849084600F0ABFE0004000C23D13000154E04D03060B7800020A4
:40460000F0803581AD1DEFB23946039800F046F804000ED1B088F2880837801AF9B280B201F080F9002801D0012407E0E8B200F019F900F031F906490120087000F076FAE9
:40464000204605B0F0BD000089470000440500200A02002010B503480078012801D101F003F810BD0A02002070B5084B0446DA889E8800205518B54206D81D68AA18226030
:40468000DA885118D98070BD032070BD44050020014800897047000044050020F0B587B007460D4600208900009006916846FFF7DBFF844600285DD1304800990160002181
:4046C00017E02E4B88001A680629115406D22C4C0419667882185670628805E0C419203CA67A8218567022891B68C018491C4280C9B2A942E5D300242DE0601CC2B2059078
:4047000025E01E4FA30039689600581840887118039604904E88B04217D938466F46FE80B6464F786E4677710297049F4F800168039F5E18767879184E7001687646591818
:404740004E800068029F18184770521CD2B2AA42D7D30598C4B2AC42CFD36046002809D168460699FFF780FF8446002802D1054900980860604607B0F0BD00000C0200209B
:40478000C8400100100200207047000010B5002809D005494A68002A05D0011F08788000105801F06DF810BD0C02002010B50446FFF76EFFC0B2801DA0420CD30748406830
:4047C000002808D0A100405800F0CCFF002801D00470001D10BD002010BD00000C020020F8B516460D460446FFF752FFC0B2801DA04203D20020C0430090F8BDB2B2E9B239
:40480000684600F0D5FF0099481C03D0024AA000526811500098F8BD0C020020F8B50746FFF736FF801DC6B20A49002005460C680DE06178002907D06188B94202D3207831
:40484000FFF7B4FF002804D1241D6D1CEDB2B542EFD3F8BD0C02002010B5002801D0FFF795FF10BD70B506460948002504680BE06178002905D062882078121D0023FFF799
:40488000AFFF241D6D1CEDB2B542F1D370BD00000C020020002070471CB5002469460C70142001902346054A05480CF01FFD04480068401C00D1FF2420461CBD1549000051
:4048C000140200203EB5124A0146FF2000230124126800290DD0012914D0042908D104206946009308814B8110460CF0FAFC80B23EBD6846009304814381694610460CF036
:40490000EBFCF4E768460093048143816946EBE71402002070B545890468416800890300FFF73CFE06240408081D2124002004F079FF1BE0022908D0C8B22A4621460AF03B
:404940007FFF2046FFF788FF10E002202A4621460AF076FF2946204600F00AF806E000200CF0B8F902E020460CF060FD002070BD014B0022DB6818471802002070B54489DA
:4049800005680089022803D0032809D0FF2070BD2246094C0023A46829460120A04708E0FFF7EAFC241DA2B200232946022005F046FE002070BD00001802002070470000CD
:4049C0000248002141600180418070471802002070B50C46002186B016460391012802D0022859D116E003A9012005F080FE01281BD1039D324621462846FFF7D2FB0095DB
:404A0000287801900220694608814E816846FFF7B5FF41E0214D002B686809D0049004A9022005F064FE01281DD0022006B070BD002812D0298840182146FFF7B2FB2888BF
:404A40000024801980B228806988091D884206D12C801348FFF792FF03E00320E6E788421AD96C6018E004986860E278A378110219430B4A698000231060E35653600323DA
:404A800013815181A1788170E178C1706178417021780170042028800020C7E718020020500500203EB515460C46022803D004280CD000203EBD00910190022069460881E3
:404AC00007484A8100680CF00CFC07E00AF0B8FE044B0022DB6829462046984701203EBD1402002018020020014AD1609060704718020020034801688068081A0A214843D4
:404B0000000970475C05002010B5FFF715F9542204490548FFF745FB03490120C870002010BD0000E44001003C08002010B5FFF7F7F810BD70B5134C2368002B08D0207BE6
:404B40001149C20705D04008400020738868A08070BD88680B4AA18880B29268814203D90A4D691A091802E0814202D2411A5118A160A080A0689842EAD300F015F80CF0BB
:404B8000CDFB70BD5C050020C0102E40FFFF000010B508461946FFF7A7FF10BD704710B5FFF780FF10BD000003480021016041608160C160704700005C05002010B502003B
:404BC0000DD0FFF7F1FF074C0321207B0843207310010A21FFF7AEF92060002010BDFF2010BD00005C05002000B504480A21806848430209FFF7D8FF104600BD5C05002044
:404C00000248007B8007C00F704700005C05002010B537490868002802DA364B01221A70022290430860344800693149C00B4031096A08425AD0012000F02AFA2E482F4936
:404C40007C30FEF7C9FF2A480E216C30FEF7C4FF294820218430FEF7BFFF274814219C30FEF7BAFF2448FF21C131A430FEF7B4FF2148FF212F31B030FEF7AEFF1E4820496B
:404C8000BC30FEF7A9FF1C481E49AC30FEF7A4FF1C491948491CB430FEF79EFF16481A49B830FEF799FF14481849CC30FEF794FF114817490830FEF78FFF0F481549A83013
:404CC000FEF78AFF0C4814498830FEF785FF0A4812498C30FEF780FF07481921C9029030FEF77AFFFEF786FF002010BDFF2010BD00F02E402802002000002E4055650000D2
:404D0000320300002F3F00003102000010520000EC160000FA12000031D000003AE3000070B50646581C80B245086D00002408E0304600F07FF81055000A1119A41C487044
:404D4000A4B2AC42F4D3D80705D0D0182038D15CC47FD454C17770BD30B50A4C002100195B1E07E0541864782502545C2C430480891C89B29942F5DB994201D1515C0180EA
:404D800030BD000000102E4010B5FF2000F080F90F49FF2048700E481021801D41800121417001700A490020C91C4870FFF730FF04000AD100F0CCF807210648FEF7FEFEB4
:404DC000044807211830FEF7F9FE204610BD000028020020CC112E4030B504465B1C1804450C002308E0204600F024F8241D59005B1CA4B250529BB2AB42F4D330BD0000BC
:404E000070B500210A4D5B1E0AE0541864782602545C344346193480001D891C80B289B29942F2DB994202D1515C4019018070BD00102E40014940180088704700102E40B2
:404E4000014A80180180704700102E4010B50B490020487000F07CF8002000F03FF9002000F02CF907210648FEF7A8FE044807211830FEF7A3FE002010BD00002B0200202A
:404E8000CC112E4010B50B46062812D006DC01280CD0032801D1FFF7D9FF10BD0A28FCD00B28FAD105480078107010BDFFF76CFF10BD1146184600F02DF910BD2E020020DE
:404EC000F8B5204DAC6A0127A0071F4E002816DA307806280ED1286A384328621B480069F903084381B219481030FEF775FE042000F0CEF8134802212830FEF75FFEE007AA
:404F000011D0062000F0C4F80F49FF20C91E48707078002802D1686B38436863094801212830FEF74BFEE0050BD53078042802D1052000F0ADF80348FF2101312830FEF793
:404F40003DFEF8BD40F02E402B02002000002E4010B503212348FEF73FFE0120FEF7D2FE20483038406A204C80076178800F890001431C480C38FEF72FFE6078002808D038
:404F8000401E022181401820FFF7C4F8C000083800E0B82081B21548FEF71EFE1348032109021438FEF718FE10481149B830FEF713FE612189010F48FEF70EFE0D4803210E
:404FC000001FFEF709FE0C490C48FEF705FE0B480B496038FEF700FE084801218838FEF7FBFD10BD70F02E402E020020D8102E4090890000041E2E40FF0F000058122E40D4
:40500000209000000849087806280BD148780749002803D1486B400840004863C86A01221043C862704700002B02002040F02E4001480078704700002B02002000B5030002
:40504000FFF7ACFA080D050D0B070507090D012000BD032000BD042000BD022000BDFF2000BD0000074A9168D26889B2064B92B2994204D105498A4201D1012100E00021CC
:405080000170704780002E4033D000003FE3000010B50446FEF74AFE072C01D9FF2C01D102480470FEF73CFE10BD00002B02002001494870704700002802002010B5064A40
:4050C000012805D01921C9021046FEF785FD10BD1D21C902F8E7000090002E4010B50A4A141D012808D009491046FEF775FD08492046FEF771FD10BD04491046891CFEF7AF
:405100006BFD0349491DF3E788002E4031D000003AE300000078074AFF2803D04C2804D9553803E01078087070474F3808701070704700002A020020F0B50122002830D0BA
:4051400000292ED00224420600D003246D2342065B06D21800D0641C034600221EE00C2516466E43104D00277519AF720E4F002ABB51696007D0661EB24209D106466D36E2
:405180007606760E05E05E06760E8027BE1B00E080269B198919521C2E81D2B2A242DED300221046F0BD0000DC060020074900200C2242435218927A012A05D0401CC0B202
:4051C0000428F5D30020704701207047DC060020F8B5044616460F000BD0184D6868A04203D9FF306E30A04203D3FF206E30864201D90120F8BD2046FEF7C4FF00281BD0EF
:40520000324639462046FEF7CCFFF0B200210C224A43521913895668F718A74208D90127A41B1B1B9772834206DAC01A1469C0B2491CC9B20429EAD30020F8BDDC06002000
:4052400010B500F05BF80648FF22C1686E320C460448FEF7A6FF03492046FFF76DFF10BD340200206C050020002070470020054A002902D0012902D002E0506000E090604F
:40528000002070473402002070B5084C154608460549A26889182A46FEF783FFA0684019A06028B270BD00006C050020340200203EB50A226946FFF7E7FF044606480A2202
:4052C00000686946FEF75EFF002802D00020C0433EBD20463EBD000034020020002803D0FF226E32914201D2FF20704702490A61C8600020704700003402002002480021C8
:4053000041608160704700003402002070B5074C15460548626880182A46FFF759FF60684019606028B270BD6C0500203402002010B503490A220968FFF7E8FF10BD000077
:405340003402002010B50F4A002313600E4A13600E4B18600E4801600E49012008600E490860000290600E490C4808600D4914300860FF381538506000F0BCF800F0CAF99F
:40538000002010BD6002002048020020740200207802002064020020540200200C080020580200206C020020014610B50020002910D0094B1A689C685118A14209D25868B6
:4053C000196080188A0704D08A07920F891A091D196010BD002010BD48020020F8B50024164E671E321F3D463168136806E01422624310328A58521C1BD0641C9C42F6D398
:405400006A1C14D02C461422544322460C3288500C214843FFF7C8FF3168002808510AD031680020103408517068401C70602846F8BD2546E4E73846F8BD0000580200207C
:40544000F3B50026F64381B000281BDB1E490968884217D80299002914D01B4F142204463F1D54432546396810354859401C09D0FEF75CFC38682F1F4159C359994203DBEF
:40548000FEF74EFC3046FEBD214608310091465801590C20704308180C220299FEF781FE0948761C001D0068C159B14200D100260549009A091D865008684159491C4151C6
:4054C000FEF72EFC0020FEBD54020020002803DB07490968884202D90020C043704704491422091D09685043103008587047000054020020F0B500200D4A451E0346171F7E
:4055000050600FE014260146714314680E1DA3510C461668083433511668083435511468401C635039688842ECD30020F0BD000058020020F3B50026F64381B0002841DBB4
:405540002349096888423DD8029900293AD0204F142204463F1D54432546396810354859401C2FD0FEF7E2FB3868415900292BD0211D009146580C21005971430F46C1196C
:405580000C220298FEF70DFE11480021001D0068761C00590C34C0190160416081600C48001D00680159B14200D100260849009A091D865008684159491E4151FEF7B0FB96
:4055C0000020FEBD3046FEBDFEF7AAFBFAE7000054020020FEB504460D4600201E49089E0860471E009001900290002C11D0486885420ED2002A0CD0002E0AD0642E08D8CD
:4056000008460C3001681C2068430C18207A002801D03846FEBD0120226020721846FFF7DDFE6060401C13D06681A6810A4827610C3067610179A94200D2057100216846D5
:4056400001810A462846029B00F040F82846FEBD00202072DDE700006002002038B50124009400F039F838BDFEB50027164EFF433D4600240EE01C20316860430818017A20
:40568000002906D04068FFF721FF002801D0254603E0641C3079A042EDDA681C12D01C2130684D434419FEF741FB69466068FFF741FF0546FEF734FB002DD9D12168684691
:4056C0008847D5E7FEBD00006C02002038B50024009400F001F838BD1FB500220C49541E0A60002811DB496888420ED808491C220C31096850430818406801A9FFF7A0FEE1
:40570000401C02D0002004B010BD2046FBE7000060020020F0B50021114A4D1E174611710C3F0B46BD6016E008461C2460431668041D355114680646235014680836A35573
:405740001468361DA353044616680A34335318301468491C255078688142E5D30020F0BD6C02002038B500210091002811DB0F49097888420DDA0D4D04010C3529680859B5
:40578000002807D0201D0818694600F071F9002801D0002038BDFEF7C9FA28680F34015D491E0155FEF7BCFA009838BD7C020020F7B582B0002502986E1E06602E48D21C07
:4057C000024017462D4A2C4610460C380178106805E02301C358002B0FD0641CE4B28C42F7D3711C28D03401211D40180191039900F02CF900281FD101E02646F1E71F4883
:40580000016820460C300F521C480399026820460E30115419480399026820460F3011540398784300F0A0F8144900280968085102D00024009011E001251AE00F48016894
:4058400001980818009900F02EF9002801D0012502E00098C0190090641CE4B203988442ECD3002D05D10298066004480179491C0171284605B0F0BDFCFF00008802002072
:40588000F8B50D4600216A468C461180002839DB23490978884235DA214B04010C3319680A59002A2ED020460C300B5A801C0E5C184670438018954224D3854222D2002097
:4058C00006E007465F43BF18AF4206D0401CC0B2B042F6D36046002814D0114E271DC8190C366A46294600F008F900280AD168460088012808D030682946C01900F0D3F84F
:40590000002803D00120F8BD0020F8BDFEF70EFA30680F34015D491C0155FEF701FAF3E77C020020F8B50F46002400F033F8002817D10C4900220B460C334A600EE0210156
:405940001D680E466A501D680C36AA53B61C1D680F31AA551D68641C6A54E4B2BC42EED31A71F8BD7C020020014610B5002000290CD0C91C064B8A08596892005C888A1872
:40598000A24202D898685A60401810BD002010BD7C020020F8B5064600200F4D009029700C0121466846FEF75FFE00280CD129460C3100980860301B001F84B22146684647
:4059C000FEF752FE002801D0FF20F8BD6C800098A8600020F8BD00007C020020F8B5002827DB19490978884223DA174C05010C342168485900281CD028460C30085A009092
:405A000028460E300E5C401C0E5420682F1DC01900F064F800280CD12068002445590EE0094829460C300068C01900F03CF8002801D00120F8BD00982D18641CE4B2B44243
:405A4000EED30020F8BD00007C02002030B50D4604000BD0A800FFF787FF6060002805D000202570C0436080002030BD012030BD70B50D46040005D0002D03D00220205E56
:405A8000002801DA012070BDFEF750F90221615E60688900405828606088401E6080FEF73FF9002070BD70B50D46040007D0002D05D002212078615E401E814201DB012077
:405AC00070BDFEF733F96088401C00B26080616880000D50FEF724F9002070BD10B5040009D0227800216068FEF764FB0020C0436080002010BD012010BDF0B500231D46FB
:405B0000002802D00224045F0AE00120F0BD46689F00F6598E4201D1012503E05B1CDBB29C42F4DA15700020F0BD00000148007870470000900200207CB505460024FEF722
:405B40001BFCA8796946087000A8062229460130FEF727FB0021684604F0C2F80C2804D0072804D01F2804D004E0022402E0042400E0272420467CBD10B500F0B7F8FFF764
:405B800057FAFFF75BFA10BD10B503240CF018F8002810D10BF0BCFF00280CD104F0F6FD002808D100F064FA002804D104F0F2FA002800D10024204610BD70B500250446C9
:405BC00000280ED0A07901280BD8FEF7D5FBA0790028204602D002F0D9FD03E002F08EFD00E00125284670BD38B504460120002C20D0617801291DD800290BD0FF25E535C5
:405C0000FEF7BAFB2846FFF715F9C0B22070072803D00EE0FF25CD35F2E70020694608706846FFF71FFA69460878012801D108202070002038BD70B504460120002C1FD0B1
:405C40006178012902D92278092A19D8002905D0FF25E5352078092803D004E0FF25CD35F8E708202070FEF787FB2078082808D00020FFF733FA21782846FFF7E1F80020BF
:405C800070BD0120FFF72AFA0721F5E770B50D46040001D0002000E00548002802D0012101F0ACFF2946204602F086FA70BD0000B008002038B50546002004460090224640
:405CC0006946284600F070FE0098002801D00BF059FFA878214602F0B3F8A878214602F0A2F8641CE4B2052CE9D338BD38B5FFF79FF9042819D0052817D006281AD003282F
:405D000042D007280AD100206946087002460120FFF7B8F8FFF78CF90128FBD138BDFDF733FFFFF785F90128F8D0FFF781F90128F5D138BD02F0ECF805E0FDF725FFFFF7E4
:405D400077F9012803D0FFF773F90128F5D1A12424012046FFF76EF801220E4983079B0F0A70022BE5D149880029E2D0104301462046FFF765F82046FFF75CF8410849006E
:405D80002046FFF75DF838BD02F0C6F80120FFF77FF938BD96020020F8B50646002402F0F9FD0546304602F00DFE00210346012632468A40174610462F401840002F03D03F
:405DC000002801D1224394B2491CC9B20529EFD32046F8BD1CB50020694648706846FFF703FF01AA69460A20FFF74CF86946042008561CBD10B50C4601F07CF9002809D0CF
:405E00000179002906D0C1788078224602F082FA002010BD022010BD01480078704700007C0800204030C07E002800D00120704700B500F001F800BD882148430649401836
:405E40006030417F491CC9B24177052901D300214177C8B2704700009008002013B501F049F904000BD001F09CFC002807D0214601AA0A310620FFF705F800201CBD022093
:405E80001CBD000010B50C4601F034F900280AD001F087FC002806D0224604490A20FEF7F1FF002010BD022010BD000065080020F3B581B0074601460026029802F062FDB5
:405EC0000446002F01D0002500E0154D002D21D0284601F045F9032C04D13946029802F07BFD06463846029901F09DFF032C06D0002C10D00121384601F020FA03E03146A7
:405F0000384602F01DFF284601F05EFE0221284601F074FEFEBD3846029901F084FFFEBDB008002070B50446002503F013FB002801D00C2070BD2078611C02F0E5FAFF2857
:405F400002D01F25284670BD02F032FBFF2804D02178621C01F0DCFEF4E70725F2E710B503F0F8FA002801D00C2010BD02F0A4FA002010BD70B50D46044610210BF042FD4E
:405F80001021601806460BF03DFD334610221946204603F00BFB102130460BF033FD02202870204604F04EF870BD70B504464078217802028006850FE0781143A67809053F
:405FC0000002090D0643084601F094F8002812D0022D10D0032D0ED0002E08D00179092909D0002907D0214600F0A1F870BD0089002103F05CFF20460BF0C4FD70BD00203F
:40600000704770B50446002503F0A4FA002801D00C2070BD2078611C02F076FAFF2802D002F0B8F900E01F25284670BD10B504F0B1F800F0F6F8002010BD10B504460078AC
:406040006178E2780843A17811430843217908436179084305D003F06FFA002803D00C2010BD122010BD204602F090FB002010BD10B5044803F0D8FA02F096F900F004F8A9
:40608000002010BD4C080020F8B5114D00266E706E736E716E76AE76EE766E75AE70EE70AE712F46EE730120B03778723F207871FF20B87100F00EFA0024204601F038FBC8
:4060C000641C2406240EF8D03E72FE71AE73F8BD9008002070B505460E46084602F05AFC0446304602F06EFC0121A9400A46224001400A4301D0012070BD002070BD10B55D
:406100000446084602F05EFC0121A140014201D0012010BD002010BD10B5FEF789FF032804D101F0F9FE0120FEF7B2FF10BD70B5044600790D4609281CD000281AD02046FB
:406140004030817E491C8176204601F03DFDA078FFF76EFE064602462946204600F00CF8002806D1A0783146FFF790FD28460BF009FD70BD0846FAE7F7B5054648780C4607
:406180008006870FC8788978000282B0014368468180284601F010FB060007D021462846049A00F095FB304605B0F0BD384600F03DFC0746034601AA2946204600F0CEFAD4
:4061C00068468088231DC0B20090A878FF22049901F0ACFF684680883B46C2B2A878049902F050FBDFE770B5002500242846FFF7D3FD060010D03046E040C007C00F07D037
:406200002146284601F003FE21462846FFF750FE641CE4B2052CEED36D1C2D062D0EE4D070BD10B502F0C0F8FFF72EFF0BF012FD002010BDF8B5002400F081F8012301288E
:4062400000D10124104F00203E4620360425082203E0002801D0002100E031460979002907D001290BD002290BD0114681402143CCB2401C0006000EEBD07C70F8BD1C4376
:40628000F7E72C43F5E700009008002010B5FFF7D1FF10BD10B50B4681791943817103D08078114602F0B2FA10BD10B582798A43827102D1807802F0C1FA10BD70B5FF25AC
:4062C000D53502242846FEF7B5FD0C4A9178002901D0022906D1137852789A18282A01D9032402E0032900D101244105490DE00201432846FEF7A4FD70BD000092020020F9
:4063000010B500F022F8002807D0012805D0032801D0042801D0002010BD012010BD014610B50020C90701D000F009F810BD014610B50020C90701D000F001F810BD10B5EA
:406340002020FEF777FD000A10BD10B51820FEF771FD410501D5042010BD4007800F10BD38B5044640060CD5684601F0DBFD0220FFF78CFF072002F033F96846007801F0B9
:4063800045F9200613D5FFF7E0FF01280FD1684601F0C8FD6846007800F09EFA072002F01FF9012001F078FC0220FFF76FFF38BD10B5034A0178117002F021F9002010BD6A
:4063C0009202002010B50446FFF7B9FF002801D00C2010BDA27B01211848002A827801D00A4301E05208520082706279012A0FD0C17849084900C170207901280CD061886A
:40640000208802F00BFF2080207904280BD00DE0C2780A43C270EFE7E01D02F09FF90848808C208002E0E01D02F098F9054920798870204602F0F2F8002010BD9008002051
:406440003C0800209202002038B50478FFF777FF844201D10C2038BD002C18D0072069460870FFF74DFF012807D10121684600F091F8012801D0092038BD6846007802F058
:40648000AFF8FFF71BFF02F0F6F8012014E0FFF737FF012806D1684601F044FD6846007800F04EFA072002F09BF802F0DBF8FFF746FF0028FBD10220FFF7E8FE002038BD13
:4064C00010B5034A0178517002F078F9002010BD9202002038B568460BF0EAFA002801D01F2038BD01210098C90201804180002505714571857107214173857302F08EF84B
:40650000009C202200212046FDF754FE25702A460021601CFDF74EFE204602F070F8204602F04CF900980BF02DFB042200210248FDF740FE002038BD920200200346084891
:4065400000B5834209D8184600F0D4FD002804D00089984201D1012000BD002000BD0000FF0E0000074A9179491C8906890E917138220A4092014907090E11430843024938
:406580000840704790080020FF0E0000C006C00E70470000F8B507460E4600240D4803E0002C01D0002500E005462979002905D0641C2406240EF3D00020F8BD204601F06A
:4065C000B7F82E712046FFF7CDFF28813C700120F8BD0000B008002010B503F01BF80222002100F003F801F087FE10BD10B5094B40074907000F090F185A595A40185043FD
:40660000C0086421FDF796FC002800D1012080B210BD000038410100F7B53D20405C88B016460C46002829D030786946087200252046FFF7F7FB012800D00125204603A9D3
:4066400038300191009023460327A17E34332A46206A03F003F802A8089900900B46019120463A4603A9243002F082FF02466846007A3070204601F047F810460BB0F0BD14
:40668000FFB587B00C4605461078694608723D20005D1746002826D000262046FFF7C2FB012800D00126204603A93830019100902346A17E34333246206A02F0CFFF02A816
:4066C0000090291D019120462B1D03A924300A9A02F04EFF02006846007A388002D1204601F012F810460BB0F0BDF7B53C20405C88B015460C4600280CD028786946087277
:40670000002806D000262046FFF78CFB012803D003E01F200BB0F0BD0126204603A938300191009023460327E17E34333246E06902F094FF02A8089900900B460191204646
:406740003A4603A9243002F045FF02466846007A2870204600F0E2FF1046DBE7FFB505463C20405C87B016460C46002810D0084601F022F801280BD03088694608830028B1
:4067800009D000272046FFF74DFB012805D005E000200BB0F0BD0220FBE70127204602A93830019100902346E17E34333A46E06902F054FF06A80090291D019120462B1D02
:4067C00002A924300A9A02F005FF02466846008B30806846008BA870000AE870204600F09DFF1046D5E770B50D460446FFF71AFB01280AD0E87AA97A00020143A07801F074
:406800004BFC012808D0002070BD00222421204602F04EFC242070BD28214C200155204600F09AFB282070BD002801D0002000E003484030C07F012800D00020704700001B
:40684000B00800200146002049070ED50021084B03E0002901D0002200E01A461279022A04D0491C0906090EF3D0704701207047B00800200146002049070ED50021084BA5
:4068800003E0002901D0002200E01A461279022A04D0491C0906090EF3D0704701207047B008002010B5044680346068002803D00BF07CF90020606010BD403041707047DE
:4068C0004030817070474030017070470171704792001018C166704770B53C2501F0F6F8040004D020460021433001F08FFB2946204600F0C3FB002C02D0A07801F078F87B
:4069000070BD000010B5002801D0002000E00348002802D0008903F011FB10BDB008002010B5002801D0002000E00448002804D00179072901D100F041F810BDB0080020AA
:4069400010B501F0C3F8002802D0807801F050F810BD00207047000070B50546008A00281ED010491122897A1140C90618D5294640314A8A098A521C4A4392B2D10800D1FB
:406980000121540801E0621A94B2A042FBD9FFF7CDF8012804D1298AA878224601F05AFC70BD00003C08002000230B60052A04D292001018C26E0A60C366704738B5044636
:4069C00000200090A079002814D14020015D052901D00E290ED168460BF07AF8002809D12046009902F04CFB03481021C28A2046FFF750FC38BD00003C08002010B50B46BA
:406A000004460146184602F01BF8002802D020460BF0C2F810BD13B5044601AA11460620FEF730FA6846818861811CBD002800D10220704770470000F8B504462346401D6F
:406A4000543300909A1EA078911E01F07AFA25464035A88A298A8000FDF76CFA401E81B2688A884203D96982A07801F04CFF20460021433001F0CAFA8020FEF7DBF9E88193
:406A800002F0C8FDE989891C8AB26179FFF7AEFD01F032FC02F0BEFD2A8A6179FFF7A6FD074601F01BFC688A00280BD0FF26F1363046FEF7BFF90321090201433046FEF7C7
:406AC000BFF902E0002001F00CFFFF206130FEF7B1F96E8A002E0BD070431049FDF71AFB0004000C01D0401C80B20D49488002E00B4800214180288A704381B2A07801F036
:406B00006BFE2837B9B2204602F08CFBE98AA07801F0BAFDA07801F0A9F9F8BD71020000960200207FB504468034616805460E46183108226846FDF734FB314620310822B5
:406B400002A8FDF72EFB102168460AF05BFF6068102108300AF056FF60682B46083024331022694602F022FD7FBD10B504460821FFF79BFB10212046FFF797FB20790528FC
:406B80001FD006281DD008281AD12189002003F04DF9072020712046FFF744F9014620464030012913D00E21017000210176204600F02AFF2046FFF775FE2046FFF7CCFE86
:406BC00010BD20890122002103F014F9E1E70521EAE70000FFB581B01F4604460821FFF764FB10212046FFF760FB2079082803D0092804D0042203E00422012501E0092220
:406C00000025204600F0C4FD264600204036307022712046FFF746FE0398002D02D0012808D00BE001280AD120890022029903F0E1F804E02189029803F0F8F80127002034
:406C40003076012F04D0204600F0DEFE05B0F0BD02983073204602F057FA054605480121C28A2046FFF716FB002DEFD109202071ECE700003C08002070B50C460546FFF7E7
:406C8000D1F8012809D108212846FFF70EFB0023012221462846FFF79DFF70BD10B5044600F076FD2046FFF7FDFD00214034217010BD70B505461A24FFF7B4F8012809D18A
:406CC00008212846FFF7F1FA0023012221462846FFF780FF70BD0000F8B50446002000900E4668460AF0F4FE002801D00D20F8BD8420005908212030009D00F0F7F9204696
:406D00000421383000F0F2F9002E02D1204600F07DFD2946204602F043F90E480821C28A2046FFF7B7FA204600F0D5FE25464035002808D0204600F023F8002801D00920A3
:406D400028700020F8BD08202870204600F03CFFF7E700003C080020014610B540310A460978082906D0092907D00A2901D100F091F810BD0B20107010BD00F001F810BD3C
:406D800070B50446007925464035052805D0062803D008280FD00C2070BD03220621204602F086F90D480821C28A2046FFF772FA1120287010E006202873204602F0A4F97C
:406DC0000646AA8A0A20424301212046FFF762FA002E01D109202071002070BD3C08002038B504460020009068460AF071FE002801D00D2038BD2046009D00F08DF9082065
:406E00002071204600F002FD2946204602F0FAF800213D2001550F2040210855204600F0D3FE002038BD00B5024600F0B1FC10214032117000BD10B50446FEF7F3FF01281C
:406E400009D04020005D112805D100231A4606212046FFF7BFFE10BD10B5FFF786FE10BD38B504460021684600910AF031FE00280CD12046009902F03CF905480821C28A24
:406E80002046FFF707FA0D204034207038BD00003C08002038B504460021684600910AF017FE002801D00D2038BD2046009902F015F905480821C28A2046FFF7EBF90C20FD
:406EC00040342070002038BD3C08002000787047F8B50025002801D0002400E01A4C002C28D0204600F05DFC002823D0207903281CD005281CD026464036B18AA07801F0D4
:406F000079FCB078012815D10021204601F0B5FD274680373868002802D00AF047FE3D600020B0702079072805D007E0042000E006202071F8BD2046FFF70EFD02212046BD
:406F400000F05CFEF8BD0000B008002010B54C22115400F046F810BD10B50446FF21FFF7A4F909202071A07801F074FC10BD000038B5FF216A461180002801D0002400E09A
:406F8000064C002C08D011460620FDF77BFF684601882046FFF73FFD38BD0000B008002010B504468079002809D022214C200155FF212046FFF779F9204600F012F810BDCB
:406FC00010B5037902464032002B03D01173092B02D003E0002100E02221117300F001F810BDFEB504460089002700902781207926464036002817D0012815D002280AD12B
:4070000012E002AA01A9204601F008FD002807D101980AF0C1FD204601F028FD0028F0D02046FEF747FEB776254680352868002802D00AF0BBFD2F606868002802D00AF07B
:40704000B5FD6F60317B002915D0009800F047F8A078002100F01EFF2046FFF7BDFAA07801F004F8A07800F0C3FC0B20FFF70EF900F002FCFEBD1F213173E6E770B50E46EE
:40708000054602F0C3FA044606702846FEF7CAFE014601204140204661700C3000F09FFF002D10D02889608028464030C1782171002E10D169796171018AE180418A21819E
:4070C000808A608107E01820FDF7B4FEC005C00F207100206080204602F051FE70BD0A4610B50146002002F041FF10BD10B50AF065FA10BD00B50146FFF748FA002801D054
:40710000002000E00348002802D002898A4200D0002000BDB008002038B5044680346068002806D168460AF0E3FC002801D100986060606838BD000010B5014600F03CFBB3
:407140000128887802D0FEF777FE10BD88214843024940186030007F10BD00009008002070B5054604464035A87F012811D1A1788820084A484380186030067F3046FEF75B
:40718000A9FF002805D10220A877A078314601F021F870BD9008002010B50E4CE079002816D0FFF720F80C48827FC17F808B00F06BFB01280CD10020E07100F0BCFE044675
:4071C000AC20FDF737FE010B02D0204600F00EFA10BD0000400900209008002070477047490510B5490F0B00FDF7D8F9060704080C0C0F073E21FFF7A9FE10BD0821FFF798
:40720000DFFE10BDFFF7EDFE10BDFFF7C9FE10BDF8B507460025002D01D0002600E0204E00F064FE3046403044890021418100F067FE304600F0B5FA01282BD1A00702D5E6
